:020000042000DA
:1000000000980020A5040020AD040020C5040020B5
:1000100000000000000000000000000000000000E0
:10002000000000000000000000000000DD040020CF
:100030000000000000000000F5040020F70400208C
:100040004F2600203D2700200D3103002B270020E4
:10005000B72600208D3103004F27002057270020AE
:10006000F9040020F90400206F270020AD310300BF
:10007000578102009B200020F9040020F904002091
:10008000F9040020F9040020F9040020DD1E0020FE
:10009000E11E0020E51E0020E91E0020ED1E0020CC
:020000042000DA
:10016000320000008B0500209B160020FD070020B8
:10017000000000000000000063800200BD8002005B
:10018000590B0020FB80020019810200358102001A
:100190005D810200C125002071050020450B002073
:1001A0004F0B002000000000000000003F00000096
:1001B000F48B002000040000740B080048010000CC
:1001C0006807080000040000C80C080020050000B3
:1001D000000000002000000048000000580000005F
:1001E0006800000004010000160100002801000062
:1001F0002E010000202A00008E2E000001000000C9
:100200008813000025170020E9600200FD9302001A
:100210003711002019280300A5740200C92300200B
:1002200003000000D5200200FD07002004000000AC
:10023000D74902000F490200831D020063910200AA
:10024000B7910200BF910200078202007182020092
:10025000D2330020AD830200938402004185020066
:1002600015860200378602005F860200758602004E
:10027000F9870200258902005D8A0200D38C020002
:10028000098D02000F900200438D0200278E0200AC
:10029000F98E0200478F0200CB0A0020D58F0200A2
:1002A00049510200775102002F5202001000000055
:1002B00020030000803E000000000000000000005D
:020000042000DA
:1002C000504600030003983A6400F401B80B000C98
:1002D000B80B120030003000CD009A01120024004B
:1002E00030006400B0001800280012001200D0078F
:1002F0000000FFFF00000000000000000000000000
:100300001F000002444131343538302D30310000B7
:1003100000000000000000000000000000000000DD
:0403200000000000D9
:020000042000DA
:10034000FFFF010000C201000000000000000000EB
:100350000000F4010100011B0A071AFFD200021578
:10036000585CDE931B0142CC9A1325009BEDC65EC0
:1003700000010002C5000000000009FF00605257A4
:100380002D424C450000000000000000000000006D
:100390000000000000000000000044413134353806
:1003A00078000000000000000000000000000000D5
:1003B000000000000000000000000000000000003D
:1003C000000000000000000000000000000000002D
:1003D0000000000000000000010000CAEA80D00711
:0403E000064064323D
:020000042000DA
:100440000348854602F05EFD00480047C7200200D1
:10045000009800200F4906200880FF200E49013037
:1004600008600E4988683E2290432E308860002242
:10047000052000070280018A0F231B021943018215
:1004800001210748C90404C1401E0028FBDA62B6F6
:10049000704700000034005080E100E0003300505D
:1004A000FF0B00001548804715480047042071469F
:1004B000084203D0EFF3098012490847EFF30880A0
:1004C0001049084704207146084203D0EFF3098021
:1004D0000D490847EFF308800B490847042071468F
:1004E000084203D0EFF3098008490847EFF308807A
:1004F00006490847FEE7FEE7FEE700005504002036
:10050000410400201109002011050020AB0C00203F
:1005100005221207518A8023194351821249036828
:100520000B6043684B6083688B60C368CB60036972
:100530000B6143694B6183698B61C369CB6108625D
:100540000A48836A4B62C36A8B62036BCB62C36BDC
:100550000B63436B4B63806B8863908A800601D585
:1005600000BE7047FEE700000018080000ED00E044
:1005700010B593490020086000F0A2FA012080071E
:10058000016B49004908016310BD1CB58D4901206C
:1005900008708D490820088002F0C6FC01F066F959
:1005A00000F000FA894801780170894801780170EB
:1005B000012002F0BFFCFF2401340D202146800100
:1005C00002F0BEFC01F01CFF00F0CAFF00F008FAC8
:1005D000042000F0EEF8072000F0EBF80A2000F00D
:1005E000E8F8062000F0E5F80B2000F0E2F8012022
:1005F00000F0DFF8022000F0DCF8002000F0D9F86D
:100600007448006802F0A2FC00F06CFFA0050168CD
:100610002143016000F0C3FA00F0FFF802F0F4F8A3
:10062000FFF7A6FF002005242407E0826A4D6888B2
:10063000E0218843A0306880012002F08DFC022771
:100640000426208900061BD501208007006B0004CA
:1006500016D402F087FCC00712D1042002F088FCF7
:10066000019002F08BFC0198002809D00020019035
:10067000042101A802F088FC002801D000F033FA20
:1006800072B601F0E3FE69460870042806D002281D
:100690000CD003280AD001287ED088E04F4800788B
:1006A000012802D00320087000E00F70208A304338
:1006B00020824B48C0690128087811D903284AD103
:1006C00002F068FC002846D002F06AFC002842D004
:1006D000032002F06BFC00283DD04248077008E080
:1006E000032838D102F062FC002834D03D490120B3
:1006F00008703D48016931430161618A20229143BC
:100700006182218A3943218269460A78618A022AF4
:1007100023D0314361827F21890123888C46802147
:100720000B43238000235B1CDBB20A2BFBD3638AC1
:1007300010210B43638261462C4B491E596121886D
:100740008023994321800021294B022A19700BD064
:10075000032A09D025E06846C0E731436182618AF7
:10076000102399436182EEE76A88FF2301339A439D
:100770006A8062881F4B1A806A8801231A436A8044
:100780000191019A521C0192142AFADB62899208A3
:100790009200521C628100E008E062895206FAD59C
:1007A000618030BF0169B143016100E030BF62B6D2
:1007B00047E7C106C90E012088400F49086070470D
:1007C0008C03080000800020003300500000080067
:1007D000202A080004900020200000505402080045
:1007E000E0010020C406080000ED00E000800040A9
:1007F000528000205480002080E200E0704700001A
:100800003E480178002902D08021417070473C4960
:10081000002008703B49C8707047384801780029AB
:1008200002D0812141707047354901200870354957
:10083000C870704731480178002902D08221417088
:1008400070472F49022008702E490120C870704758
:100850002A488178002904D0491E0906090E8170B2
:1008600017D142780021002A04D09207920F02701B
:10087000417004E00278002A01D0521E0270120674
:10088000120E017005D0012A02D0022A01D1D1E74F
:10089000C3E7704710B5194CA078401CA0702078B1
:1008A000002805D102F088FB421CFFF7A9FF227047
:1008B00010BD12490120C870704710490020C8704F
:1008C00070470E48C07870470020EFF31081012276
:1008D00082F31088052212071289120605D40A48ED
:1008E000028901231A4302811846002900D0012100
:1008F00081F3108870470548007870470180002018
:1009000054020800C6060800003300505080002042
:1009100005221207118A042319431182118A022326
:10092000194311821189402319431181184B012168
:100930001960184B08211980518A8023194351826C
:10094000154903680B6143684B6183688B61C36819
:10095000CB6103690B6243694B6283698B62C36934
:10096000CB6208630D48836A4B63C36A8B63036B76
:10097000CB63C36B084940310B60436B4B60806BAA
:100980008860908A800601D500BE7047FEE70000AF
:1009900080E200E0003300504018080000ED00E065
:1009A0007047704710B505242407208A0221884328
:1009B0002082A08A0007FCD506484188FF22013228
:1009C0001143418000F07CF9608A20210843608255
:1009D00010BD000020000050A14900204860704771
:1009E00070B50520000701893022914301810189FA
:1009F000802211430181018989088900491C0181F4
:100A0000018908231943018196490C8814430C80FD
:100A1000448A9C4344820589402425430581058AF4
:100A20000426B5430582858AAD07FCD58C4E00258A
:100A300075600D88012635430D804D89AE058A4DC0
:100A40000E8801D52E4300E0AE430E800D88782637
:100A5000B54328350D800D88062635430D80458A1F
:100A60001D4345820B8893430B800289A243028178
:100A70004889800503D57B490520603188800120A5
:100A800080070168821591430160784801683F2220
:100A90005202914342148918016001680203114314
:100AA000016070BD032172480902818108224280E1
:100AB0000021491C9629FCD38280704770477047FB
:100AC00010B56C4802F07EFA10BD70B5654C6088B8
:100AD000C006050F02F07CFA61881E2291436A006D
:100AE0001143618070BD10B563490120C863C86BB4
:100AF0000028FCD101208007C1696048026891424A
:100B000001D20022026019238A1ADB019A4212D311
:100B1000016002F063FA5A4A1188884201D9411AE9
:100B200000E0091A89B2182905D31080012002F0CB
:100B30005BFA02F05FFA10BD08B5009808BD08B571
:100B4000009808BD08B502F05BFA009008BD08B532
:100B500002F05CFA009008BD08B54A4901204A69D4
:100B60005206D20F13D04A699206D20F0FD000223C
:100B70000A610092FF225F32009B5B1C009393424C
:100B8000FAD34969C907C90F02D002F045FA00201B
:100B900008BD40183721C0000901401870471FB533
:100BA000684601F096FB009802F0C4F91FBD10B52D
:100BB000354A0020117800290DD02F490120C86343
:100BC000C86B0028FCD101208007C0692F49096843
:100BD000884201D2012010BD0020107002F0ECF913
:100BE000022803D002F0E8F901280BD12849082097
:100BF000088005200007818A8906FCD4418A80226A
:100C000091434182002010BD0020704708B515496E
:100C10004A8801231A434A8000210091491C00910F
:100C20001429FBDB052109074A8992089200521C0E
:100C30004A814A895206FCD54B89042213434B81D1
:100C40004880488990434881888A0006FCD54889B5
:100C500080088000488148890006FCD508BD000056
:100C6000088000202000005000100000000200401A
:100C700020300050E2040000C00000407C04080066
:100C8000780408000010005000800020B8360020D2
:100C900000330050028908892249101A80B2884224
:100CA00001D9012070470020704781692039897F70
:100CB000082904D21C4A8900515881617047FEE717
:100CC0001B481A4901611B4941611B4981611B494C
:100CD000C1611B4901621B4941621B4981621B4979
:100CE000C1621B4901631B4941631B4981631B4965
:100CF000C16319490E485C314030016018494160B8
:100D0000184981601849C16001201849C00608606F
:100D10001749CA691202120ACA6114498039086067
:100D20007047000030750000E8330020942703006E
:100D30000084004062B600DF28A30200704701DF94
:100D40001CCA0200F8BD02DF40CB0200F5E703DF5A
:100D500084D4020004DF89B0BC330200F8BD05DF93
:100D6000F8BD06DFEC0C030070BD07DF80E100E09A
:100D700000ED00E070B516460D46104602F052F93F
:100D8000002869D0340A304602F04CF9012812D00C
:100D9000A87A1E2811D029460A310E2845D019DC20
:100DA000801E030002F044F90B255829582D5831B4
:100DB0005839583D5800022070BD3146274802F08E
:100DC0003DF90021204602F03FF90221304602F0B1
:100DD00041F941E018283CD006DC102819D012282F
:100DE0002BD0162838D130E0522822D0D22833D147
:100DF00027E0204602F034F92EE0204602F036F9D2
:100E00002AE0204602F038F926E0204602F03AF9BE
:100E100022E0204602F03CF91EE0204602F03EF9B6
:100E20001AE0204602F040F916E0204602F042F9AE
:100E300012E0204602F044F90EE0204602F046F9A6
:100E40000AE0204602F048F906E0204602F04AF99E
:100E500002E0204602F04CF9002070BD012800009D
:100E6000F8B50D46064681002B48EA884458521CC6
:100E700020686B89018F294F514300910146403111
:100E80004A89C989511A8AB2991A89B2B94214D2C7
:100E90009A4212D0294602F031F92D892049009852
:100EA00002F032F92818801C4034E0823002401CE5
:100EB00080B2042102F0CEF8F8BD2821304602F0BD
:100EC00029F9F8BDF8B50546870013480C46C05906
:100ED000C9880068114E024640325389D2899A1A55
:100EE00092B28B1A9BB2B34211D20B4E8A420ED0F1
:100EF00002F016F9F05905225F30611C02F016F974
:100F00002802401C80B2052102F0A4F8F8BD282177
:100F1000284602F0FFF8F8BD4C030800FF7F0000F0
:100F20001027000070B50446007800250D2801D078
:100F30000A2200E002225A494B7A002B06D00D28E3
:100F400004D0637C032B01D0432551E0097A8A4306
:100F500039D10D2809D00E2802D00F2803D134E052
:100F6000607C032804D3402542E0607C0328FAD843
:100F7000A07C0428F7D20A2908D0607C012822D05E
:100F8000022820D06078032809D811E002F0D4F8B4
:100F9000012806D16078032803D0002801D0492514
:100FA00026E002F0C9F8002802D160780228F6D8BD
:100FB0003020035D22462046E17C3132143000F0BF
:100FC00019F8054614E0422512E002F0B5F80128B0
:100FD00007D16078052804D1A01D02F0B3F80028DD
:100FE000DDD002F0A9F8002802D160780228D6D816
:100FF000284670BDFFB5002086B001216A461170F9
:10100000044605910021002C06D0089D099A1F2353
:101010009A4234D9402032E01C23069D079AF7E714
:101020006B185E78330002F003F81D2610101010C4
:1010300010101010102626262626262626262626BE
:1010400026261010101010102600059B03E06F4696
:10105000FF5CB74204D05B1E5BB2002BF7DA03E003
:10106000002B01DB4A2006E0059B6F46FE54059BE2
:101070005B1CDBB205936B5C491C5918C9B29142E9
:1010800001D20028CCD0914202D04A200AB0F0BD53
:10109000641CE4B2022CF9D20028B3D0F6E70000B9
:1010A0009805080070B5EFF31085012080F31088D3
:1010B000264802F04DF80446002D1DD0012080F393
:1010C0001088002C23D020462038C08B204988422D
:1010D0001DD16189208902F041F805000ED021461A
:1010E0001031A38962892089A847002806D00128E9
:1010F0000DD002280BD105E00020E0E7204602F0E9
:1011000033F804E0114821460C3002F033F8EFF3D5
:101110001084012080F310880C480068002802D158
:10112000012002F02DF8002C03D0012080F310885C
:1011300070BD0020FAE710B5BC21064802F026F881
:101140000549012002F028F810BD0000A80508009C
:101150003883000004060800A5100020F3B581B014
:1011600001980C460102CA1D0E310223344802F0D8
:1011700019F8047001990546022732488E00002CA8
:1011800006D0042C16D0062C10D0072C3FD108E036
:10119000815905224968897C114069708059C7735B
:1011A00035E0084602F004F8687030E080590F21FD
:1011B000C1732CE0044680594068417C012902D16A
:1011C000007E01280FD0019801F0F8FF01210028CE
:1011D000A0590BD04268D07D00281CD001281AD01D
:1011E00004280DD00FE0002068700DE04068C27D3B
:1011F000022A01D0042A06D1007C02280BD102E089
:10120000107C022807D06F70A1590320C8732846AC
:1012100001F0DAFFFEBD6970F6E701460A780120A9
:10122000042A01D9002070474A78002A01D0012AF7
:10123000F8D10A79082AF5D849790829F2D87047EF
:10124000021C000028050800FFB589B00D460020EB
:101250006946059008720B98000A009001F0AEFFF5
:1012600007460B9801F0DEFE00287DD00B98297808
:10127000000A8400784E012963D0042904D006298D
:1012800048D0072968D125E03059C17B032901D016
:10129000042961D1697800291AD040681022A91C5C
:1012A00001F044FF002F06D03159C87B032807D036
:1012B000042808D050E03059C07B032803D04BE00D
:1012C0000B20C87348E00521009801F083FF43E03C
:1012D0000120B6E03059C07B0E283DD1009801F0C6
:1012E00067FF002103E02A18401C9170C0B210284B
:1012F000F9D3688A69460883294606A8082214316A
:10130000023001F013FF06ABAA1C3946009801F029
:1013100067FF21E03059C07B0F281DD1AA1C0A218C
:10132000009801F063FF002F04D03946009801F0C7
:1013300063FF11E000231A463946009801F062FF6E
:101340000AE0012F08D10B9801F06CFE01281CD097
:10135000002801D0022005906846007A002811D0AC
:1013600002AA0521009800E00CE001F03FFF68466A
:10137000027A6020024368460272012339460098CF
:1013800001F040FF05980DB0F0BD3059C07B022838
:10139000E2D16878002851D002210B9801F05AFE62
:1013A000305907224068A91C173001F0BFFEE878C9
:1013B000002804D130594068407C01283AD0009878
:1013C00001F026FF002837D0297A009801F026FF87
:1013D000002833D0009801F027FF0121009801F088
:1013E00029FF00282CD030594068417E00292BD09D
:1013F000042929D0C17E027D1140C1763059406850
:10140000017F427D114001776846007A0028A7D10C
:101410003059022142680098173201F0E7FE305936
:1014200041684031897B002913D004210098FFF7DF
:1014300095FE91E7022004E0062002E0082000E08B
:101440000320694608728BE70021C1763059406855
:10145000D9E70B21C1737FE72805080010B50C46BA
:1014600001F0EEFE2188284A89005258274B126865
:10147000D2685A5010BD10B5144601F0E7FE210A9B
:10148000214A89005258214B1268D2685A5010BD27
:10149000FFB50F46100A1C498000095881B0096841
:1014A0001E461546002901D0CC6803E017490022EA
:1014B0000C580A50002C0DD0201F40881449884237
:1014C00008D1A068002802D0204601F0C5FE2046C1
:1014D00001F0C8FE33462A463946019801F0C8FE9D
:1014E00005B0F0BD70B50B480378021D00210A4D10
:1014F00007E0CC00165D012E01D12418A560491C1F
:10150000C9B29942F5D370BD4C0308001C8000207D
:101510003883000004060800003600200F4A518876
:1015200007235B0299434002014351807047052025
:1015300000070188302211430180018803221143F2
:101540000180704705200007018830229143018007
:1015500001888908890001807047000080000050E0
:1015600030B5964A9649D005048880231C430480F0
:10157000944C65892D0701D4521EFAD2924C012257
:101580002260924C0A882280914A49881180018801
:101590009943018030BD0020704770477047704705
:1015A0000020704701218907086B07221043086358
:1015B0007047704730B588498648086087494C2095
:1015C0000880864C864B203C23828749854848808A
:1015D000874886490180854919314180222141810E
:1015E00081218900018283494182834901838149A4
:1015F000113141837E4A81492032918041228049C4
:1016000012018A807F4ACA807E4D1035CD810A82C0
:101610004A82921C8A826A1FCA82FF2246320A8349
:10162000794A4A83794A592111807849784D203185
:101630000D8043254D80774D5582D5228A80FF222B
:10164000D3320A81744A4A81744A8A81754A74493C
:1016500011806249744A60394A80CA8810252A4339
:10166000CA806B4A0A3A0A815C4D704A403D6A80E2
:10167000638208224A815649644A0988403A1182A5
:1016800052496B4A098811806A490978002901D0BA
:101690003021018330BD4008704700B58BB0664AE9
:1016A0004262664A8262664A4261664AC262664A2B
:1016B0000260664A0262664A4260664AC261464AFF
:1016C00044480021106044484038026B03129A439A
:1016D0000263426B1F231B049A4303231B04D2188B
:1016E00042635D480268C3129A43026002680313B2
:1016F0009A43026068464154491CC9B22829FAD36A
:1017000001462822554801F011FDFFF753FF01F073
:1017100065FC53490880002001F066FC01F06AFC7A
:101720000BB000BD10B52C4A0F212A4809021060E9
:1017300029484038426B1F231B049A4303231B0490
:10174000D218426300060268D208D2000260052067
:101750000007028992089200521C02810289082324
:101760001A430281028A0A43028216484189890586
:1017700004D501887822914308310180FFF71AFFD0
:101780003848006F0078002804D037480088134993
:101790006039C880012001F0DFFB10BD25480078CA
:1017A0007047244901200870114930200883704790
:1017B0002049002008700E4908837047A086010068
:1017C000087F0400200000500080004056020800FE
:1017D0004A0308004C05540780000040602C00506C
:1017E0007F7F0000AC2900000022005009090000A2
:1017F000002400502204000030D00000EE11000050
:10180000002500502E020000442000004028005017
:101810000D95000002420000E4DC00001092000080
:1018200053780000002A00508B1000009DD5000066
:101830000026005020800020971500209B150020D6
:10184000A1150020A51500209D150020B31500202E
:101850009F1500209716002000020040200008007D
:1018600078040800E001002052040800FEB50020C2
:10187000F84E034628220021424392198C00491C4D
:1018800013510A29FADB401C0428F3DBFFF788F820
:10189000F048002208380260426015460024EE48F5
:1018A0006900475A0120A04080B207421CD028207E
:1018B00068438019A1004058411C19D0002810D05D
:1018C000C117224601F0DAFC2A0101F0D7FCE14BF6
:1018D000083B1A685B681043DE4A1943083A1060F7
:1018E0005160641C0A2CDDDB6D1C042DD6DBFEBDB3
:1018F0000095019400BEE3E7F8B5164604460D4690
:101900000A461F460120002101F0B8FC220101F027
:10191000B5FCD04B083B1A685B681040194008437F
:1019200000D100BE032C00D10424CC496001401832
:10193000690008183E43C680F8BD70B504460D46E0
:101940000A460120002101F099FC220101F096FCD9
:10195000C04A083A1368526818401140084300D141
:1019600000BE032C00D10424BC49600140180121B1
:10197000A940818070BD70B504460D460A4601201D
:10198000002101F07BFC220101F078FCB14A083A09
:101990001368526818401140084300D100BE032C60
:1019A00000D10424AD49600140180121A9404180C3
:1019B00070BDFFB581B00C4605460A461F460120A2
:1019C00000210A9E01F05AFC2A0101F057FCA14BAC
:1019D000083B1A685B6810401940084300D100BEFC
:1019E000002E2146284602D0FFF7C5FF01E0FFF791
:1019F000A4FF3B4621462846039AFFF77DFF05B02A
:101A0000F0BD70B5154604460E460A460120002179
:101A100001F034FC220101F031FC8E4B083B1A68C6
:101A20005B6810401940084300D100BE002C07D06D
:101A3000601E8A49400070314018012C02D002E03B
:101A40000020F6E7083601880122B2409143B540F4
:101A50000D43058070BD70B504460D460A46012051
:101A6000002101F00BFC220101F008FC794A083A40
:101A70001368526818401140084300D100BE032C7F
:101A800000D1042475496001401800880121A94053
:101A9000084000D0012070BDFFB514460D46064633
:101AA0000A4681B00120002101F0E8FB320101F07B
:101AB000E5FB684B083B1A685B6810401940084317
:101AC00000D100BE66A00068009066488089234669
:101AD000133BFF2201329A400B999043002901D019
:101AE000012700E00027D10701D0002138E091074D
:101AF00001D5012134E0510701D5022130E0110761
:101B000001D503212CE0D10601D5042128E091065E
:101B100001D5052124E0510601D5062120E011065A
:101B200001D507211CE0D10501D5082118E0910558
:101B300001D5092114E0510501D50A2110E0110554
:101B400001D50B210CE0D10401D50C2108E0910452
:101B500001D50D2104E0510401D50E2100E00F2133
:101B60008F4040493843888188890B9F80098001D4
:101B7000384388810F8A9743D00701D0002038E08E
:101B8000900701D5012034E0500701D5022030E054
:101B9000100701D503202CE0D00601D5042028E051
:101BA000900601D5052024E0500601D5062020E04E
:101BB000100601D507201CE0D00501D5082018E04B
:101BC000900501D5092014E0500501D50A2010E048
:101BD000100501D50B200CE0D00401D50C2008E045
:101BE000900401D50D2004E0500401D50E2000E042
:101BF0000F200A9A824017430F820F8A0122104653
:101C000098408743C30701D0002042E0830701D5F5
:101C100001203EE0430701D502203AE0030701D549
:101C2000032036E0C30601D5042032E0830601D547
:101C300005202EE0430601D506202AE0030601D543
:101C4000072026E0C30501D5082022E083050BD537
:101C500009201EE02890002010360020003000509F
:101C600001090F1900140050430501D50A2010E0A6
:101C7000030501D50B200CE0C30401D50C2008E0BE
:101C8000830401D50D2004E0400401D50E2000E0BE
:101C90000F20049B83401F430F8295486100081862
:101CA000418B6B4689099B5D89015B19194341830F
:101CB000A007C30EFF21994080209840002C0BDA2A
:101CC00023071B0F083B9D088A4BAD00ED18EB69FD
:101CD0008B430343EB6107E0A508874BAD00ED188C
:101CE0002B688B4303432B60E006C00E8240834881
:101CF000026084E67E4940310A8A0121133881401E
:101D00000A40C80701D0002038E0880701D501202B
:101D100034E0480701D5022030E0080701D5032050
:101D20002CE0C80601D5042028E0880601D505204E
:101D300024E0480601D5062020E0080601D507204A
:101D40001CE0C80501D5082018E0880501D5092048
:101D500014E0480501D50A2010E0080501D50B2044
:101D60000CE0C80401D50C2008E0880401D50D2042
:101D700004E0480401D50E2000E00F20C240D0B29C
:101D8000704710B55A4C4034238A012213388240E0
:101D90009343D00701D0002038E0900701D50120FF
:101DA00034E0500701D5022030E0100701D50320B0
:101DB0002CE0D00601D5042028E0900601D50520AE
:101DC00024E0500601D5062020E0100601D50720AA
:101DD0001CE0D00501D5082018E0900501D50920A8
:101DE00014E0500501D50A2010E0100501D50B20A4
:101DF0000CE0D00401D50C2008E0900401D50D20A2
:101E000004E0500401D50E2000E00F2081400B4378
:101E1000238210BD10B5364C4034E38901221146AF
:101E2000133881408B43C80701D0002038E0880771
:101E300001D5012034E0480701D5022030E0080731
:101E400001D503202CE0C80601D5042028E088062F
:101E500001D5052024E0480601D5062020E008062B
:101E600001D507201CE0C80501D5082018E0880529
:101E700001D5092014E0480501D50A2010E0080525
:101E800001D50B200CE0C80401D50C2008E0880423
:101E900001D50D2004E0480401D50E2000E00F20FC
:101EA00082401343E38110BD154A800080188038BA
:101EB0004163704710B50446FFF7ACFF1049A0001E
:101EC00040188038406B002801D0804710BDE106E3
:101ED000C90E012088400B49086010BD1320E9E7B6
:101EE0001420E7E71520E5E71620E3E71720E1E7F0
:101EF000C013005000ED00E000E400E000E100E06D
:101F0000C890002080E200E030B4734C72497348FE
:101F1000603409E043681A780A6002685B1C521E4C
:101F20000CC00838002A05D0A28B9207D20FF1D13D
:101F300030BC7047002242604B680224A3434B60D0
:101F400081680029F4D0826030BC0020084730B599
:101F5000614A93898024A34393810723138100233B
:101F600093809589254395819380938010809181FA
:101F70009089A04390815A49A0010860594A11688C
:101F8000FF242402A14344002143116054498039B5
:101F9000086055490860514803760361C360436097
:101FA000036030BDD3E74C492220086170474A499D
:101FB00022200861704708B5474901204A69520646
:101FC000D20F13D04A699206D20F0FD000220A61B5
:101FD0000092FF225F32009B5B1C00939342FAD376
:101FE0004A69D207D20F02D022200861002008BD22
:101FF000E1E73948A021016141698906C90FFBD099
:1020000041694906C90FF7D07047F2E7334B5A616F
:10201000D96018613048012142688A430A4342600E
:102020007047F3E710B52D4CA26021606060FFF7A8
:102030006BFF6068002805D027494868022290435A
:102040001043486010BDEDE710B5234881680907CB
:10205000090F01291AD002291CD0042917D00C29F4
:1020600014D11E4A117E012910D141690906C90FF8
:102070000CD00021D160116183885B085B008380F4
:102080005369002B02D001205161984710BD00F028
:1020900005F810BDFFF738FF10BDD5E70F490E4812
:1020A00009E002680B691A70CA685B1C521E0B615A
:1020B000CA60002A04D04269D207D20FF1D170471A
:1020C00000220A6143685B085B0043604B69002B98
:1020D000F5D000204A6118470011005024800020EC
:1020E00080E100E00CE400E080E200E00843012130
:1020F000890303460B4343490B80434B1843088035
:10210000092002434A8070473E490A880F239B01F9
:1021100000079A43800D02430A8070473949002026
:102120000880704737483949028802231A430280E1
:10213000491E02D302889207FAD400210181408906
:1021400070470AE000BF00BF00BF00BF00BF00BF74
:1021500000BF00BF00BF00BF00BF401EF2D27047EB
:1021600070B50222510204464E003046FFF7BEFF12
:102170001420FFF7E6FF002C01D0092000E0072023
:10218000FFF7C2FFFFF7CEFF05460120FFF7D9FF9B
:10219000022200213046FFF7A9FF002C01D00920C0
:1021A00000E00720FFF7B0FFFFF7BCFF4019154A1A
:1021B0000021118070BDF0B5124C1548208014200C
:1021C000FFF7BFFF01256D02A580E5802088E900AB
:1021D0000843208020888E10B0432080FFF7A2FFA4
:1021E0000746208830432080FFF79CFF0246780096
:1021F00071424018281A52005118691AA080E180D3
:10220000F0BD00000015005001400000A086010054
:102210000148000008B5892105200007018101213E
:10222000614A49031180018880221143018001889D
:102230008908890001805D48018A022211430182D8
:10224000FFF7B8F901F020F801F024F80020694602
:1022500001E00888401C088008889128F9D308BD4F
:1022600008B55349002008804880534A514BD38019
:10227000FF23D2331381C880C32151804F4A0821E4
:1022800011806946088003E06A461188491C118064
:10229000694609889129F7D36946088003E06A46B0
:1022A0001188491C1180694609889129F7D369462C
:1022B00001E00888401C088008889128F9D308BDEF
:1022C0003F4A5080918001201080D088C007FCD107
:1022D0007047F1B5FFB0FFB094B011AC334804942F
:1022E000008AA41C1090FFF795FF314801880F91D8
:1022F00041880E913049CA880D920A890C92C28891
:102300000B92408B0A902F48408809904888844659
:10231000FFF7A6FF00252B46FF2111A8FFF7D0FFEE
:1023200000210A460846049E275C365C7E40F6077C
:10233000F60F8E401643491CC9B2F2B2082906D1E5
:10234000FFA9C96C4A556D1C0021ADB20A46103078
:10235000FF2680B2B600B042E5D95B1C9BB2022BCF
:10236000DAD31249109808821449002008801048D6
:102370000F9901800E9941800F490D9ACA800C9ADD
:102380000A810B9AC2800A9A42830E4A09985080A9
:102390006046488005200007018880229143018023
:1023A0007FB07FB015B0F0BD00020040E0300050BB
:1023B0000024005080800000602800502020005041
:1023C000003500500026005070B516460C460546F4
:1023D00001280FD106221749174800F061FF002895
:1023E00008D006221449304600F0A0FE06202070D6
:1023F000002070BD32462146284600F057FF70BDD0
:1024000070B50E480E49C405228880252A432280D3
:102410000C4A53891B0701D4401EFAD20A4A0120F4
:1024200010600622044800F081FE2088A843208026
:1024300070BD0000383E030040800020A0860100EF
:10244000D47F04002000005000800040F8B5534DB8
:102450000027686D0090FEF734FA514C002802D135
:102460002079022801D100200090FEF7A0FB00286F
:102470000DD100F021FF002809D0E07801270028C5
:1024800005D005263607B08AC00701D0042783E0AF
:1024900000F068FD00287FD142488069002801D003
:1024A000686D0090A1786846009D00F00BFF002841
:1024B00072D0A178684600F067FD00286CD0FF213B
:1024C00000952D310125AD07286A8842FCD3A178FB
:1024D000684600F0F7FE00285ED0A178684600F05C
:1024E00053FD002858D0304A832012780099022AE0
:1024F00000D1B5202D4A1378012B00D121300023C3
:102500001370EB6B0F229B0A9B021343EB63EA6B86
:10251000274B80021A400243EA63E86B3722C0026D
:10252000C00A92051043E8630427002901D0091D61
:10253000009100986421C00200F0E6FD1D49401E94
:1025400008602179002900D0012100F0C1FE1A485D
:10255000C06A80470024FEF757FB002808D0308867
:102560003021084330803088032108433080012423
:10257000286B0004C00FFBD010480168C905FCD5CA
:10258000002C01D0FEF7DEFF00F0A8FE308980218C
:10259000884300E000E030813846F8BD600200204A
:1025A000C6060800A8050800540208005180002053
:1025B000FF03E0FF488000201C07080000020040E5
:1025C00070B50125AD07AC6B2046FEF7C0FA804917
:1025D00000F09AFD27221201511A00D101217D4AF3
:1025E00050601160286B08218843084328637A48AB
:1025F00004607A480068002802D0A04200D200BEE1
:1026000070BD10B5052000074189890708D04189B0
:1026100089088900418172494A88520852004A80DB
:102620000189802211430181018A042291430182A0
:10263000818A8907FCD500F057FE012080070169D7
:10264000490700D500BE01694907FCD510BDF8B5A2
:10265000644EF08800282DD10120F08062490820C6
:10266000088005273F077889800720D0B88A40076F
:1026700001D5FEF797F95A4D288880210843288014
:102680005A4CFF20608004202080FEF750FF7D21FF
:10269000C900E088A288000480188842F9D9052082
:1026A0002080B08878802988802081432980504903
:1026B00010200860F8BD70B5FEF744FFFFF7A1FFDA
:1026C0000026484C0520E6800007418A802291437D
:1026D000418245480189490849000181D005816945
:1026E00004221143816100F005FE41491020803130
:1026F0000125086000F004FE00F008FE384826704E
:102700004089800510D5607800280DD13948657062
:102710000088C00708D10120FFF722FD8B21890026
:10272000884201D90220607070BD10B500F0F4FD40
:1027300000F046F82B490120087010BD10B50120AB
:102740008007008A000601D500F03AF810BD10B5E8
:1027500000F0E8FD10BD10B501208007008A0007D9
:1027600004D500F0E5FD1F490420087010BD70B5C8
:102770002148008885062148AD0E44682048006F36
:102780000078002802D1284600F0D8FD1D480089B5
:10279000144EC00507D520060BD5E00709D0284602
:1027A00000F0D2FD03E0200603D5E00701D00320AE
:1027B0003070200403D5E00501D50220307070BDD3
:1027C00010B508490120887000F0C4FD10BD00005C
:1027D00071020000400000404C8000204880002032
:1027E00020000050508000200033005000160050A0
:1027F00000E200E000150050002000500002004000
:10280000E0010020002C005038B501246846047017
:102810000C21494800F0A4FD474D6946EC702A1D83
:10282000352000F0A3FD002800D02C7100F016FA2E
:102830004249322000F0A0FD0021322000F00AFCC5
:1028400000F0B2F838BD10B500F09CFA10BD10B51C
:102850003948022380783222010239480E3100F0D3
:10286000A1FC012101701321417000F0ADFC10BDED
:1028700010B5044630482C238078322201023048BB
:102880000E31801E00F08EFC0146203004720022C2
:102890004272084600F098FC10BD10B55023322259
:1028A0000D21284800F07EFC044600F0F5F9204692
:1028B00000F08AFC0221322000F0CCFB10BD214840
:1028C00010B5012332220D210B3800F06BFC0221E0
:1028D000017000F079FC10BD10B500F05FFA10BD7A
:1028E000194B10B59A4201D91A4602E0002A00D1CC
:1028F000012200F047FD10BDF8B506461148154607
:102900000F46252332220D21C01C00F04BFC04464B
:10291000012020772046062239461D3000F006FCB3
:102920002320065565822582204600F061FA204664
:1029300000F04AFCF8BD0000588000201836002046
:10294000043800000E3400003075000010B500F0AF
:102950001FFD254900F022FD2448081810BDF8B5D8
:10296000234D0646A876002400F012FD2919641CA8
:10297000E4B20874082CF7D300241027381BB042A7
:1029800001DD002007E000F003FDC117090E091862
:10299000090A0902401A2855641CE4B2102CEDD330
:1029A00000F0F6FC2883F8BD10B52421104800F093
:1029B000D7FC00F054F910BD10B50E480223807802
:1029C000322201020C480E3100F0ECFB0D210170A7
:1029D000074920318978417000F0F6FB032132204D
:1029E00000F038FB10BD0000A0BB0D00A086010068
:1029F00064800020588000201A38000010B5084676
:102A000009781C460B0000F013FB08052020200865
:102A1000181B1E2000F0EFF917E04178012904D0BF
:102A2000002902D0022903D00FE000F0FEF90CE0EB
:102A30001146204600F044FA07E000F014FA04E0E2
:102A400000F012FA01E000F010FA002010BD10B5FD
:102A50000878304C801E030000F0EAFA02021418D5
:102A60008878A070C0070AD02B492A4A4879203AB2
:102A7000D07628480622001F891D00F057FB00F081
:102A80001AFA03E0FFF7E3FE0020A070002010BD5B
:102A9000F8B518460D4601461223204800F082FB87
:102AA0000446284600F008FA0027002821D0194ED5
:102AB000B078C0071DD030460822A91C103800F09D
:102AC000EFFB002815D130462038018B2A8891422F
:102AD0000FD101212170807E60743146102220398F
:102AE000601C00F023FBB078FFF7C2FE00F0E7F9AE
:102AF00000E02770204600F067FB2078002801D115
:102B0000FFF7A5FE0020F8BD10B500F0D7F90020B2
:102B100010BD00008480002058800020183800007C
:102B200010B5104600F07EFA002809D101233222A8
:102B30000D21484800F036FB0121017000F044FBF4
:102B4000002010BD70B5087815460F282DD008DC80
:102B500001280DD0022834D003281CD00E2830D1F3
:102B60001FE0102825D0112823D0122829D123E0D6
:102B70004878002825D13748222332220D21801C95
:102B800000F010FB04460146284600F008F92046F4
:102B900000F01AFB15E04878002812D100F013F974
:102BA0000FE0487800F01DF90BE0487800F01AF9C2
:102BB00007E000F01CF904E04878442801D100F057
:102BC00019F9002070BD70B51C4610460D4600F086
:102BD00029FA022805D12049200A8870284600F0E9
:102BE0003FF8002070BD70B5087815460C460A28DD
:102BF00010D1104600F016FA04280BD16078002896
:102C000002D000F0ECF805E00521284600F022FA99
:102C100000F0E6F8002070BD10B5104600F0A6F8F0
:102C2000002010BD10B510460C4600F0FBF901283D
:102C300008D12078002805D1FFF705FE002801D033
:102C400000F0D1F8002010BD10B5084600F0D1F812
:102C5000002010BD023400005880002070477047EB
:102C600070B5984D0446A878FF2812D0052132206F
:102C700000F0F0F921882980617A697121460622E5
:102C80000A31A81D00F052FA8F488078FFF7F0FD56
:102C900070BDFFF702FE70BDF0B5044693B00E2084
:102CA0002070002565708948A081E081072020748C
:102CB000012060741C20E074274622461F20203724
:102CC000143238741646511E0B2000F04FFB0028BA
:102CD00005D02A46E5747EA1304600F027FA224648
:102CE0003132511E0C20119200F040FB002805D01B
:102CF0003D742A4678A1119800F018FAE07C1A2158
:102D0000081A45B2002D2FDD3E206946087001AA41
:102D1000022000F02BFB002806D00D22684602702E
:102D20006EA101A800F040FB6846007800281BD087
:102D3000A84200D2054668460570E07C6D1C8555AA
:102D4000E27C2046092115301154E17C401C0B180F
:102D50006846027801A9184600F0E8F9684600784C
:102D6000E17C801C0818E07413B0F0BD10B500F0D1
:102D700059F9032803D0052801D0042801D1FFF711
:102D80008CFD10BD0020594A012111704D4AD378A5
:102D9000002B01D001207047D1707047704703208D
:102DA00008700A204870002048820875487517226C
:102DB000CA8208220A8310224A8388836422CA8333
:102DC00020310870704710B50121322000F042F91F
:102DD000FFF739FD002801D0FFF75FFD10BD7047F8
:102DE00070477047704710B5FFF757FD10BD70472B
:102DF00070477047704710B532481E2380783222E2
:102E000001023B480E3100F0CDF901210170417003
:102E1000C17010224271032282700171002202727D
:102E20008171C17100F0D0F910BD1FB531A30FCB76
:102E30006C460FC423481E238078322201022C489E
:102E40000E3100F0AFF9044628481022446069466C
:102E5000A01C00F06BF90420207001206070204657
:102E600000F0B2F91FBD7047704770B505461E23CC
:102E700032220E211E4800F095F904466878FFF7CB
:102E80006EFD072020701049012060702039887E77
:102E90002077088B6082204608221031143000F021
:102EA00045F9094910222039A01C00F03FF92046BD
:102EB00000F08AF970BD7047012070477047704775
:102EC0007047000058800020848000204C040000DF
:102ED000070103180000000002FF000044413134E4
:102EE0003538302054454D504C000000DC90002017
:102EF00014380000000102030405060708090A0B44
:102F00000C0D0E0F064C0125064E05E0E36807CCBC
:102F10002B430C3C98471034B442F7D3FDF794FA96
:102F200088360020B836002003B40148019001BD66
:102F3000551B020003B40148019001BD0F3B030083
:102F400003B40148019001BDCF2B030003B4014835
:102F5000019001BDCB2C030003B40148019001BDD9
:102F60000990020003B40148019001BDC12D030086
:102F700003B40148019001BD0921030003B40148D5
:102F8000019001BDC92D030003B40148019001BDAA
:102F90002B69020003B40148019001BDEB3103002D
:102FA00003B40148019001BD3D32030003B4014860
:102FB000019001BDD721030003B40148019001BD78
:102FC0001F21020003B40148019001BD2F2F03000F
:102FD00003B40148019001BD998F020003B4014878
:102FE000019001BD938F020003B40148019001BD1F
:102FF000CD8C020003B40148019001BD418F020055
:1030000003B40148019001BD2768020003B40148E0
:10301000019001BD3968020003B40148019001BD6F
:10302000B780020003B40148019001BDB32603003C
:1030300003B40148019001BDFD3D030003B4014804
:10304000019001BDA528030003B40148019001BD12
:10305000D5AF020003B40148019001BD3126030041
:1030600003B40148019001BDA1A5020003B40148C9
:10307000019001BDE3A5020003B40148019001BD28
:1030800087A8020003B40148019001BDA7A902006E
:1030900003B40148019001BD93AA020003B40148A2
:1030A000019001BD95AB020003B40148019001BD40
:1030B000F9AB020003B40148019001BD69AC020004
:1030C00003B40148019001BD17AD020003B40148EB
:1030D000019001BD77AD020003B40148019001BD2C
:1030E000F1AD020003B40148019001BD85AE0200BC
:1030F00003B40148019001BD11AF020003B40148BF
:10310000019001BD3350020003B40148019001BD9C
:10311000A73A030003B40148019001BD55480200DD
:1031200003B40148019001BD1F50020003B40148DF
:10313000019001BD213B030003B40148019001BD92
:103140007F0C030003B40148019001BDAB0C0300E8
:1031500003B40148019001BDBF22020003B401483D
:10316000019001BDEB26030003B40148019001BDAD
:103170003524030003B40148019001BD2F22020051
:1031800003B40148019001BDDD20030003B40148F0
:10319000019001BD533B030003B40148019001BD00
:1031A0009D20030003B40148019001BDB123030039
:1031B00003B40148019001BD49E5020003B4014890
:1031C000019001BDF9E3020003B40148019001BD83
:1031D000E123030003B40148019001BD4BCD02007F
:1031E00003B40148019001BD99D1020003B4014824
:1031F000019001BDABD0020003B40148019001BDB4
:1032000069D0020003B40148019001BD77CF0200EC
:1032100003B40148019001BD01CC020003B4014890
:10322000019001BD29CC020003B40148019001BD09
:1032300015D2020003B40148019001BD8DD20200F5
:1032400003B40148019001BDB938020003B401483C
:10325000019001BDCD44020003B40148019001BDBD
:103260007758020003B40148019001BDD722030042
:1032700003B40148019001BD2D42020003B401488E
:10328000019001BD8D3D030003B40148019001BDD3
:10329000F38E020003B40148019001BD218E0200AB
:1032A00003B40148019001BD773B030003B401481A
:1032B000019001BDD729030003B40148019001BD6D
:1032C0007920030003B40148019001BD21290300C6
:1032D00003B40148019001BDC768020003B401486E
:1032E000019001BD0D2C030003B40148019001BD04
:1032F000652C030003B40148019001BDDB2E0300DF
:1033000003B40148019001BD231D020003B401482C
:10331000019001BDC32C030003B40148019001BD1D
:103320001531030003B40148019001BD3B66020062
:1033300003B40148019001BD2B66020003B40148AB
:10334000019001BD038D020003B40148019001BD4D
:10335000CF8F020003B40148019001BD1B6602003B
:1033600003B40148019001BD533B030003B401487D
:10337000019001BDD129030003B40148019001BDB2
:103380008725030003B40148019001BD25280300EF
:1033900003B40148019001BDFD3A030003B40148A4
:1033A000019001BDD33A030003B40148019001BD6F
:1033B000213B030002E008C8121F08C1002AFAD10D
:1033C00070477047002001E001C1121F002AFBD1A5
:1033D00070470101000A04280A040203AA005503E9
:1033E0002A00A001FFFF2C01950C0020750D002084
:1033F0005D1100201B12002049120020610E0020E8
:10340000C50E0020250F0020050400005D140020DB
:10341000060400009339020007040000D9390200B5
:10342000080400001F3A020002040000B73B02003B
:1034300000040000093C0200040400006F3C02008C
:1034400003040000D93C0200010400004B3D0200CF
:1034500009040000D73A02000A040000413B0200C0
:103460000B0400004D3F02002104000099420200BD
:1034700026040000EB47020000080000EF3F0200B6
:103480003F000000CF4102004B000000C93D020098
:103490004E000000213E0200230400007F3E020097
:1034A00024040000B93E0200270400009B430200F0
:1034B00028040000C5430200250400003D4302002B
:1034C0002B040000F143020031040000114402000B
:1034D0003204000059440200350400008D4402000B
:1034E00029040000771400202A040000254502006A
:1034F0002C0400006D4502002D040000F745020079
:103500002E0400002B4602002F0400006346020038
:103510003304000093460200340400001547020003
:1035200036040000454702003004000097470200BF
:10353000010800002D420200010800009114002043
:1035400000080000EF3F0200000000000000000043
:10355000000000000000000000000000000000006B
:10356000000000000000000000000000000000005B
:10357000000000000000000000000000000000004B
:10358000000000000000000000000000000000003B
:10359000000000000000000000000000000000002B
:1035A000000000000000000000000000000000001B
:1035B000000000000000000000000000000000000B
:1035C00000000000000000000000000000000000FB
:1035D00000000000000000000000000000000000EB
:1035E000000000000000000038350020020000004C
:1035F0000000000000000000083400202600000049
:1036000048350020F8350020640308001600060045
:10361000FF003F00FF03FF01000000008036002094
:10362000888000200600010001340000212B0020CA
:1036300000340000452B002000380000E72B00205C
:1036400001380000C72B002003380000192C00208F
:1036500000C80000252C002010340000492C002058
:1036600013380000FD290020153800004F2A0020E3
:1036700017380000912A002019380000092B00207B
:10368000283600200B000000BC36002000800020FF
:103690008C000000C4330020BC36002020900020A5
:1036A000C4000000C433002068070800202A080076
:0C36B000E0050000C4330020800C000086
:040000052000044192
:00000001FF
