:020000042000DA
:1000000000980020C5040020CD040020E504002055
:1000100000000000000000000000000000000000E0
:10002000000000000000000000000000FD040020AF
:10003000000000000000000015050020170500204A
:10004000CF1D0020C91E00203D2F0300B71E002039
:10005000371E0020BD2F0300E11E0020E91E0020F6
:100060001905002019050020011F0020DD2F0300C5
:10007000A77E02001905002019050020190500209F
:10008000190500201905002019050020911C0020E9
:10009000951C0020991C00209D1C0020A11C002004
:020000042000DA
:10016000320000004B0500204313002099080020B6
:100170000000000000000000A77D0200017E0200D8
:100180000F7E02004B7E0200697E0200857E020027
:10019000AD7E0200411D002031050020F30D00203E
:1001A000FD0D002000000000000000003F000000E6
:1001B000F48B002000040000140D0800480100002A
:1001C0000809080000040000680E0800200500006F
:1001D000000000002000000048000000580000005F
:1001E00068000000260300003A0300004E030000F0
:1001F00054030000D02800008E2E000001000000F3
:1002000088130000CD130020A12A00207B2F00209E
:10021000572303001326030097710200BD1C002022
:10022000030000002F1C02009908002001000000BC
:1002300087450200BF4402008D2100207B30002052
:10024000BF3100207F320020577F0200C57F0200AF
:10025000BE410020BB8002009B8102004982020057
:10026000E98202000D830200738302008983020089
:100270000B8502003186020033870200E589020007
:100280001F8A0200278D02005B8A02003F8B02005A
:10029000118C02005F8C0200650D0020ED8C0200C5
:1002A0009B2D0020754D02002F4E02001000000013
:1002B00020030000803E00003F0000000D00000011
:1002C0002600000000000000000000000000000008
:020000042000DA
:1002D000504600030003983A6400F401B80B000C88
:1002E000B80B120030003000CD009A01120024003B
:1002F00030006400B0001800280012001200D0077F
:100300000000FFFF000000000000000000000000EF
:100310001F00000244413134353831000000000034
:1003200000000000000000000000000000000000CD
:0403300000000000C9
:020000042000DA
:10035000FFFF010000C201000000000000000000DB
:100360000000F4010100011B0A071AFFD200021568
:10037000585CDE931B0142CC9A1325009BEDC65EB0
:1003800000010002C5000000000009FF0060525794
:100390002D424C450000000000000000000000005D
:1003A00000000000000000000000444131343538F6
:1003B00078000000000000000000000000000000C5
:1003C000000000000000000000000000000000002D
:1003D000000000000000000000000000000000001D
:1003E0000000000000000000010000CAEA80D00701
:0403F000064064322D
:020000042000DA
:100450000348854603F0A0FC00480047211C020029
:1004600000980020134906200880FF20124901301F
:10047000086005200007818A0906FCD541898908A2
:100480008900418141890906FCD50C4A91683E23C7
:1004900099432E31916000220280018A0F231B02B2
:1004A0001943018201210648C90404C1401EFCD53C
:1004B00062B670470034005080E100E00033005025
:1004C000FF0B00001548804715480047042071467F
:1004D000084203D0EFF3098012490847EFF3088080
:1004E0001049084704207146084203D0EFF3098001
:1004F0000D490847EFF308800B490847042071466F
:10050000084203D0EFF3098008490847EFF3088059
:1005100006490847FEE7FEE7FEE700006504002005
:10052000510400209D0800203D0A0020750F002086
:1005300010B5C3490020086000F00FFC01208007BF
:10054000016B49004908016310BD1CB5BD4901207C
:100550000870BD490820088003F030FC01F066F8FF
:1005600000F0DBFAB94801780170B94801780170F0
:10057000012003F029FCFF2401343520214600012D
:1005800003F028FC01F0B6FB00F03EFE00F02AFB71
:10059000042000F003F9072000F000F90A2000F021
:1005A000FDF8062000F0FAF80B2000F0F7F8012023
:1005B00000F0F4F8022000F0F1F8002000F0EEF86E
:1005C000A448806803F00CFC00F0C0FCA0050168A2
:1005D0002143016000F0C4F9142000F07CFB1420DA
:1005E00000F087FB01F0E9FDFFF7A2FF00200524E2
:1005F0002407E08298484188E0229143A03141805D
:10060000012003F0F3FB0227944E04252089000605
:1006100022D501208007006B00041DD403F0ECFB01
:10062000C00719D1042003F0EDFB019003F0F0FBAB
:10063000019800280CD000200190142000F059FBF4
:10064000042101A803F0EAFB002801D000F098FB88
:1006500000F0ABF80028D9D172B601F0A9FC6946C8
:100660000870042806D002280CD003280AD00128DC
:100670007ED091E07A480078012802D003200870EB
:1006800000E00F70208A284320827648C069012844
:10069000087811D9032849D103F0C6FB002845D0BA
:1006A00003F0C8FB002841D0032003F0C9FB002859
:1006B0003CD06D48077008E0032837D103F0C0FB39
:1006C000002833D068490120087030692843306120
:1006D000608A202188436082208A384320826846CD
:1006E0000078618A022823D0294361827F212288F1
:1006F000890180231A4322800022521CD2B20A2A86
:10070000FBD3628A10231A436282584A491E516100
:1007100021888022914321800021554A03281170AD
:100720000DD0022812D0032810D02DE06846C1E772
:1007300029436182618A102291436182ECE7608AD9
:10074000802290436082608AA84360824248428847
:10075000FF2301339A4342806288464B1A804288C5
:1007600001231A43428001910198401C019000E04E
:1007700011E01428F8DB608980088000401C60814B
:1007800060894006FCD5618030BF00F0CFF8306949
:10079000A843306100E030BF62B637E7C106C90E3A
:1007A00001208840344908607047FEB5334C00256D
:1007B00020782E46012806D13148C06B002802D18E
:1007C000267001F045FD2F4801882F4A128891427A
:1007D00014D32178012911D10680042168460170C3
:1007E0000E214170032181700121C1702749818050
:1007F0000022062103F02AFB01F01AFE03F008FB99
:10080000234F3888134C01280AD103F025FB2149D6
:1008100008802080012003F025FB03F029FB3E80A7
:1008200003F02CFB002807D06068411E616000289F
:1008300000DD01252846FEBD012564206060F9E742
:10084000FC04080094130800003300500000080066
:10085000D0280800384200202000005000ED00E0C1
:1008600078030800E0010020B00708000080004085
:10087000BE130800C013080080E200E050420020D0
:10088000000508005642002054420020404000006D
:1008900064420020F405080070470000052212079A
:1008A000118A042319431182118A022319431182E8
:1008B0001189402319431181184B01211960184BEC
:1008C00008211980518A80231943518215490368F0
:1008D0000B6143684B6183688B61C368CB610369BB
:1008E0000B6243694B6283698B62C369CB620863A5
:1008F0000D48836A4B63C36A8B63036BCB63C36B23
:10090000084940310B60436B4B60806B8860908A74
:10091000800601D500BE7047FEE7000080E200E0DF
:10092000003300504018080000ED00E03E48017818
:10093000002902D08021417070473C490020087096
:100940003B49C870704738480178002902D081219E
:10095000417070473549012008703549C8707047AB
:1009600031480178002902D08221417070472F4917
:10097000022008702E490120C87070472A488178EB
:10098000002904D0491E0906090E817017D142784A
:100990000021002A04D09207920F0270417004E0F7
:1009A0000278002A01D0521E02701206120E017047
:1009B00005D0012A02D0022A01D1D1E7C3E770474E
:1009C00010B5194CA078401CA0702078002805D1E3
:1009D00003F054FA421CFFF7A9FF227010BD124920
:1009E0000120C870704710490020C87070470E4839
:1009F000C07870470020EFF31081012282F3108845
:100A0000052212071289120605D40A480289012319
:100A10001A4302811846002900D0012181F3108871
:100A20007047054800787047951308007803080060
:100A3000B207080000330050BC130800052212075B
:100A4000518A802319435182124903680B6043681D
:100A50004B6083688B60C368CB6003690B6143693B
:100A60004B6183698B61C369CB6108620A48836A01
:100A70004B62C36A8B62036BCB62C36B0B63436BCA
:100A80004B63806B8863908A800601D500BE7047F7
:100A9000FEE700000018080000ED00E070B54748D0
:100AA0000021417001700421454B817018694E1F6F
:100AB000002801D0304600E00120C117020F0901D3
:100AC0001143020118613F480468456822432943E5
:100AD000026041605969002900D10126F117F20E28
:100AE00049015E611143046872014368224319435E
:100AF0000260416070BD38B5002403220223120257
:100B000004212046009400F02EFE0022012305213E
:100B10001046009400F027FE38BD10B505242407C8
:100B2000208A022188432082A08A0007FCD526481B
:100B30004188FF22013211434180A088802108436F
:100B4000A0800321092003F09FF900F01FFAFFF7AE
:100B5000D2FF608A20210843608210BD1B48416893
:100B600006229143091D4160416801221143416001
:100B700041683822114341604168402291434160FD
:100B800041680322520211434160416882151143BA
:100B9000416041680722D20211434160416802145A
:100BA0009143416001150A4801600A4A1068FF2319
:100BB0001B04984310600848016070478042002081
:100BC00020900020484200202000005000020040F9
:100BD00000E100E008E400E080E200E0B949AA207A
:100BE0004860704770B50521090708893022904395
:100BF00008810889802318430881088980088000BB
:100C0000401C08810889082210430881AE480488E6
:100C10001C4304804C8A94434C820D894024254314
:100C20000D810D8A0426B5430D828D8AAD07FCD552
:100C3000A44EAA2575608588F026B543B035858019
:100C4000858803263602B543FF35013585808588C2
:100C50002D092D01858085880126B60235438580C2
:100C60008588760035438580858876003543858084
:100C70004D8A95434D8202885208520002800288B4
:100C80009A4302800A89A2430A814089800503D5DC
:100C90008D49052060318880012080070168821518
:100CA00091430160894801683F22520291434214F6
:100CB00089180160016802031143016070BD0321BE
:100CC000834809028181082242800021491C96291B
:100CD000FCD3828070477F494880088803221043F4
:100CE0000880088804221043088076490120087093
:100CF00070477CB5734C217800292DD075490A883E
:100D00005207FCD4CA880092898801911104019A83
:100D10008918009170494843009903F0BBF800908E
:100D2000002020700098A060009802F08EFF054619
:100D300029466A4802F0BCFE0A2102F0F7FE02F0E2
:100D4000A4FFE060284602F0B4FF654A654B03F05B
:100D5000A7F802F0C2FF20617CBD10B5624803F025
:100D6000A5F810BD70B5584C6088C006050F03F09B
:100D7000A3F861881E2291436A001143618070BD0F
:100D800010B55A490120C863C86B0028FCD1012066
:100D90008007C16956480268914201D20022026070
:100DA00019238A1ADB019A4212D3016003F054F826
:100DB000504A1188884201D9411A00E0091A89B2C3
:100DC000182905D31080012003F04CF803F050F8E7
:100DD00010BD08B53B4989684843474903F05AF8B4
:100DE000009008BD08B53749C9684843800A00909B
:100DF00008BD08B5FFF7EDFF009008BD08B5FFF787
:100E0000F1FF009008BD40183721C00009014018CB
:100E1000704710B5394A0020117800290DD03349A8
:100E20000120C863C86B0028FCD101208007C0697D
:100E300033490968884201D2012010BD002010709A
:100E400003F01CF8022803D003F018F801280BD196
:100E50002C490820088005200007818A8906FCD4D7
:100E6000418A802291434182002010BD00207047BA
:100E700008B515494A8801231A434A800021009188
:100E8000491C00911429FBDB052109074A899208B6
:100E90009200521C4A814A895206FCD54B89042291
:100EA00013434B814880488990434881888A0006D3
:100EB000FCD5488980088000488148890006FCD517
:100EC00008BD00009C1308002000005000020040F4
:100ED00020300050001600500024F4000024744913
:100EE0007B14AE47E17A443FE2040000C0000040BA
:100EF000F8050800F405080040420F0094130800AC
:100F0000444200200033005070B505460C46103CAA
:100F10003F2002F0D7FF00280FD0234880683228F6
:100F200006D922498D4201D03C2801D9002070BD4C
:100F300021461D4802F0CCFF06E0204602F0CEFF1D
:100F400001213F2002F0D0FF012070BD10B51849EB
:100F50000B780A1D002005E0C400145D3F2C04D06E
:100F6000401CC0B29842F7D310BDC000114A4018CF
:100F7000826010BD81692039897F022905D20D4A1E
:100F80008900083A515881617047FEE70B480A49C9
:100F900001610B4941610B4981610B49C1610B49F9
:100FA00001620B4941627047FC05080010340000E3
:100FB0004C080800FC4100201C4B0200008400404B
:100FC00001DFFFB5C4A8020000DFF8B57C450300CF
:100FD00089110020F3B581B0002000900D464A88A9
:100FE000044601466B46019802F084FF060009D1D1
:100FF0000098C488019802F083FF401E844200D20A
:10100000204684B222460B21019802F07FFF07465A
:10101000002E06D06A882978334602F07DFF002032
:10102000FEBD7C80009922460831381D02F07AFF0F
:10103000384602F07DFF688802F080FF0028EED07D
:10104000019902230A0201890C32044802F07CFF54
:101050006988018002F07EFFE1E7000012300000A5
:10106000FFB50646807A81B0012805D002234049A9
:101070000D68002D02D006E00023F8E7022870D0AA
:10108000012871D03B4D3C4CF288A08BB18880B2D6
:1010900002F066FF0090E0694E23042158434B04A0
:1010A0002268C0181152E0694E235843344B22681D
:1010B0003249C0181152E0694E23717A5843304BBF
:1010C000090255319B1E2268C01811520098E2692E
:1010D00040304E2741887A431B11294F19433F1D49
:1010E0002368D2199952E1694E277943244F4B2244
:1010F00052010C372368C9195A5221464031E2691E
:10110000097B4E27049B7A4309021D4F1943BF1CDC
:101110002368D21999522368E1694E246143184C1F
:101120000022143409195A52164A9621116315499E
:10113000327A40390A610D62049941760299009829
:1011400002F014FF0398002803D00146009802F033
:101150000DFF009802F010FF009805B0F0BD00E010
:1011600002E0FF25F5358EE7024DFA3D8BE70000E2
:10117000B0130800DC050000E0010020278000001B
:101180000A000800C0000040FFB581B01E461446AA
:101190000F46150A104602F095FE00280DD00849AA
:1011A000A8000858C07B002807D03346224639469D
:1011B000019802F0E7FE05B0F0BD0020FBE700005B
:1011C000C00608000F4A518807235B02994340027A
:1011D00001435180704705200007018830221143E8
:1011E0000180018803221143018070470520000718
:1011F000018830229143018001888908890001809B
:10120000704700008000005030B5924A9249D005E6
:10121000048880231C430480904C65892D0701D4E9
:10122000521EFAD28E4C012222608E4C0A882280F5
:101230008D4A4988118001889943018030BD002082
:101240007047704770477047002070470121890739
:10125000086B0722104308637047704730B5844914
:101260008248086083494C200880824C824B203C95
:10127000238283498148488083488249018081498B
:1012800019314180222141818121890001827F49D8
:1012900041827F4901837D49113141837A4A7D49E9
:1012A0002032918041227C4912018A807B4ACA8087
:1012B0007A4D1035CD810A824A82921C8A826A1F39
:1012C000CA82FF2246320A83754A4A83754A5921E7
:1012D00011807449744D20310D8043254D80734D2C
:1012E0005582D5228A80FF22D3320A81704A4A81F0
:1012F000704A8A81714A704911805E49704A60392A
:101300004A80CA8810252A43CA80674A0A3A0A8155
:10131000584D6C4A403D6A80638208224A81524996
:10132000604A0988403A11824E49674A098811800B
:1013300066490978002901D03021018330BD400879
:10134000704700B58BB0624A4262624A8262624A6A
:101350004261624AC262624A0260624A0262624A50
:101360004260624AC261424A4048002110604048DF
:101370004038026B03129A430263426B1F231B0423
:101380009A4303231B04D218426359480268C312CC
:101390009A430260026803139A430260684641540C
:1013A000491CC9B22829FAD301462822514802F023
:1013B000B9FDFFF753FF02F04FFD4F4908800020B1
:1013C00002F050FD02F054FD0BB000BD10B5284AEC
:1013D0000F2126480902106025484038426B1F2320
:1013E0001B049A4303231B04D218426300060268BD
:1013F000D208D200026005200007028992089200FC
:10140000521C0281028908231A430281028A0A437C
:101410000282FFF723FF3948006B0078002804D0D0
:101420003748008813496039C880012002F0DEFC8B
:1014300010BD2648007870472449012008701249E1
:101440003020088370472149002008700E49088326
:1014500070470000A0860100087F040020000050B3
:10146000008000407A030800AE0408004C055407D1
:1014700080000040602C00507F7F0000AC290000FD
:10148000002200500909000000240050220400003E
:1014900030D00000EE110000002500502E020000A8
:1014A00044200000402800500D950000024200003A
:1014B000E4DC00001092000053780000002A005085
:1014C0008B1000009DD5000000260050B4130800CA
:1014D0003F12002043120020491200204D1200202C
:1014E000451200205B120020471200203F1300200D
:1014F0000002004020000800F4050800200200203F
:10150000CE05080008430121890303460B434349E4
:101510000B80434B18430880092002434A807047E0
:101520003E490A880F239B0100079A43800D02431E
:101530000A80704739490020088070473748394988
:10154000028802231A430280491E02D302889207AE
:10155000FAD400210181408970470AE000BF00BF32
:1015600000BF00BF00BF00BF00BF00BF00BF00BF83
:1015700000BF401EF2D2704770B5022251020446ED
:101580004E003046FFF7BEFF1420FFF7E6FF002CA9
:1015900001D0092000E00720FFF7C2FFFFF7CEFFD0
:1015A00005460120FFF7D9FF022200213046FFF750
:1015B000A9FF002C01D0092000E00720FFF7B0FFB1
:1015C000FFF7BCFF4019154A0021118070BDF0B52E
:1015D000124C154820801420FFF7BFFF01256D0233
:1015E000A580E5802088E9000843208020888E10AF
:1015F000B0432080FFF7A2FF0746208830432080B9
:10160000FFF79CFF0246780071424018281A5200EA
:101610005118691AA080E180F0BD0000001500504B
:1016200001400000A086010001480000FEB5002036
:10163000F84E034628220021424392198C00491C8F
:1016400013510A29FADB401C0428F3DBFFF726FAC2
:10165000F14800220260426015460024EF4869000C
:10166000475A0120A04080B207421AD02820684380
:101670008019A1004058411C17D000280ED0C11776
:10168000224602F085FC2A0102F082FCE24B1A6835
:101690005B681043E04A194310605160641C0A2CD7
:1016A000DFDB6D1C042DD8DBFEBD0095019400BE70
:1016B000E5E7F8B5164604460D460A461F460120E2
:1016C000002102F065FC220102F062FCD24B1A6894
:1016D0005B6810401940084300D100BE032C00D1C4
:1016E0000424CF4960014018690008183E43C680B1
:1016F000F8BD70B504460D460A460120002102F0EF
:1017000047FC220102F044FCC34A136852681840A7
:101710001140084300D100BE032C00D10424C0496D
:10172000600140180121A940818070BD70B5044658
:101730000D460A460120002102F02AFC220102F097
:1017400027FCB54A1368526818401140084300D17D
:1017500000BE032C00D10424B149600140180121CE
:10176000A940418070BDFFB581B00C4605460A46D0
:101770001F46012000210A9E02F00AFC2A0102F005
:1017800007FCA54B1A685B6810401940084300D15C
:1017900000BE002E2146284602D0FFF7C7FF01E019
:1017A000FFF7A7FF3B4621462846039AFFF781FF34
:1017B00005B0F0BD70B5154604460E460A46012038
:1017C000002102F0E5FB220102F0E2FB924B1A68D5
:1017D0005B6810401940084300D100BE002C07D0C0
:1017E000601E8F49400070314018012C02D002E089
:1017F0000020F6E7083601880122B2409143B54047
:101800000D43058070BD70B504460D460A460120A3
:10181000002102F0BDFB220102F0BAFB7E4A1368F0
:10182000526818401140084300D100BE032C00D17B
:1018300004247B496001401800880121A940084028
:1018400000D0012070BDFFB514460D4606460A467D
:1018500081B00120002102F09BFB320102F098FBD5
:101860006D4B1A685B6810401940084300D100BEF8
:101870006CA0006800906C48838920461338FF22D2
:10188000013282400B999343002901D0012700E0E7
:101890000027D10701D0002138E0910701D50121AF
:1018A00034E0510701D5022130E0110701D50321B1
:1018B0002CE0D10601D5042128E0910601D50521AF
:1018C00024E0510601D5062120E0110601D50721AB
:1018D0001CE0D10501D5082118E0910501D50921A9
:1018E00014E0510501D50A2110E0110501D50B21A5
:1018F0000CE0D10401D50C2108E0910401D50D21A3
:1019000004E0510401D50E2100E00F218F4046492B
:101910003B438B818B890B9F9B099B013B438B81B5
:101920000B8A9343D70701D0002238E0970701D5EF
:10193000012234E0570701D5022230E0170701D514
:1019400003222CE0D70601D5042228E0970601D512
:10195000052224E0570601D5062220E0170601D50E
:1019600007221CE0D70501D5082218E0970501D50C
:10197000092214E0570501D50A2210E0170501D508
:101980000B220CE0D70401D50C2208E0970401D506
:101990000D2204E0520401D50E2200E00F220A9F1E
:1019A00097403B430B820B8A024601273846904002
:1019B0008343C20701D0002245E0820701D50122FE
:1019C00041E0420701D502223DE0020701D5032292
:1019D00039E0C20601D5042235E0820601D5052290
:1019E00031E0420601D506222DE0020601D507228C
:1019F00029E0C20501D5082225E0820501D509228A
:101A000021E0420501D50A221DE002050ED50B2278
:101A100019E0000020900020484200200C420020E5
:101A20000030005001090F1900140050C20401D504
:101A30000C2208E0820401D50D2204E0400401D507
:101A40000E2200E00F220498904003430B82954839
:101A500061000818418B6A468909925D8901521913
:101A600011434183A007C20EFF2191408020904086
:101A7000002C0BDA2207120F083A93088A4A9B00BF
:101A80009B18DA698A430243DA6107E0A308874AB0
:101A90009B009B181A688A4302431A60E006C00E36
:101AA00087408348076083E67E4940310A8A1338BD
:101AB000012181400A40C80701D0002038E0880792
:101AC00001D5012034E0480701D5022030E00807A5
:101AD00001D503202CE0C80601D5042028E08806A3
:101AE00001D5052024E0480601D5062020E008069F
:101AF00001D507201CE0C80501D5082018E088059D
:101B000001D5092014E0480501D50A2010E0080598
:101B100001D50B200CE0C80401D50C2008E0880496
:101B200001D50D2004E0480401D50E2000E00F206F
:101B3000C240D0B2704710B55A4C4034238A133893
:101B4000012282409343D00701D0002038E0900763
:101B500001D5012034E0500701D5022030E0100704
:101B600001D503202CE0D00601D5042028E0900602
:101B700001D5052024E0500601D5062020E01006FE
:101B800001D507201CE0D00501D5082018E09005FC
:101B900001D5092014E0500501D50A2010E01005F8
:101BA00001D50B200CE0D00401D50C2008E09004F6
:101BB00001D50D2004E0500401D50E2000E00F20D7
:101BC00081400B43238210BD10B5364C4034E3896D
:101BD00001221338114681408B43C80701D00020F1
:101BE00038E0880701D5012034E0480701D50220FC
:101BF00030E0080701D503202CE0C80601D50420F9
:101C000028E0880601D5052024E0480601D50620F5
:101C100020E0080601D507201CE0C80501D50820F2
:101C200018E0880501D5092014E0480501D50A20EF
:101C300010E0080501D50B200CE0C80401D50C20EC
:101C400008E0880401D50D2004E0480401D50E20E9
:101C500000E00F2082401343E38110BD154A80004D
:101C6000801880384163704710B50446FFF7ACFF19
:101C70001049A00040188038406B002801D08047F0
:101C800010BDE106C90E012088400B49086010BD57
:101C90001320E9E71420E7E71520E5E71620E3E73E
:101CA0001720E1E7C013005000ED00E000E400E081
:101CB00000E100E0C090002080E200E070B5164630
:101CC0000C46054601280FD106221749174802F095
:101CD00065F9002808D006221449304602F022F99E
:101CE00006202070002070BD32462146284602F0B2
:101CF0005BF970BD70B50E480E49C4052288802579
:101D00002A4322800C4A53891B0701D4401EFAD271
:101D10000A4A012010600622044802F003F92088D4
:101D2000A843208070BD0000A83C0300B513080044
:101D3000A0860100D47F04002000005000800040F5
:101D400070B50125AD07AC6B2046FFF757F8884901
:101D500002F0A0F827221201511A00D10121854A70
:101D600050601160286B082188430843286382482B
:101D7000046082480068002802D0A04200D200BE61
:101D800070BD10B5052000074189890708D0418939
:101D90008908890041817A494A88520852004A805C
:101DA0000189802211430181018A04229143018229
:101DB000818A8907FCD502F0FDF8012080070169BE
:101DC000490700D500BE01694907FCD510BDF8B52B
:101DD0006C4EF08800282DD10120F0806A4908203F
:101DE000088005273F077889800720D0B88A4007F8
:101DF00001D5FEF792FE624D288880210843288095
:101E0000624CFF20608004202080FFF7E4F97D21F0
:101E1000C900E088A288000480188842F9D905200A
:101E20002080B08878802988802081432980584983
:101E300010200860F8BD70B5FFF7D8F9FFF7A1FFD3
:101E40000026504C0520E6800007418A80229143FD
:101E500041824D48018949084900018101F08AF811
:101E600001208007816904221143816102F0A8F8F2
:101E70004749102080310125086002F0A7F802F0E0
:101E8000ABF81420FEF727FF3D48267040898005F7
:101E900010D5607800280DD13E4865700088C007D5
:101EA00008D10120FFF768FB8B218900884201D906
:101EB0000220607070BD10B502F094F800F051F887
:101EC00030490120087010BD10B501208007008A3C
:101ED000000604D500F045F81420FEF7FCFE10BD06
:101EE00010B502F085F810BD10B501208007008AFA
:101EF000000704D502F082F822490420087010BDC2
:101F000070B52548008886062448B60E44682448E3
:101F1000006B0078002802D1304602F075F82148A5
:101F20000089184DC00507D520060FD5E0070DD054
:101F3000304602F06FF803E0200607D5E00705D031
:101F40000320194928700888401C0880200407D500
:101F5000E00505D50220154928700888401C088036
:101F600070BD10B507490120887002F059F810BD06
:101F70007102000040000040C8130800C4130800AC
:101F800020000050BC130800003300500016005021
:101F900000E200E000150050002000500002004068
:101FA00020020020002C00505642002062420020F7
:101FB000F0B5694F85B0786900260290FEF717FDED
:101FC000664D002802D12879022801D10020029014
:101FD000FEF71FFF00280DD102F028F8002809D0D5
:101FE000E87801260028FAD005242407A08AC00733
:101FF00001D00426ACE001F0FFFE0028FAD12879D8
:10200000002801D13869029055488069002801D024
:1020100078690290A97802A8029F02F00DF80028C2
:1020200040D04E48817802A801F0F8FE002839D04F
:1020300002F008F8002835D000254A480297FEF73C
:10204000D8FE0746484A01208007016A914202D221
:10205000016AC829F9D801208007006AC82800D879
:1020600001253E48817802A801F0E6FF002817D03C
:102070003A48817802A801F0D1FE002810D00298D9
:10208000002803D0002D01D0401E02903748FEF7F3
:10209000B0FE374A014612781231022A03D003E01B
:1020A00000F068FF54E01131324A5289920500D5A0
:1020B00000BEC21B0125AD07EB6B9B0A9B021343BD
:1020C000EB63EA6B2C4B89021A400A43EA63E96B23
:1020D000C902C90A40050143E963029804260028A1
:1020E00001D0001D029001F0B0FD2449096801F003
:1020F000A2FC01F0CAFD2249009008601749097945
:10210000002900D0012101F0A3FF1E48C06A8047CA
:102110000027FEF7ABFE002808D0208830210843B6
:10212000208020880321084320800127286B000499
:10213000C00FFBD014480168C905FCD5002F01D0A1
:10214000FFF754F801F08AFF20898021884320811D
:10215000304605B0F0BD0000A0020020B207080024
:1021600050070800540B0000260200001D0D00005F
:102170007803080020000050FF03E0FFAC130800C4
:10218000C4130800080808000002004008B572B631
:1021900001F06AFF052109074A8A68460280008823
:1021A000820892006846028002880120C003024330
:1021B000684602800088488208BD10B5FEF7B6FB6D
:1021C000FC48002101700222427081702522C270F9
:1021D00032228280C1800181418181814182C1811D
:1021E0000182F54A13681403234313608182FEF7CA
:1021F000B5FC10BD38B5EF4C207800280BD12081FC
:102200006081A0816082A07869460870684601F00C
:1022100031FF0220207038BD1CB5E64900220A813A
:102220004A818A814A820A8200788870FFF7E2FF39
:102230000421684601700E21417003218170012143
:10224000C170DE4981800022062101F0FFFD1CBD26
:1022500038B5D84C2078002816D1E080A17868469F
:102260000170E17841706178817001F009FFD44D0F
:1022700005E0684601F004FF002800D0FEE7E86BA7
:102280000028F6D00120207038BD1CB5044604217A
:10229000684601700F214170032181700121C170D6
:1022A000C84981800022062101F0D0FDC148217873
:1022B00081706178C170A17841702179E27809025A
:1022C00011438180FFF7C4FF1CBD38B5B94C20789D
:1022D00000281BD1A17868460170252141706178E2
:1022E000817001F0CDFEB848016AC213114301624A
:1022F000016A021491430162016A821491430162EE
:10230000016A490A490201620520207038BD1CB5E6
:1023100004460421684601700E214170032181703A
:102320000121C170A549002230318180062101F0D0
:102330008DFDA0482178817061784170FFF7C5FF5D
:102340001CBDFEB5A14D02780121A04C20358902AB
:102350004F2A31D09E4B8E10542A39D0522A2AD17E
:10236000196047789B480078002855D09A48218802
:10237000314321802188C05D090A0902014321807F
:102380000120964980038880012028800820288029
:102390000620884908700421684601700E214170AA
:1023A000032181700121C17084490022103981808C
:1023B000062101F04BFDFEBD002020802880874BC8
:1023C00003229A80824A803A1160854A1160E0E7D0
:1023D000196047787F480078002811D07E4821880E
:1023E000314321802188C05D090A0902014321800F
:1023F00001207A4980038880042028800220C6E7D3
:10240000384601F001FE2088304320802088000AF1
:10241000000238432080EBE7384601F0F5FD2088C4
:10242000304320802088000A000238432080A7E73C
:1024300010B5604C2078012805D02078022802D001
:102440002078052807D15E48C06B00F0A3FC5C48EB
:102450003C3001F01BFE0020207010BD1CB5042193
:10246000684601700E214170032181700121C17005
:102470005249002240318180062101F0E7FCFFF73C
:10248000D7FF5149002008621CBD1FB504216846D2
:1024900001700E2141700B2181700121C1704749EB
:1024A0001031818043490A89C2804A8902818A8920
:1024B0004281098A818100220E2101F0C7FCFFF7C9
:1024C000B7FF1FBD7CB504460421684601700F218B
:1024D00041700321817039490125C57050318180D7
:1024E0000022062101F0B2FC227802213D48012A97
:1024F00004D0022A18D0FEF719FA7CBD6278002AAF
:1025000002D1A278002A0DD00571607836491922CF
:102510004843A17892015143411834484161FEF784
:1025200012FA7CBD0171FAE70171FEF719FA7CBD60
:102530000521090748807047F7B52D49CC0520884B
:102540008027384320802B484289120701D4491E36
:10255000FAD2C18B02221143C183002550E02648E4
:1025600000210160009AAE00B2181204920C0261C0
:1025700041610421016001983018401C01F0F8F914
:1025800001990002895D08431B498A681205120FF0
:10259000082AFAD088618868C206FCD581072DD543
:1025A000C10401D4800429D52088B84320800020AC
:1025B000C043FEBD50420020000200402040000009
:1025C000000508001E200000C00000400020005050
:1025D00080E100E0BE41002020000800002C0050F7
:1025E00080E200E0B207080000770100A0020020AE
:1025F000A086010020000050008000406D1CADB29C
:1026000002988542ABD32088B84320800020D0E7D1
:10261000F0B50546401C4178027808022978052467
:10262000104300260127240785B001291ED0FB4B4B
:10263000FA4AC03B02290AD003290CD0042911D040
:10264000052915D0062919D0072917D03AE01763B4
:102650000320000210E06188F14A121A8A4231D345
:10266000081803E0618881422CD3081A608029E0B1
:102670000020106301204002186123E0687800F018
:1026800011FF411C05D0811C05D02978072904D0F1
:1026900018E0012616E0022614E080B20090012224
:1026A0006946E048FFF748FF002800D003261020C5
:1026B0000090DC48012269461438FFF73DFF0028EE
:1026C00000D003260421684601720E2141720521C3
:1026D0008172C7722878002814D0062814D00728E1
:1026E00012D000206946C8818120C00169468881D6
:1026F00002ACFEF700FA00220821204601F0A6FBFA
:1027000005B0F0BD6088EDE76846C681ECE77CB5B2
:1027100004460078651C030001F0BEFC09060A119E
:10272000151C202733483800607801F06CF82DE044
:10273000687829780002084301F04FF826E06078B5
:1027400001F038F822E0687829780002084301F0A7
:1027500024F8EDE7607801F04DF817E06878297803
:102760000002084301F06AF810E068782978000256
:10277000084301F005F8A078002802D1607800280D
:1027800002D001F06CF801E001F050F80421684635
:1027900001700E214170032181700121C170A24995
:1027A00081800022062101F051FB7CBD6078EBE7BF
:1027B0001CB5042269460A700E224A7005228A70EE
:1027C0000122CA70984A103A8A800078C880684608
:1027D0000022082101F03AFB1CBD10B592B0042183
:1027E000684601700E214170452181700121C17040
:1027F0008D490C2410318180847120228BA102A884
:1028000001F050FC6846C47120228BA10AA801F097
:1028100049FC68460022482101F018FB12B010BDA7
:10282000F8B50E460121874B89044118DC05208844
:10283000802528432080844847893F0701D45B1EB8
:10284000FAD2824B01201860304601F06BFB2088E1
:10285000A8432080F8BD70B586B0042269460A708E
:102860000E224A700A228A700122CA706E4A6D4D89
:10287000503A8A8002788A710022CA7102920A73E1
:1028800001786B4600290ED0664C483402290ED0E0
:10289000644E143E04290ED0012912D0032919D008
:1028A000052922D028E00222D91D284606E006226A
:1028B000D91D204602E00422D91D3046FFF7B0FFA3
:1028C0001AE081784278080210430490012204A99A
:1028D00028460FE004920592411C062204A801F04C
:1028E00021FB022204A9204604E0102004900122CA
:1028F00004A93046FFF720FE684600220D2101F0B2
:10290000A5FA06B070BD10B5514CA06901F0D0FB1E
:102910000020A06110BDF8B541780278090211438A
:10292000009187780321BE0035460835284601F01E
:10293000C5FB0446042020700E206070711DA1703C
:102940000120E070384821464038A0800020A07166
:10295000E771F2B208310098FFF762FF3C49204668
:102960008C613C4A294601F071FAF8BD1CB54178EA
:1029700002780B0213438478C11C22461846FFF7E5
:10298000DBFD0421684601700E2141700521817034
:102990000121C170244930398180002181710A46AA
:1029A000C471082101F052FA1CBDFEB50446067838
:1029B0000421684601700E214170092181700121B6
:1029C000C17019492039818086710021C171601C54
:1029D000029100F0CDFF050220792D0A0006054383
:1029E000002E06D0012E0ED0022E35D0032E3ED161
:1029F00038E0286869460872020A4A72020C8A7234
:102A0000000EC87233E0601D00F0B2FF0002217AB0
:102A1000000A09060843286029E00000C030005081
:102A2000FFFF00008C7F0000E0400000765F332E47
:102A3000302E392E35303400765F332E35302E313E
:102A40002E383900A0860100200000500080004090
:102A50005042002007290020288869460872000A91
:102A6000487204E0A07961790002084328800022BE
:102A70000C21684601F0EAF99BE500001649896AD5
:102A8000084710B5052001F01FFB14480068002816
:102A900005D0114901224031097B00F08BF810BDAF
:102AA00010B520210D4801F015FB0C4801F018FB72
:102AB0000A480C3001F014FB01F018FB084906200D
:102AC00001F01AFB0749052001F016FB0649042016
:102AD00001F012FB10BD0000E0010020DC04080042
:102AE000655C0200832A0020A55B0200F7B586B072
:102AF0009D48069D0090047B4035E87C1646801971
:102B0000E8744A700C706889888097480F462038AE
:102B1000039036E00398816A2E2060430818934999
:102B20000A78022A02D0097804291ED1904A118815
:102B3000491C11804288D10703D08E4B1988491C4B
:102B40001980110703D58C4A1188491C11808B49C3
:102B500082790B88D21852080A80894949880A0A62
:102B600088490B88D21852080A80E97DC90705D028
:102B70008078400602D4069801F0C4FA641C640709
:102B8000640F3046761EF6B20028C3D10098047355
:102B9000287E00280CD0E87C002809D003993878DA
:102BA000896A2E22504308188078C00700D1287601
:102BB00009B0F0BDF8B50F460546734940300089AD
:102BC000C9691646884201D1002102E00002401C7A
:102BD00081B202220623900201F0B6F904460146B2
:102BE0003A462846FFF782FF002E02D00020A07050
:102BF00003E02146284601F08BFA204601F0AAF9AD
:102C0000F8BD30B561490A88FF2381339A43803289
:102C10000A800C88012214430C800C881825AC43D0
:102C200010340C8004884C800C88A404FCD5CA8025
:102C300044884C800C88A404FCD5CA8084884C80CD
:102C40000C88A404FCD5CA80C4884C800C88A404D9
:102C5000FCD5CA8004894C800C88A404FCD5CA80A9
:102C600044894C800C88A404FCD5CA8084894C809B
:102C70000C88A404FCD5CA80C4894C800C88A404A8
:102C8000FCD5CA80048A4C800C88A404FCD5CA8078
:102C9000448A4C800C88A404FCD5CA80848A4C8069
:102CA0000C88A404FCD5CA80C48A4C800C88A40477
:102CB000FCD5CA80048B4C800C88A404FCD5CA8047
:102CC000448B4C800C88A404FCD5CA80848B4C8037
:102CD0000C88A404FCD5CA80C48B4C800C88A40446
:102CE000FCD5CA80048C4C800C88A404FCD5CA8016
:102CF000448C4C800C88A404FCD5CA800C889C436E
:102D00000C80848CE4B24C800C88A404FCD5CA806E
:102D10000C889C4380340C80194C65884D800D884C
:102D2000AD04FCD5CA800D88801E9D430D800078BF
:102D3000488008888004FCD5CA8008889843803081
:102D400008802088488008888004FCD5CA80104804
:102D5000808A488008888004FCD5CA80088840089A
:102D60004000088030BD00009C0408005042002054
:102D7000584200205A4200205C4200205E4200205F
:102D80000029005060420020E001002000120050A5
:102D90000023005007490968084710B5002803D0F0
:102DA0000121890601F0BAF90348416801208847EA
:102DB00010BD0000A00200200808080030B5A54999
:102DC000A54B4A7E00200C7E9D5C0346AC4205D19B
:102DD000521CD2B24A76032A01D301204B7630BD71
:102DE000F8B59C4C0025264620360746002812D010
:102DF000B07802280AD1F078012801D0052805D141
:102E00002069002802D001F08FF92561012F48D1F7
:102E1000002000F001F9B07800280AD0012816D06F
:102E2000022841D003280BD1FFF7C8FF002838D172
:102E30005EE0F078012804D0052804D000F0ECF81A
:102E4000F8BD032000E0082000F0F3F8F8BDF078AA
:102E500001280FD00528F9D17E48038CC28B818BC5
:102E6000408B01F071F8014610392161C8890028B2
:102E700006D111E000F0FEF82169C889002803D0CE
:102E8000103100F0BBF8F8BD0889744A904206D0B2
:102E9000724A3032904202D00846103025E00D814F
:102EA00019E000F028F8F8BDF078012803D00528D3
:102EB000F9D1206918E000F07FF920690189012922
:102EC00012D01F2910D021290ED0202902D1C1896A
:102ED000032909D005812069C58120690028E0D037
:102EE00001F022F92561DCE7103001F033F8D8E772
:102EF00000F078F8F8BD574810B5002120308170F7
:102F00002038C068012103685248554A2330984749
:102F1000042001F00FF910BD10B5032001F010F9E5
:102F2000022001F007F910BD10B5032001F0CCF824
:102F3000484C606901F0F8F82068002805D0204668
:102F400001F004F900F0CAFF10BD00213F2000F09D
:102F5000CBFF01F001F90028F6D001F003F90028B9
:102F6000F2D1082001F004F904223F213D4801F08C
:102F700005F910BD3C48C06A004710B53B49032025
:102F800001F0BAF83348C06880688047FFF7B3FFA4
:102F900010BD70B5064614460D46022001F0E8F853
:102FA000681E2C490670C968314A4B68611C9847F5
:102FB00070BD2848C0688068004710B52548C068C3
:102FC000C0688047002801D0012010BD01F0CAF878
:102FD000002805D0234802223F21401C01F0CEF8F2
:102FE000002010BD1B480321203081702038C068AC
:102FF0000121036817481A4A1830184730B40C46A4
:103000001449022220318A702039C968144A0B6899
:103010000146204630BC184710B50E4900224A76BA
:103020000876FFF7CBFEFFF7DDFF042001F082F802
:1030300010BD084910B5012220318A702039C968B5
:10304000074A0B68014603481A309847042001F0EC
:103050008FF810BDFC05080014420020304000002D
:10306000E12D002002FC0000E0010020292F0020BB
:10307000192F0020A048C0690047FEB500269F48D0
:103080000196C17E807E0C0204439C4F9C483D7F8C
:10309000211A009584423FD011DC9A48211A8442BB
:1030A0003FD006DC9848201837D0984940180FD1F7
:1030B00035E0012937D09648081809D10EE0954827
:1030C00010293AD0302909D0402930D0D0293AD01F
:1030D0003F200190681C904EC0B200908848103884
:1030E00084425DD086481030844259D0844884425E
:1030F00056D083483030844252D081484030844298
:103100004ED07F497E4B7F4881225031D2017033AF
:1031100084421BD1052D3AD142E00126DEE71F266D
:10312000DCE72026DAE72126FFF782F9D6E70078E8
:103130000528D3D1FFF792F9D0E700780228CDD146
:10314000FFF7A3F9CAE7FFF748FBC7E78C4202D1B4
:10315000032D1CD124E0944222D09C4220D0684808
:10316000803084421CD066489030844218D0644835
:10317000A030844214D06248B030844210D06048FD
:10318000C03084420CD05E48D030844208D03F2208
:103190003046009B019900F0D7FE1038386109E0F5
:1031A0003F223046009B019900F0CEFE1038386176
:1031B00004813869C581FEBD4F48006A004710B5DB
:1031C0004E484F4C016950340A8908461030131B91
:1031D000A2423CD018DC4B4C131BA2422ED009DC7F
:1031E000012A06D04B481F2A23D0202A01D10321CF
:1031F000017010BD4649591826D010291BD040290E
:10320000F7D1FFF784F810BD502B32D00ADC102B19
:1032100023D0202B27D0302B28D0402BF3D1FFF701
:10322000A5FB10BD602B1BD0702BFAD1FFF76FFAF6
:1032300010BD0421DCE7FEF7EFFF10BDC9890529A9
:10324000FBD1FFF722F810BDFFF77BF810BDC9894D
:103250000329FBD1FFF736F910BDFFF7D9F910BDEF
:10326000FFF7A6FA10BDFFF7F6FA10BDFFF753FB04
:1032700010BDFFF79AFB10BD1F49496A0847F0B51A
:103280001E4E00227569032429462B890B31012724
:10329000432B13D004DC242B09D0422B1FD109E08F
:1032A000442B0DD01C4D6D425B1918D110E0164A0D
:1032B000524201E0134A521E042410E0114AFBE777
:1032C000104A6D8A521C06248D712D0ACD7106E0BC
:1032D0000A4AD37E947E1A02224304244F710E239D
:1032E0000B704C708F70CA70120A0A71A41C0470A3
:1032F00070690B30F0BD000020020020FC050800C2
:10330000204000001E200000FDF3FFFFE6EBFFFF62
:103310000EE0FFFF5042002001FC0000F34948434B
:10332000012102E000BF00BF491C8142FAD9704769
:10333000EF49FF2804D8002805D0FF20013002E023
:10334000884200D908460521090748800A20E5E798
:10335000F8B500277C1E3E460A21009700F09AFD32
:1033600001228A40D1B2002806D0012806D00228C6
:1033700007D003280AD107E0DE4C07E0DD4C2034FB
:1033800004E0DC4C403401E0DA4C8034DB4DDA48B8
:103390006861AE612869042210432861EFF310864A
:1033A000012080F31088204600F0C8F900902869B9
:1033B000400840002861002E0AD0012080F31088C8
:1033C0000098002802D00146CB48471A3846F8BD7D
:1033D0000020F3E771B583B00398404300F0D4FEBA
:1033E0000C460546C64AC74B00F05AFDC64E0022A1
:1033F000334600F0A7FB00F070FC0090039800F04B
:1034000019FC009900F017FBC04900F051FB009037
:1034100028462146BE4ABF4B00F042FD00223346FB
:1034200000F090FB00F059FC0190039800F0ACFE16
:10343000B94ABA4B00F034FD0022B94B00F082FBD0
:1034400000F04BFC02900199009800F0ECFA029910
:1034500000F098FAB34900F095FA009000F0FCFBF8
:1034600004B070BDF8B5B04C002561602E462060F8
:10347000FFF7B0FF61680F1A2068FFF7ABFFC119B3
:10348000AA48814203DB2268521E01262260814243
:1034900003DC2068401C0125206028463042EBD028
:1034A0002068F8BDF1B582B0924D9249914C029ED0
:1034B0000320904A0002203540318034330000F070
:1034C000EBFD26141A20262C32383ED3D3444A5022
:1034D000565C62D3D3D3D3686E747A80868C92980C
:1034E0009EA4AAB0B6BCC2C8CED3D1888143FF3156
:1034F0000131D180B8E011898143FF31013111815F
:10350000B2E051898143FF3101315181ACE09189B1
:103510008143FF3101319181A6E0D1898143FF319F
:103520000131D181A0E0118A8143FF310131118243
:103530009AE0518A8143FF310131518294E0918AAE
:103540008143FF31013191828EE0E9888143FF316F
:103550000131E98088E029898143FF3101312981E6
:1035600082E069898143FF31013169817CE0A98969
:103570008143FF310131A98176E0E9898143FF313F
:103580000131E98170E0298A8143FF3101312982CB
:103590006AE0CA888243FF320132CA8064E00A8945
:1035A0008243FF3201320A815EE04A898243FF3260
:1035B00001324A8158E08A898243FF3201328A818E
:1035C00052E0CA898243FF320132CA814CE00A8A42
:1035D0008243FF3201320A8246E04A8A8243FF3246
:1035E00001324A8240E08A8A8243FF3201328A8273
:1035F0003AE0CA8A8243FF320132CA8234E00A8B3F
:103600008243FF3201320A832EE0E1888143FF3199
:103610000131E18028E021898143FF31013121819D
:1036200022E061898143FF31013161811CE0A18980
:103630008143FF310131A18116E0E1898143FF31EE
:103640000131E18110E0218A8143FF310131218282
:103650000AE0618A8143FF310131618204E0A18A7D
:103660008143FF310131A1823148FFF761FE0298A9
:10367000FFF76EFE2F490126F64388422EDD2A4CC5
:103680006946A0600020087005252B4F2D0769466C
:103690000878401C08706888E060A168FFF7E2FEC7
:1036A0002061FFF745FE6888E0600298FFF750FE52
:1036B000A060002812D0694609780A2902D8C019EA
:1036C0002928E4D21C49A0683C314018A1280AD31B
:1036D0000020FFF72DFE0020C043FEBD0020FFF7B5
:1036E00027FE3046FEBD6888E060FEBDF1060000A2
:1036F000FF07000000300050FFFFFF0000E000E087
:10370000084DF9AD2942FA3F0088C34000007A44D1
:10371000977E995A7C930640271186A6913B0D40CF
:1037200000002440AA21F44A6C420020FC117A00D7
:103730007C04000040420F0018EE85FF3EB50D4DA1
:103740006D1E14D002880A42FAD16D1E0FD0028875
:103750000A42FAD0084A13680124234313606D1EFD
:1037600005D002880A42FAD1044A10683EBD002002
:103770003EBD0000C0C62D0010E000E018E000E0F3
:1037800010B50446C1B2062000F0C1F8210A072096
:1037900000F0BDF800F0B0F810BD10B50446C1B29D
:1037A000002000F0B4F8210A012000F0B0F800F089
:1037B000A3F810BD10B50024002803D0401E01213D
:1037C00081408CB2E1B2042000F0A1F8210A05206A
:1037D00000F09DF800F090F810BD10B50446C1B29D
:1037E000022000F094F8210A032000F090F800F085
:1037F00083F810BDC10710B5C90F082000F087F885
:1038000000F07AF810BD10B500F03EF80020FFF788
:10381000F1FF0020FFF7E1FF0020FFF7CBFF0020C2
:10382000FFF7BBFF0020FFF7ABFF10BD10B501464F
:103830000B2000F06CF800F05FF810BD10B50446E6
:10384000002000F076F8012000F073F87D20C00021
:10385000604300F079F8002000F06BF810BD10B55F
:103860000021092000F053F800F046F8012109205A
:1038700000F04DF800F040F80021092000F047F872
:1038800000F03AF810BD00002E4900220A80032003
:103890000002C880088148818881C88108824882E6
:1038A0008882284940390A80C880088148818881F7
:1038B000C8810882704723490880704721494039F0
:1038C0000A88000712091201000F02430A8070479C
:1038D0001C4A403A11881023C0079943C00E014387
:1038E00011807047174A403A11882023C007994336
:1038F000800E01431180704700B50020FFF7F2FFF2
:103900000120FFF7EFFF0020FFF7ECFF00BD30B50F
:1039100005460C460020FFF7DBFF0A4804802846D6
:10392000FFF7CCFF0120FFF7D3FF0020FFF7D0FF08
:1039300030BD00B501460A20FFF7E9FFFFF7DCFFC5
:1039400000BD00008030005001010748814200D9CD
:103950000146064800220261416182610521016140
:103960000169C903FCD57047FFFFFF0000E000E0DC
:10397000001D0321401E037812021A43491EF9D587
:1039800010467047F8B502464A40D40F42004B003B
:1039900052085B089A4202D20246084611464A0083
:1039A00023D0C30D4A00DDB2120EAD1A202D35DA38
:1039B00049020126490AF6058A19002C00D0524214
:1039C00020214F1B1146B9402A411018C20D9A42BE
:1039D00021D0002C17D0012D08DCDA05801AD20F77
:1039E0008019D207DBB200F09CF9F8BDDA05801A25
:1039F000012340001B06C01880185A428018CA0FC5
:103A00001043490007E04908C2071143DA05801A4C
:103A100080194008801800F07CF9F8BD610001228F
:103A2000511A001BF7E70122D2075140AAE70122F1
:103A3000D2075040A6E7024670B54A40D30FDB07D5
:103A400040002DD04A002AD0010E140E09190002A0
:103A50001202400A520A8418E50104465443000A3F
:103A6000120A2E045043A4194219200CC543AA1867
:103A7000120C01257F39521CAD0352191204240483
:103A800000D0521C104301D44000491EC2B20C06A3
:103A9000C0092018401C4008802A02D003E0002002
:103AA00070BD40084000002900DA0020184370BDB6
:103AB00070B502464A40D50F40004A00ED07400865
:103AC0005208002814D0002A12D0C40DD30D410290
:103AD0000120C0055202490A520AE41A09181218B4
:103AE0007D34914201D3641C00E04900002C01DACE
:103AF000002070BD0023914201D3891A034340087E
:103B000049000028F7D100290AD0914202D10121B1
:103B1000C90705E0914201D2012101E00121C94319
:103B2000E005C018401900F0F4F870BD420005D05F
:103B30004200120E52428A4201DB00207047C90542
:103B400008187047F0B50C465C4085B0E40FE407F8
:103B500003944C0000266408590094464908024624
:103B60000296224321D062460A431ED06200570DBE
:103B70004A000E032303550D012402462C49240557
:103B8000781B1B0B360B40182343264361460090DD
:103B90001C46501AB44103D30098401C009002E028
:103BA000921800985B41002803DA0020014605B016
:103BB000F0BD0020012109050746864611E0644654
:103BC0001D46141BB54106D36546521BB3417446CE
:103BD00007430C43A646CD074008490828439218DE
:103BE0005B4105460D43EAD11046184313D06046A9
:103BF000194650407140084303D100220123DB07DE
:103C000009E06046101AB34102D20122002302E00B
:103C10000122D2435310009874460105381C6141BB
:103C2000029C039D0019694100F0B4FABFE700004F
:103C3000FD030000C217C10F504010B54018CA075D
:103C40009623002100F06DF810BD10B500229623D8
:103C5000114600F066F810BDC20F4100400201237A
:103C6000400ADB05D207090EC0187F2901DA0020BF
:103C70007047962903DC9623591AC84001E096390B
:103C80008840002AF4D0404270474100400201229F
:103C9000400AD205090E80187F2901DA00207047FA
:103CA000962903DC9622511AC840704796398840FD
:103CB0007047C20FD207400040080BD0C10D072348
:103CC000DB01C91840020905400A1143C208400738
:103CD00011437047002001467047CB0FDB074900B6
:103CE00010B5490802460A4307D00A0D0724090304
:103CF000E401090B121B002A01DC002010BDC900E1
:103D0000440F0C43C100E018D205801800F001F800
:103D100010BD002904DA401C490001D140084000D0
:103D2000704770B40024050C05D11024000402D1A2
:103D3000002922D01124050E01D108340002050FFC
:103D400001D1241D0001850F01D1A41C8000002891
:103D500001DB641C4000002908D020252E1B0D46E5
:103D6000F540A14000D00121294308431B1B010657
:103D7000DB1D000A002B02DA002070BC7047DB0557
:103D8000181880180029F8DA401C4900F5D170BCD9
:103D90004008400070470000064C0125064E05E033
:103DA0002046E36807C82B4398471034B442F7D342
:103DB000FCF752FB184200203842002003B40148AF
:103DC000019001BD9D1B020003B40148019001BD9B
:103DD0006F39030003B40148019001BDDF290300DE
:103DE00003B40148019001BD032B030003B4014853
:103DF000019001BD218D020003B40148019001BD75
:103E0000F92B030003B40148019001BDBD1E03005E
:103E100003B40148019001BD012C030003B4014823
:103E2000019001BD7F65020003B40148019001BD0E
:103E30001B30030003B40148019001BD6B30030047
:103E400003B40148019001BD8F1F030003B4014872
:103E5000019001BD7F7E020003B40148019001BDC5
:103E6000AB8C020003B40148019001BDDF89020060
:103E700003B40148019001BD598C020003B401480C
:103E8000019001BD7B1B020003B40148019001BDFC
:103E9000A17D020003B40148019001BD0739030070
:103EA00003B40148019001BDF539030003B4014892
:103EB000019001BD672D030003B40148019001BDCD
:103EC000B18C020003B40148019001BDAD24030090
:103ED00003B40148019001BD431D020003B4014831
:103EE000019001BD238E020003B40148019001BD81
:103EF0002924030003B40148019001BD3DA4020040
:103F000003B40148019001BD0FB0020003B40148A1
:103F1000019001BDA3A2020003B40148019001BDBC
:103F2000FBA2020003B40148019001BD81390300E6
:103F300003B40148019001BD99A2020003B40148F5
:103F4000019001BD6B96020003B40148019001BDD0
:103F50007D21030003B40148019001BDAD210300A0
:103F600003B40148019001BDEF61020003B40148B0
:103F7000019001BD5350020003B40148019001BDFE
:103F80002D50020003B40148019001BD31D202005E
:103F900003B40148019001BDF13B030003B40148A3
:103FA000019001BDD939030003B40148019001BD5E
:103FB000E727030003B40148019001BD9D2A0300D7
:103FC00003B40148019001BD132D030003B401485F
:103FD000019001BDED1B020003B40148019001BD39
:103FE000FB2A030003B40148019001BD452F0300E3
:103FF00003B40148019001BD6F62020003B401489F
:10400000019001BD5F62020003B40148019001BD4F
:10401000198A020003B40148019001BDE78C020037
:1040200003B40148019001BD4F62020003B401488E
:10403000019001BD2D1E030003B40148019001BD94
:104040002D27030003B40148019001BDF18D02004A
:1040500003B40148019001BD1B65020003B401488F
:10406000019001BD452A030003B40148019001BD40
:10407000457E020003B40148019001BD356C020089
:1040800003B40148019001BD676B020003B401480D
:10409000019001BD895B020003B40148019001BD9C
:1040A0006F3C030003B40148019001BD8139030056
:1040B00003B40148019001BD8F20030003B40148FF
:1040C000019001BDCD1F030003B40148019001BD63
:1040D000911E030003B40148019001BDB3390300F0
:1040E00003B40148019001BD391D020003B4014829
:1040F000019001BDA962020003B40148019001BD15
:10410000511E030003B40148019001BD835D02000C
:1041100003B40148019001BD0D4F020003B40148F2
:10412000019001BD9F5E020003B40148019001BDF2
:104130000122030003B40148019001BD252D0300B5
:1041400003B40148019001BD651E030003B401489A
:10415000019001BDD31D020003B40148019001BDCF
:10416000772D030003B40148019001BD7F2D0300AA
:1041700003B40148019001BDEF2C030003B40148D2
:10418000019001BD1F26030003B40148019001BD49
:10419000C53A030003B40148019001BD313B03005F
:1041A00002E008C8121F08C1002AFAD17047704700
:1041B000002001E001C1121F002AFBD1704701015C
:1041C000000A04280A040203AA0055032A00A001D9
:1041D000FFFF2C01FFFF0000090F002002FC000080
:1041E000958F020003FC0000A18F0200D441002043
:1041F00003000000D50F0020611000200000000027
:10420000EC4100202006080002000100FF003F00F2
:10421000FF03FF0152572100804200202090002020
:10422000B4000000B041002008090800D0280800B0
:1042300030070000B04100200000000064000000D2
:1042400000000000800C00000000000000000000E2
:10425000000000000000000000000000000000005E
:10426000000000000000000000000000000000004E
:10427000000000000000000000000000000000003E
:040000052000045182
:00000001FF
