:020000042000DA
:1000000000980020A5040020AD040020C5040020B5
:1000100000000000000000000000000000000000E0
:10002000000000000000000000000000DD040020CF
:100030000000000000000000F5040020F70400208C
:100040008D300020813100200D3103006F31002000
:10005000F53000208D31030099310020AB310020B4
:10006000132800208B250020EB310020AD31030048
:100070005781020043220020F9040020F9040020E7
:10008000F9040020F9040020F90400208F2000204A
:1000900093200020972000209B2000209F200020FC
:020000042000DA
:100160003200000043050020FB1900203D3700202D
:10017000000000000000000063800200BD8002005B
:10018000CD0B0020FB8002001981020035810200A6
:100190005D8102001930002029050020B90B0020E4
:1001A000C30B002000000000000000003F00000022
:1001B000F48B002000040000740B080048010000CC
:1001C0006807080000040000C80C080020050000B3
:1001D000000000002000000048000000580000005F
:1001E0006800000004010000160100002801000062
:1001F0002E010000202A00008E2E000001000000C9
:1002000088130000851A0020E9600200FD930200B7
:100210009714002019280300A5740200752D0020F2
:1002200003000000D5200200453700200400000034
:10023000D74902000F490200831D020063910200AA
:10024000B7910200BF910200078202007182020092
:100250004C4C0020AD8302009384020041850200D3
:1002600015860200378602005F860200758602004E
:10027000F9870200258902005D8A0200D38C020002
:10028000098D02000F900200438D0200278E0200AC
:10029000F98E0200478F02002B0B0020D58F020041
:1002A00049510200775102002F5202001000000055
:1002B00020030000803E000000000000000000005D
:020000042000DA
:1002C000504600030003983A6400F401B80B000C98
:1002D000B80B120030003000CD009A01120024004B
:1002E00030006400B0001800280012001200D0078F
:1002F0000000FFFF00000000000000000000000000
:100300001F000002444131343538302D30310000B7
:1003100000000000000000000000000000000000DD
:0403200000000000D9
:020000042000DA
:10034000FFFF010000C201000000000000000000EB
:100350000000F4010100011B0A071AFFD200021578
:10036000585CDE931B0142CC9A1325009BEDC65EC0
:1003700000010002C5000000000009FF00605257A4
:100380002D424C450000000000000000000000006D
:1003900000000000000000000000424D492D5352B3
:1003A000000000000000000000000000000000004D
:1003B000000000000000000000000000000000003D
:1003C000000000000000000000000000000000002D
:1003D0000000000000000000100000CAEA80D00702
:0403E000064064323D
:020000042000DA
:100440000348854604F0E6F800480047C72002004C
:10045000009800200F4906200880FF200E49013037
:1004600008600E4988683E2290432E308860002242
:10047000052000070280018A0F231B021943018215
:1004800001210748C90404C1401E0028FBDA62B6F6
:10049000704700000034005080E100E0003300505D
:1004A000FF0B00001548804715480047042071469F
:1004B000084203D0EFF3098012490847EFF30880A0
:1004C0001049084704207146084203D0EFF3098021
:1004D0000D490847EFF308800B490847042071468F
:1004E000084203D0EFF3098008490847EFF308807A
:1004F00006490847FEE7FEE7FEE700005504002036
:10050000410400204509002011050020FF0C0020B7
:10051000034901200880034908204880FEE70000C5
:10052000003100500033005010B5AE490020086083
:1005300000F0F6FA01208007016B490049080163C9
:1005400010BD1CB5A84801210170A84808210180F0
:1005500004F072F801F032FB00F011FAA4480178BF
:100560000170A44801780170012004F06BF8FF24A9
:1005700001340D202146800104F06AF802F016FCD7
:1005800001F09EF900F01CFA042000F023F9072086
:1005900000F020F90A2000F01DF9062000F01AF9F9
:1005A0000B2000F017F9012000F014F9022000F0F0
:1005B00011F9002000F00EF98F48006804F04EF8A1
:1005C00001F040F9A00501682143016000F021FB22
:1005D00000F03DF9142000F061FA142000F06CFAEC
:1005E00003F0C2F8FFF7A0FF002505242407E582E9
:1005F000824E7088E0218843A0307080012004F092
:1006000033F803F0CCFC02F02EFB00F04EFC042784
:10061000208900061DD501208007006B000418D436
:1006200004F028F8C00714D1042004F029F8019040
:1006300004F02CF8019800280BD01420019500F04C
:100640003BFA042101A804F027F8002801D000F0AB
:100650007AFA03F076FD0028DAD172B6684800789D
:1006600001281FD06748006801281BD002F0C4FB96
:1006700069460870644804F0E3FA2021002301224F
:10068000084601F097FF00F0FAFC604908606846F0
:10069000007804280DD0022812D0032810D0012899
:1006A00074D095E06846057000F0FFFB01F0C6FFCE
:1006B000E9E75748007801280ED003206946087002
:1006C000208A384320825348C06901286846007850
:1006D00016D9032802D010E00220EFE703F0E2FF72
:1006E00000280AD003F0E4FF002806D0032003F01E
:1006F000E5FF002801D0022009E00220694607E05A
:10070000032807D103F0DAFF002803D00120424973
:10071000087002E0022168460170404801693943CF
:100720000161618A202291436182218A0222114360
:10073000218269460A78618A022A20D0B9436182FF
:100740007F21890123888C4680210B43238000234D
:100750005B1CDBB20A2BFBD3638A10210B43638241
:1007600061462F4B491E596121888023994321807E
:100770002C49022A0D700AD0032A08D022E03943FE
:100780006182618A102399436182F1E71FE07188D9
:10079000FF220132914371806188234A1180718860
:1007A00001221143718001950199491C019114297D
:1007B000FADB618989088900491C618161894906E0
:1007C000FCD5658030BF0169B943016100E030BFED
:1007D00062B61DE7C106C90E0120884013490860B2
:1007E000704700008C0308005C810020003300503B
:1007F00000000800202A080004900020200000507B
:10080000148000200C800020F90E002000800020C1
:1008100054020800E0010020C406080000ED00E0DA
:1008200000800040AC810020AE81002080E200E02A
:10083000704700003E480178002902D080214170B5
:1008400070473C49002008703B49C87070473848E1
:100850000178002902D0812141707047354901207B
:1008600008703549C870704731480178002902D0B6
:100870008221417070472F49022008702E490120C3
:10088000C87070472A488178002904D0491E09069B
:10089000090E817017D142780021002A04D09207F6
:1008A000920F0270417004E00278002A01D0521EBB
:1008B00002701206120E017005D0012A02D0022A1F
:1008C00001D1D1E7C3E7704710B5194CA078401C9F
:1008D000A0702078002805D103F0F6FE421CFFF737
:1008E000A9FF227010BD12490120C870704710493D
:1008F0000020C87070470E48C07870470020EFF3A2
:100900001081012282F31088052212071289120633
:1009100005D40A48028901231A4302811846002996
:1009200000D0012181F31088704705480078704796
:100930005D81002054020800C60608000033005004
:10094000AA81002005200007018A042211430182A8
:10095000018A02221143018201894022114301814F
:10096000054A01211160418A012289088900D203C8
:10097000114341827047000080E200E0704710B5EB
:1009800005242407208A022188432082A08A0007A8
:10099000FCD508484188FF2201321143418000F014
:1009A000B9F900F04EFB00F05FFB608A202108439C
:1009B000608210BD20000050BB49AA2048607047EB
:1009C00070B50521090708893022904308810889FC
:1009D000802318430881088980088000401C088112
:1009E0000889082210430881B04804881C43048009
:1009F0004C8A94434C820D89402425430D810D8AF5
:100A00000426B5430D828D8AAD07FCD5A64EAA25D6
:100A100075608588F026B543B035858085880326C6
:100A20003602B543FF350135858085882D092D01B6
:100A3000858085880126B6023543858085887600C5
:100A40003543858085887600354385804D8A95437A
:100A50004D82028852085200028002889A43028026
:100A60000A89A2430A814089800503D58F49052060
:100A70006031888001208007016882159143016000
:100A80008B4801683F225202914342148918016049
:100A9000016802031143016070BD704785494880B9
:100AA0000888032210430880088804221043088025
:100AB0007D490120087070477CB57B4C2178002966
:100AC0002DD07C490A885207FCD4CA8800928988B4
:100AD00001911104019A89180091774948430099BE
:100AE00003F0F8FD0090002020700098A0600098AE
:100AF00003F0E4FC05462946704803F01CFC0A217B
:100B000003F057FC03F0E1FCE060284603F010FD21
:100B10006B4A6C4B03F0E4FD03F01EFD20617CBDCD
:100B200010B5694803F0E2FD10BD70B55F4C6088F8
:100B3000C006050F03F0E0FD61881E2291436A00A4
:100B40001143618070BD10B560490120C863C86B56
:100B50000028FCD101208007C1695D4802689142EC
:100B600001D20022026019238A1ADB019A4212D3B1
:100B7000016003F0C7FD574A1188884201D9411A24
:100B800000E0091A89B2182905D31080012003F06A
:100B9000BFFD03F0C3FD10BD08B543498968484354
:100BA0004D4903F097FD009008BD08B53E49C9685E
:100BB0004843800A009008BD08B5FFF7EDFF00909C
:100BC00008BD08B5FFF7F1FF009008BD08B543491F
:100BD00001204A695206D20F13D04A699206D20FF9
:100BE0000FD000220A610092FF225F32009B5B1C43
:100BF00000939342FAD34969C907C90F02D003F0A1
:100C000093FD002008BD40183721C000090140189D
:100C100070471FB5684601F030FC009803F012FDE4
:100C20001FBD2F4900200A78002A0DD0274A012035
:100C3000D063D06B0028FCD101208007C069294A0D
:100C40001268904201D2012070470020087070475E
:100C50000020704708B515494A8801231A434A8085
:100C600000210091491C00911429FBDB0521090793
:100C70004A8992089200521C4A814A895206FCD540
:100C80004B89042213434B81488048899043488113
:100C9000888A0006FCD548898008800048814889F8
:100CA0000006FCD508BD0000648100202000005033
:100CB00000020040001600500024F4000024744993
:100CC0007B14AE47E17A443FE2040000C0000040DC
:100CD0007C0408007804080040420F000010005017
:100CE0005C81002024520020028908892249101AC0
:100CF00080B2884201D90120704700207047816985
:100D00002039897F082904D21C4A89005158816101
:100D10007047FEE71B481A4901611B4941611B49A5
:100D200081611B49C1611B4901621B4941621B4929
:100D300081621B49C1621B4901631B4941631B4915
:100D400081631B49C16319490E485C314030016021
:100D500018494160184981601849C160012018494B
:100D6000C00608601749CA691202120ACA6114490A
:100D7000803908607047000030750000644C002026
:100D8000942703000084004062B600DF28A302001D
:100D9000704701DF1CCA0200F8BD02DF40CB020031
:100DA000F5E703DF84D4020004DF89B0BC3302001E
:100DB000F8BD05DFF8BD06DFEC0C030070BD07DFF2
:100DC00080E100E000ED00E08307FF22DB0E9A40A7
:100DD0008907090E994000280BDA0007000F083830
:100DE000830851489B001818C36993430B43C361A0
:100DF000704783084D489B001B18186890430843B0
:100E00001860704710B54A481621018007214180BB
:100E10003121090181814749018201211320FFF716
:100E2000D3FF02211420FFF7CFFF01214248C9045C
:100E300001604900016010BDF8B5404801F01CFD9B
:100E40003E4D3F4E28783F4F8006002400281CDA94
:100E50003078002802D0012807D016E03A203968FF
:100E600003F0A0F9022030700FE03470C820AC60AD
:100E700000F0DCF82A20396803F094F93248006861
:100E8000002802D16C6001F0EEFE2878C00608D57B
:100E900034703B20396803F085F9C820AC6000F05D
:100EA000C5F823490120C881F8BD1CB500240120E4
:100EB00000902346132205210194204600F0D5FE20
:100EC00000230122520205211846009400F097FEEB
:100ED00003221723120204210020009400F08FFE49
:100EE00000220F2311461046009400F088FE174997
:100EF000132001F0B2F81CBD70B50521002000F0F0
:100F0000A7FE0E4C0125A560E06001F097FB0520CF
:100F10000007808A400701D5FFF731FDFFF7C5FFC5
:100F2000656001F0A0FE70BD00ED00E000E400E0AF
:100F3000001400500303000000E100E004800020E2
:100F4000148000200080002058810020390E0020ED
:100F500010B5012003F04AFE002003F05FFE7D2063
:100F6000C00003F055FE10BD10B5012003F018FEBF
:100F7000032003F009FE00221146012001F01AFCB3
:100F800000221146344801F034FC01F037FC10BD5A
:100F900070B5324C00252078002807D001260128A2
:100FA0000CD0022820D003283DD130E003F042FECF
:100FB00065606570002003F025FE70BD012003F020
:100FC00009FEA08880B203F01DFE607800286068EA
:100FD00008D032386060322800D26570C828ECD959
:100FE000667070BD3230F5E7012003F0F3FDA08894
:100FF00080B203F007FE60780028606805D03238C0
:1010000060603228EAD2657070BD3230F8E7A078AF
:10101000401CA070012003F0DDFDC82003F0F2FDAC
:10102000A0780328F0D92570A57070BD10B50021F7
:101030000B4B03E01A46521EFDD2491C8142F9D3E4
:1010400010BD10B5FFF784FFFFF78EFF054803F0D2
:10105000B3FD03F0B7FD10BDFAFF000014800020BF
:10106000E6030000910F002010B500220120114678
:10107000C00201F00FF9002001F01AF910BD70B59F
:1010800001F024F9114E00243546083D01F01EF907
:10109000A10070502968641C401828600A2CF5DBF8
:1010A0000A2103F047FB0A496860884208DB49428D
:1010B000401864214843FF215B3103F03BFB00E013
:1010C00000200021C0B2296070BD000024800020F3
:1010D000A502000070B516460D46104603F030FB21
:1010E000002869D0340A304603F02AFB012812D0C8
:1010F000A87A1E2811D029460A310E2845D019DCBD
:10110000801E030003F022FB0B255829582D58316F
:101110005839583D5800022070BD3146274803F029
:101120001BFB0021204603F01DFB0221304603F08B
:101130001FFB41E018283CD006DC102819D01228EB
:101140002BD0162838D130E0522822D0D22833D1E3
:1011500027E0204603F012FB2EE0204603F014FBAC
:101160002AE0204603F016FB26E0204603F018FB99
:1011700022E0204603F01AFB1EE0204603F01CFB91
:101180001AE0204603F01EFB16E0204603F020FB89
:1011900012E0204603F022FB0EE0204603F024FB81
:1011A0000AE0204603F026FB06E0204603F028FB79
:1011B00002E0204603F02AFB002070BD0128000059
:1011C000F8B50D46064681002B48EA884458521C63
:1011D00020686B89018F294F5143009101464031AE
:1011E0004A89C989511A8AB2991A89B2B94214D264
:1011F0009A4212D0294603F00FFB2D89204900980E
:1012000003F068FA2818801C4034E0823002401C49
:1012100080B2042103F0ACFAF8BD2821304603F077
:1012200001FBF8BDF8B50546870013480C46C059C8
:10123000C9880068114E024640325389D2899A1AF1
:1012400092B28B1A9BB2B34211D20B4E8A420ED08D
:1012500003F0EEFAF05905225F30611C03F0EEFA5C
:101260002802401C80B2052103F082FAF8BD282133
:10127000284603F0D7FAF8BD4C030800FF7F0000B2
:101280001027000070B50446007800250D2801D015
:101290000A2200E002225A494B7A002B06D00D2880
:1012A00004D0637C032B01D0432551E0097A8A43A3
:1012B00039D10D2809D00E2802D00F2803D134E0EF
:1012C000607C032804D3402542E0607C0328FAD8E0
:1012D000A07C0428F7D20A2908D0607C012822D0FB
:1012E000022820D06078032809D811E003F0ACFA76
:1012F000012806D16078032803D0002801D04925B1
:1013000026E003F0A1FA002802D160780228F6D87E
:101310003020035D22462046E17C3132143000F05B
:1013200019F8054614E0422512E003F08DFA012871
:1013300007D16078052804D1A01D03F08BFA00289E
:10134000DDD003F081FA002802D160780228D6D8D7
:10135000284670BDFFB5002086B001216A46117095
:10136000044605910021002C06D0089D099A1F23F0
:101370009A4234D9402032E01C23069D079AF7E7B1
:101380006B185E78330003F0E1F91D261010101081
:10139000101010101026262626262626262626265B
:1013A00026261010101010102600059B03E06F4633
:1013B000FF5CB74204D05B1E5BB2002BF7DA03E0A0
:1013C000002B01DB4A2006E0059B6F46FE54059B7F
:1013D0005B1CDBB205936B5C491C5918C9B2914286
:1013E00001D20028CCD0914202D04A200AB0F0BDF0
:1013F000641CE4B2022CF9D20028B3D0F6E7000056
:101400009805080070B5EFF31085012080F310886F
:10141000264803F025FA0446002D1DD0012080F354
:101420001088002C23D020462038C08B20498842C9
:101430001DD16189208903F019FA05000ED02146DB
:101440001031A38962892089A847002806D0012885
:101450000DD002280BD105E00020E0E7204603F084
:101460000BFA04E0114821460C3003F00BFAEFF3BD
:101470001084012080F310880C480068002802D1F5
:10148000012003F005FA002C03D0012080F310881E
:1014900070BD0020FAE710B5BC21064803F0FEF944
:1014A0000549012003F000FA10BD0000A80508005E
:1014B000388300000406080005140020F3B581B04D
:1014C00001980C460102CA1D0E310223344803F074
:1014D000F1F9047001990546022732488E00002C6C
:1014E00006D0042C16D0062C10D0072C3FD108E0D3
:1014F000815905224968897C114069708059C773F8
:1015000035E0084603F0DCF9687030E080590F21BF
:10151000C1732CE0044680594068417C012902D106
:10152000007E01280FD0019803F0D0F90121002896
:10153000A0590BD04268D07D00281CD001281AD0B9
:1015400004280DD00FE0002068700DE04068C27DD7
:10155000022A01D0042A06D1007C02280BD102E025
:10156000107C022807D06F70A1590320C873284649
:1015700003F0B2F9FEBD6970F6E701460A78012072
:10158000042A01D9002070474A78002A01D0012A94
:10159000F8D10A79082AF5D849790829F2D870478C
:1015A000021C000028050800FFB589B00D46002088
:1015B0006946059008720B98000A009003F086F9BE
:1015C00007460B9803F0BCF800287DD00B982978CB
:1015D000000A8400784E012963D0042904D006292A
:1015E00048D0072968D125E03059C17B032901D0B3
:1015F000042961D1697800291AD040681022A91CF9
:1016000003F01CF9002F06D03159C87B032807D0FE
:10161000042808D050E03059C07B032803D04BE0A9
:101620000B20C87348E00521009803F05BF943E004
:101630000120B6E03059C07B0E283DD1009803F060
:101640003FF9002103E02A18401C9170C0B2102815
:10165000F9D3688A69460883294606A80822143106
:10166000023003F0EBF806ABAA1C3946009803F0F1
:101670003FF921E03059C07B0F281DD1AA1C0A2157
:10168000009803F03BF9002F04D03946009803F08E
:101690003BF911E000231A463946009803F03AF965
:1016A0000AE0012F08D10B9803F04AF801281CD05A
:1016B000002801D0022005906846007A002811D049
:1016C00002AA0521009800E00CE003F017F9684633
:1016D000027A60200243684602720123394600986C
:1016E00003F018F905980DB0F0BD3059C07B022801
:1016F000E2D16878002851D002210B9803F038F825
:10170000305907224068A91C173003F097F8E87891
:10171000002804D130594068407C01283AD0009814
:1017200003F0FEF8002837D0297A009803F0FEF87D
:10173000002833D0009803F0FFF80121009803F04F
:1017400001F900282CD030594068417E00292BD067
:10175000042929D0C17E027D1140C17630594068EC
:10176000017F427D114001776846007A0028A7D1A9
:101770003059022142680098173203F0BFF83059FF
:1017800041684031897B002913D004210098FFF77C
:1017900095FE91E7022004E0062002E0082000E028
:1017A0000320694608728BE70021C17630594068F2
:1017B000D9E70B21C1737FE72805080010B50C4657
:1017C00003F0C6F82188284A89005258274B12682E
:1017D000D2685A5010BD10B5144603F0BFF8210A64
:1017E000214A89005258214B1268D2685A5010BDC4
:1017F000FFB50F46100A1C498000095881B00968DE
:101800001E461546002901D0CC6803E01749002286
:101810000C580A50002C0DD0201F408814498842D3
:1018200008D1A068002802D0204603F09DF8204689
:1018300003F0A0F833462A463946019803F0A0F891
:1018400005B0F0BD70B50B480378021D00210A4DAC
:1018500007E0CC00165D012E01D12418A560491CBB
:10186000C9B29942F5D370BD4C03080078810020BD
:1018700038830000040608007C4E00200F4A51887F
:1018800007235B02994340020143518070470520C2
:10189000000701883022114301800188032211438F
:1018A00001807047052000070188302291430180A4
:1018B000018889088900018070470000800000507D
:1018C00030B5924A9249D005048880231C43048095
:1018D000904C65892D0701D4521EFAD28E4C0122FC
:1018E00022608E4C0A8822808D4A498811800188A6
:1018F0009943018030BD00207047704770477047A2
:101900000020704701218907086B072210430863F4
:101910007047704730B584498248086083494C203D
:101920000880824C824B203C238283498148488036
:1019300083488249018081491931418022214181B6
:101940008121890001827F4941827F4901837D494C
:10195000113141837A4A7D492032918041227C496C
:1019600012018A807B4ACA807A4D1035CD810A8265
:101970004A82921C8A826A1FCA82FF2246320A83E6
:10198000754A4A83754A592111807449744D203132
:101990000D8043254D80734D5582D5228A80FF22CC
:1019A000D3320A81704A4A81704A8A81714A7049E9
:1019B00011805E49704A60394A80CA8810252A43DE
:1019C000CA80674A0A3A0A81584D6C4A403D6A808B
:1019D000638208224A815249604A0988403A11824A
:1019E0004E49674A0988118066490978002901D063
:1019F0003021018330BD4008704700B58BB0624A8A
:101A00004262624A8262624A4261624AC262624AD7
:101A10000260624A0262624A4260624AC261424AAB
:101A200040480021106040484038026B03129A433E
:101A30000263426B1F231B049A4303231B04D21827
:101A4000426359480268C3129A4302600268031352
:101A50009A43026068464154491CC9B22829FAD306
:101A600001462822514802F0E9FEFFF753FF02F039
:101A700049FE4F490880002002F04AFE02F04EFE67
:101A80000BB000BD10B5284A0F212648090210608E
:101A900025484038426B1F231B049A4303231B0431
:101AA000D218426300060268D208D2000260052004
:101AB0000007028992089200521C028102890823C1
:101AC0001A430281028A0A430282FFF723FF394840
:101AD000006F0078002804D0374800881349603927
:101AE000C880012002F0C0FD10BD26480078704774
:101AF0002449012008701249302008837047214989
:101B0000002008700E49088370470000A08601007D
:101B1000087F0400200000500080004056020800AA
:101B20004A0308004C05540780000040602C005018
:101B30007F7F0000AC29000000220050090900004E
:101B4000002400502204000030D00000EE110000FC
:101B5000002500502E0200004420000040280050C4
:101B60000D95000002420000E4DC0000109200002D
:101B700053780000002A00508B1000009DD5000013
:101B8000002600507C810020F7180020FB18002060
:101B90000119002005190020FD180020131900204C
:101BA000FF180020F7190020000200402000080064
:101BB00078040800E001002052040800704710B5C6
:101BC000032800D10420FA4C4001001949000818EC
:101BD0001A43C28010BD032800D10420F44A4001FA
:101BE000801801228A4082807047032800D1042097
:101BF000EF4A4001801801228A404280704770B548
:101C000006460498144600280D46304602D0FFF7D9
:101C1000ECFF01E0FFF7DFFF224629463046FFF7E1
:101C2000CEFF70BD10B5002807D0431EE04C5B000E
:101C300070341B19012802D002E00023F6E70831B6
:101C4000188801248C40A0438A4002431A8010BDAA
:101C5000032800D10420D64A4001801800880122C0
:101C60008A40104000D001207047FFB581B0D1A15B
:101C70000968D14D864600910B98AF899C4616465F
:101C8000133EFF210131B1408F43002801D00123D1
:101C900000E00023CC0701D0002438E08C0701D5F8
:101CA000012434E04C0701D5022430E00C0701D5B3
:101CB00003242CE0CC0601D5042428E08C0601D5B1
:101CC000052424E04C0601D5062420E00C0601D5AD
:101CD00007241CE0CC0501D5082418E08C0501D5AB
:101CE000092414E04C0501D50A2410E00C0501D5A7
:101CF0000B240CE0CC0401D50C2408E08C0401D5A5
:101D00000D2404E04C0401D50E2400E00F24A34070
:101D10001F43AF81AB899B099B010343AB812B8A96
:101D20008B43C80701D0002038E0880701D5012087
:101D300034E0480701D5022030E0080701D5032030
:101D40002CE0C80601D5042028E0880601D505202E
:101D500024E0480601D5062020E0080601D507202A
:101D60001CE0C80501D5082018E0880501D5092028
:101D700014E0480501D50A2010E0080501D50B2024
:101D80000CE0C80401D50C2008E0880401D50D2022
:101D900004E0480401D50E2000E00F200A9981409C
:101DA0000B432B822B8A01210846B0408343C40792
:101DB00001D0002038E0840701D5012034E0440739
:101DC00001D5022030E0040701D503202CE0C40631
:101DD00001D5042028E0840601D5052024E044062E
:101DE00001D5062020E0040601D507201CE0C4052B
:101DF00001D5082018E0840501D5092014E0440528
:101E000001D50A2010E0040501D50B200CE0C40424
:101E100001D50C2008E0840401D50D2004E0400425
:101E200001D50E2000E00F206446844023432B821E
:101E30006148530040381818438B6D4674462D5D39
:101E40009B09029C9B012C19234343839007C40EDA
:101E5000FF23A3408020A040002A0BDA1407240FA0
:101E6000083CA508554CAD002C19E5699D43054378
:101E7000E56107E09508524CAD002D192C689C4394
:101E800004432C60D006C00E81404E48016005B06E
:101E9000F0BD49490A8A0121133881400A40C80728
:101EA00001D0002038E0880701D5012034E0480740
:101EB00001D5022030E0080701D503202CE0C80638
:101EC00001D5042028E0880601D5052024E0480635
:101ED00001D5062020E0080601D507201CE0C80532
:101EE00001D5082018E0880501D5092014E048052F
:101EF00001D50A2010E0080501D50B200CE0C8042C
:101F000001D50C2008E0880401D50D2004E0480428
:101F100001D50E2000E00F20C240D0B2704710B5AE
:101F2000254C238A0122133882409343D00701D0E5
:101F3000002038E0900701D5012034E0500701D59A
:101F4000022030E0100701D503202CE0D00601D597
:101F5000042028E0900601D5052024E0500601D594
:101F6000062020E0100601D507201CE0D00501D591
:101F7000082018E0900501D5092014E0500501D58E
:101F80000A2010E0100501D50B200CE0D00401D58B
:101F90000C2008E0900401D50D2004E0500401D588
:101FA0000E2000E00F2081400B43238210BD000073
:101FB0000030005001090F190014005000ED00E03E
:101FC00000E400E000E100E010B5364CE3890122B6
:101FD0001146133881408B43C80701D0002038E0F8
:101FE000880701D5012034E0480701D5022030E000
:101FF000080701D503202CE0C80601D5042028E0FD
:10200000880601D5052024E0480601D5062020E0F9
:10201000080601D507201CE0C80501D5082018E0F6
:10202000880501D5092014E0480501D50A2010E0F3
:10203000080501D50B200CE0C80401D50C2008E0F0
:10204000880401D50D2004E0480401D50E2000E0ED
:102050000F2082401343E381A8E7134A80008018D1
:1020600080384163704710B50446FFF7ADFF0E4955
:10207000A00040188038406B002801D0804795E7C9
:10208000E106C90E01208840084908608EE7132048
:10209000E9E71420E7E71520E5E71620E3E7172036
:1020A000E1E70000001400504C80002080E200E0D6
:1020B00030B4734C72497348603409E043681A784D
:1020C0000A6002685B1C521E0CC00838002A05D04A
:1020D000A28B9207D20FF1D130BC70470022426030
:1020E0004B680224A3434B6081680029F4D08260CE
:1020F00030BC0020084730B5614A93898024A3434F
:10210000938107231381002393809589254395812B
:1021100093809380108091819089A04390815A4947
:10212000A0010860594A1168FF242402A143440019
:10213000214311605449803908605549086051486D
:1021400003760361C3604360036030BDD3E74C494D
:102150002220086170474A4922200861704708B56B
:10216000474901204A695206D20F13D04A699206A4
:10217000D20F0FD000220A610092FF225F32009B33
:102180005B1C00939342FAD34A69D207D20F02D064
:1021900022200861002008BDE1E73948A021016143
:1021A00041698906C90FFBD041694906C90FF7D0BB
:1021B0007047F2E7334B5A61D9601861304801210A
:1021C00042688A430A4342607047F3E710B52D4CDA
:1021D000A26021606060FFF76BFF6068002805D097
:1021E00027494868022290431043486010BDEDE73C
:1021F00010B5234881680907090F01291AD002295F
:102200001CD0042917D00C2914D11E4A117E012993
:1022100010D141690906C90F0CD00021D1601161AC
:1022200083885B085B0083805369002B02D0012008
:102230005161984710BD00F005F810BDFFF738FF59
:1022400010BDD5E70F490E4809E002680B691A7006
:10225000CA685B1C521E0B61CA60002A04D0426926
:10226000D207D20FF1D1704700220A6143685B08A0
:102270005B0043604B69002BF5D000204A61184792
:10228000001100508081002080E100E00CE400E0BB
:1022900080E200E008430121890303460B434349E0
:1022A0000B80434B18430880092002434A80704743
:1022B0003E490A880F239B0100079A43800D024381
:1022C0000A807047394900200880704737483949EB
:1022D000028802231A430280491E02D30288920711
:1022E000FAD400210181408970470AE000BF00BF95
:1022F00000BF00BF00BF00BF00BF00BF00BF00BFE6
:1023000000BF401EF2D2704770B50222510204464F
:102310004E003046FFF7BEFF1420FFF7E6FF002C0B
:1023200001D0092000E00720FFF7C2FFFFF7CEFF32
:1023300005460120FFF7D9FF022200213046FFF7B2
:10234000A9FF002C01D0092000E00720FFF7B0FF13
:10235000FFF7BCFF4019154A0021118070BDF0B590
:10236000124C154820801420FFF7BFFF01256D0295
:10237000A580E5802088E9000843208020888E1011
:10238000B0432080FFF7A2FF07462088304320801B
:10239000FFF79CFF0246780071424018281A52004D
:1023A0005118691AA080E180F0BD000000150050AE
:1023B00001400000A08601000148000008B5892105
:1023C0000520000701810121614A4903118001882C
:1023D00080221143018001888908890001805D48BD
:1023E000018A022211430182FFF794FA02F0CEFA29
:1023F00002F0D2FA0020694601E00888401C0880FB
:1024000008889128F9D308BD08B5534900200880F1
:102410004880534A514BD380FF23D2331381C88065
:10242000C32151804F4A082111806946088003E08A
:102430006A461188491C1180694609889129F7D399
:102440006946088003E06A461188491C1180694684
:1024500009889129F7D3694601E00888401C088063
:1024600008889128F9D308BD3F4A50809180012007
:102470001080D088C007FCD17047F1B5FFB0FFB025
:1024800094B011AC33480494008AA41C1090FFF758
:1024900095FF314801880F9141880E913049CA88D3
:1024A0000D920A890C92C2880B92408B0A902F4899
:1024B0004088099048888446FFF7A6FF00252B46F0
:1024C000FF2111A8FFF7D0FF00210A460846049E0D
:1024D000275C365C7E40F607F60F8E401643491C9B
:1024E000C9B2F2B2082906D1FFA9C96C4A556D1CC0
:1024F0000021ADB20A461030FF2680B2B600B042CD
:10250000E5D95B1C9BB2022BDAD3124910980882E2
:1025100014490020088010480F9901800E994180CD
:102520000F490D9ACA800C9A0A810B9AC2800A9AA6
:1025300042830E4A09985080604648800520000773
:1025400001888022914301807FB07FB015B0F0BD3B
:1025500000020040E0300050002400508080000065
:102560006028005020200050003500500026005008
:1025700039480078002802D00020C043704701206D
:102580003649400208600020704710B5FFF78AF90D
:10259000052000078088C0060BD5314801218180C5
:1025A00001888022914301802B484068002800D098
:1025B000804710BDF0B505242407A58810263543B3
:1025C000A580274C00252581D2B262802A46D700FB
:1025D0000546FD40EEB255002D196E810E46FE40B7
:1025E000F6B26E82521C042AF1DBE28903252D0229
:1025F0000004800FAA4300020243E281E08A09043A
:10260000890FA84309020843E0820120A080154AEF
:10261000410211609A06920E80322280124B1A6893
:10262000FF242402A243840322431A600A4A137837
:1026300003430A48137080380160F0BD06480178F2
:1026400049084900017006480121818001888022E3
:10265000914301808CE700009C81002080E100E034
:102660000001005080E200E008E400E010B54F48AF
:1026700041780078FFF7AFFA10BD10B54B484178AC
:102680000078FFF7B2FA10BDF8B50E461546474977
:102690000278079F0A7040781C464870FFF7EDFFEC
:1026A0000520000781880122D20211438180404821
:1026B00001884908490001800188FF228132914345
:1026C000F20111430180018840229143AA01114384
:1026D0000180018804229143A200114301800188F6
:1026E00002229143069A520011430180018801227F
:1026F00092039143BA031143018001881822914348
:10270000089AD200114301800188012211430180FF
:10271000F8BD27490A88520852000A800A88FF2318
:1027200081339A43C00102430A8008880122104382
:102730000880704710B51E4801884908490001808B
:102740000520000781880122D20291438180174829
:1027500041780078FFF749FA10BD1548018849080B
:1027600049000180704710B5114900230A88D2053D
:10277000920F012A01D9040C8C80488008888004BB
:10278000FCD50120C880012A01D988880304488823
:10279000C01810BD10B50446FFF768FF2046FFF7CC
:1027A000E2FF0446FFF769FF204610BD608000206D
:1027B0000012005030B5224B1C680825C907AC43F5
:1027C000090F0C431C6019680424D207A143520F5F
:1027D0001143196019680222C0079143800F014319
:1027E000196018480168C022090A090211430160F2
:1027F00030BD154B58809980DA807047FF2013490F
:10280000013008607047FF201049013080310860B6
:1028100070470F480068002800D00047704770B527
:10282000054614460E46012002F0D4F9284602F06F
:10283000DDF9304602F0F2F90348C48170BD0000B2
:102840000034005008E400E00034005000E100E0F3
:102850006480002010B50146002000F0E3F900205C
:1028600010BD10B504460146002000F0DBF92078C9
:1028700017302070002010BD38B505466946092084
:1028800000F0D0F96C460A20611C00F0CBF9A11CC5
:102890000B2000F0C7F9E11C0C2000F0C3F9002068
:1028A0002860601C01F000FD6946097800020843B9
:1028B0002860002038BD10B5B621142000F0C3F9FF
:1028C000002010BD08B501460F2000F0BCF9694694
:1028D0000F2000F0A7F96846007808BD10B5014642
:1028E000102000F0B0F9002010BD38B5044669464C
:1028F000112000F097F92146112000F0A4F90020E2
:1029000038BDFEB50E46074615466946022000F062
:1029100089F96C460320611C00F084F9A11C042095
:1029200000F080F9E11C052000F07CF9211D062053
:1029300000F078F9611D072000F074F968464078CE
:1029400001026846007880098001014339806846A9
:10295000C078010268468078800980010143318097
:102960006846407901026846007980098001014388
:1029700029800020385E801138800020305E801170
:1029800030800020285E801128800020FEBD30B5F8
:1029900005784478AD092402AD012C430C8085787C
:1029A000C478AD092402AD012C4314804479007928
:1029B00024028009800104431C800020085E8011ED
:1029C00008800020105E801110800020185E8011A9
:1029D000188030BDFFB583B005461F4669460F20FD
:1029E0000D9E0C9C00F01EF98249A81E88422FD231
:1029F000F9230498DB0098422AD8FF220598783200
:102A0000904225D8B81E884222D2684600780290AB
:102A1000032806D0052809D008280DD00C281AD183
:102A200011E09C4214D8964212D814E072488442B5
:102A30000ED87048EF3003E07048844208D87048E0
:102A4000864205D807E06F48844201D86E48F7E710
:102A5000012007B0F0BD6808401EC0B20190049884
:102A600001F0A0FF694A6A4B01F0B0FC01F042FDA1
:102A7000C6B27808401EC7B20298032806D00528BF
:102A80000AD0082828D00C2810D12BE0204601F0CD
:102A900089FF5E4A5E4B04E0204601F083FF5D4AF9
:102AA0005D4B01F093FC01F025FDC5B22220019998
:102AB00000F0C9F83146232000F0C5F8394624203B
:102AC00000F0C1F83946252000F0BDF8294626203F
:102AD00000F0B9F80020BCE7204601F063FF0022B7
:102AE0004E4BDEE7204601F05DFF00224C4BD8E75D
:102AF00010B50446C1B2162000F0A5F82004010E5E
:102B0000172000F0A0F82002010E182000F09BF81A
:102B1000002010BD10B50C460021002800D0012176
:102B2000002C01D004200143002A01D008200143D9
:102B3000002B01D010200143202000F084F8002059
:102B400010BD70B50C460546C1B2192000F07BF8E7
:102B50006805410F6009E022104001431A2000F08F
:102B600072F8E1B21B2000F06EF8002070BD7047D3
:102B700010B500F057F810BD10B500F064F8012151
:102B8000332000F060F80321332000F05CF80020CF
:102B900010BD10B50146302000F055F8002010BDE2
:102BA00080078907000E890F10B501433E2000F011
:102BB0004AF8002010BD0A4610B501463F2000F03B
:102BC000BBF8002010BD38B50D46044669460E20FE
:102BD00000F028F868460078000601D5012000E0E2
:102BE00000202070684600784006400E28700020C3
:102BF00038BD0000FF010000920F0000211F0000FF
:102C0000DC050000423E0000B80B00005C8FC2F5FE
:102C1000285C1F40C3F5285C8F422F4000403F4096
:102C200000404F4070B50C460546FFF71FFD802061
:102C30002843FFF798FD0020FFF795FD2070FFF770
:102C40001CFD002070BD70B50D460446FFF70EFD5B
:102C50006006400EFFF787FD2846FFF784FDFFF76B
:102C60000CFD002070BD30B5032585B000242D0279
:102C7000012107232A4608460094FEF7C0FF0623D9
:102C80002A46032100200094FEF7B9FF0523002205
:102C9000194601200094FEF7B2FF012000230090A6
:102CA0002A4606211846FEF7AAFF3048006804901D
:102CB0000520000781880122D20211438180002370
:102CC000009401941A46194604A80294FFF7DCFC0C
:102CD000FFF7D3FC03A8FFF7BDFDFFF7ECFDFF20D6
:102CE000F530FEF7A3F90820FFF7ECFD0B20FFF706
:102CF000F5FD1F48006801281CD03E20FFF7F5FDB8
:102D00003020FFF7F5FE10213020FFF71AFF0021D9
:102D10002120FFF798FF03A91320FFF783FF00216D
:102D20000220FFF73DFF1020FFF733FF6846007BCE
:102D300005B030BD0020E1E770B515460E460446EB
:102D4000FFF794FC204680210843FFF70CFD002488
:102D500006E00020FFF707FD641C2870A4B26D1C7C
:102D6000B442F6D3FFF789FC002070BD8C4E0020E2
:102D70000880002070B516460C46054601280FD184
:102D800006221749174801F013FE002808D0062232
:102D90001449304601F052FD06202070002070BD1D
:102DA00032462146284601F009FE70BD70B50E4836
:102DB0000E49C405228880252A4322800C4A538963
:102DC0001B0701D4401EFAD20A4A012010600622D5
:102DD000044801F033FD2088A843208070BD000026
:102DE000383E0300A4810020A0860100D47F0400A7
:102DF0002000005000800040F0B5614D85B0686D46
:102E000000260290FDF777FD5E4F002802D1387949
:102E1000022801D100200290FDF703FF00280DD108
:102E200001F0D2FD002809D0F87801260028FAD058
:102E300005242407A08AC00701D004269CE001F0E5
:102E400019FC00287ED150488069002801D0686DA7
:102E50000290B97802A8029D01F0BCFD002871D053
:102E60004848817802A801F017FC00286AD00027A2
:102E700046480295FDF7A0FE0546454A0120800719
:102E8000016A914202D2016AC829F9D8012080075B
:102E9000006AC82800D801273A48817802A801F0C2
:102EA00099FD002868D03748817802A801F0F4FB2A
:102EB000002861D00298002803D0002F01D0401EC6
:102EC00002903448FDF778FE334A014612781231F9
:102ED000022A00D11131314A5289421B0125AD0726
:102EE000EB6B9B0A9B021343EB63EA6B2C4B89024F
:102EF0001A400A43EA63E96BC902C90A4005014363
:102F0000E96302980426002801D0001D029001F018
:102F1000D5FA2449096801F0D1F901F0D6FA194926
:102F200000900979002900D0012101F059FD1E48C7
:102F3000C06A80470027FDF78BFE00280AD0208852
:102F4000302100E018E00843208020880321084356
:102F500020800127286B0004C00FFBD013480168B4
:102F6000C905FCD5002F01D0FEF79CFC01F03EFD09
:102F70002089802188432081304605B0F0BD0000C3
:102F800060020020C6060800A8050800540B0000D7
:102F9000260200001D0D0000540208002000005011
:102FA000FF03E0FF748100201C07080000020040BE
:102FB000F8B50546A648A849047BA648C969006833
:102FC00040300089884201D1002002E00002401C0C
:102FD00080B2060A1AE09E4800276038816E2E20D3
:102FE000604308188078C0060AD001F005FD01464C
:102FF0009A4AB000105864228256914200DA0127A2
:10300000384600F08FFF641C6407640F28466D1E6D
:10301000EDB20028DFD1F8BD10B50124A407A06BE4
:10302000FDF7CFFD8E4901F055FB27221201511A01
:1030300000D101218B4A50601160206B0821884328
:103040000843206310BD10B505200007418989079A
:1030500008D0418989088900418183494A885208FA
:1030600052004A800189802211430181018A042291
:1030700091430182818A8907FCD501F0C3FC0120BC
:103080008007016901694907FCD510BDF8B5774E85
:10309000F08800282DD10120F08075490820088093
:1030A00005273F077889800720D0B88A400701D5D7
:1030B000FDF765FC6C4D28888021084328806D4C05
:1030C000FF20608004202080FEF7E1FB7D21C90005
:1030D000E088A288000480188842F9D90520208061
:1030E000B088788029888020814329806249102017
:1030F0000860F8BD70B5FEF7D5FBFFF7A4FF00260A
:103100005A4C0520E6800007418A80221143418203
:1031100057480189490849000181D0058169042285
:103120001143816101F074FC534910208031012565
:10313000086001F073FC01F077FC1420FDF7AEFC91
:10314000494826704089800510D5607800280DD147
:103150004A4865700088C00708D10120FFF7D4F8FD
:103160008B218900884201D90220607070BD10B5A2
:1031700001F060FC00F065F83C490120087010BDCA
:1031800010B501208007008A000604D500F059F828
:103190001420FDF783FC10BD10B52F48C06CC0B2E1
:1031A000FFF706FF01F04CFC10BD10B501208007B1
:1031B000008A000718D532490120087025484E239F
:1031C0000068254A40300189126859432D4BC918BF
:1031D000515AC07C090A081AC0B2FFF7E9FE01F093
:1031E00035FC22490420087010BD70B526480088BF
:1031F00085062648AD0E44681748006F0078002801
:1032000002D1284601F028FC21480089174EC0054C
:1032100007D520060ED5E0070CD0284601F022FC89
:1032200003E0200606D5E00704D0154901204860D8
:1032300003203070200403D5E00501D50220307052
:1032400070BD10B509490120887001F011FC10BD56
:10325000380308006C030800E00100204C0308005C
:10326000710200004000004020000050AA810020B0
:10327000003300500016005000E200E0001500503E
:10328000688000204A000800002000500002004032
:10329000002C005010B5DC21484801F0EFFB4849F4
:1032A000362001F0F1FB0021362001F061FA10BD5B
:1032B000FEB5002668468680404C009660896A46C6
:1032C000801C80B201A901F0E5FB684680880228D5
:1032D00012D1009800280FD0007800280CD0E18887
:1032E00001233622374801F0E5FA00990978218256
:1032F000067001F0F1FA07E0E68132482682E188A3
:103300003622401C01F0CCFB0098002800D0007849
:1033100069460881A6810A2702AA0221032001F03A
:10332000C5FB00256189A800C01D081880B202AA4B
:10333000022101F0BBFBA0896D1C401CA081BD4295
:10334000F0DB68460089002800D1A681FEBDFEB5ED
:103350000646002768468780184C0097E0896189F7
:103360008000C01D08183D4680B26A4601A901F0E0
:1033700091FB0098002817D00088002814D0E0891D
:1033800061898000801D081880B23246142101F046
:103390008DFBE08961898000801D081882B20021C0
:1033A000204600F095F90127E089401C80B2E081B9
:1033B0000A2800D3E5813846FEBD00007080002059
:1033C000904E002003D800003EB50020C043B04C12
:1033D0000290E38008886081AE4801900092204608
:1033E00000232D2202A90A3001F066FB0546608900
:1033F000002101F067FB002D03D10121362001F0EF
:10340000B7F9E18801233622A34801F053FA057089
:1034100001F062FA00203EBDF8B5002568469C4CDC
:10342000058062802380E3800E46488801F050FBCF
:10343000207170882081E581A581984825820079D6
:103440009749801F087060896A46801C80B20221FB
:1034500001F02CFB60896A46C01D80B2022101F098
:1034600025FB60896A460B3080B2022101F01EFB09
:1034700060896A460F3080B2022101F017FB608933
:103480006A46133080B2022101F010FB60896A465F
:10349000173080B2022101F009FB60896A461B30B7
:1034A00080B2022101F002FB60896A461F3080B2BF
:1034B000022101F0FBFA60896A46233080B20221C2
:1034C00001F0F4FA60896A46273080B2022101F0E7
:1034D000EDFA60896A462B3080B2022101F0E6FAEB
:1034E0006089012101F0EEFA0221362001F040F955
:1034F0000020F8BD10B50121362001F039F9002077
:1035000010BDFFB583B000276846614E0781308A41
:10351000002852D004986249057860480024007958
:103520000870009442E00197F18970898900C91DF3
:10353000401880B201AA02A901F0ACFA0198002853
:103540001CD00088002819D0F08971898000801D66
:103550000818214614225143049A80B28A18142173
:10356000921C01F0A3FAF08971898000801D08186F
:1035700082B20021464800F0ABF802E00221684622
:1035800001814748641C01786D1E491E0170F08955
:10359000A4B2401C80B2ADB2F0810A2801D3F781F9
:1035A0000AE00098401C00900A2805DA002D03D09C
:1035B0003B4800780028B6D1002007B0F0BDF8B530
:1035C0000C46334D088869892646411A891E0836FB
:1035D0000B0001F0BBF82A165B5B5B423B5B5B4276
:1035E0003B5B5B423B5B5B423B5B5B423B5B5B420F
:1035F0003B5B5B423B5B5B423B5B5B423B5B5B42FF
:103600003B5BA2886188334601F068FA2188287AFA
:10361000002201F069FA224862883146401C01F01C
:103620000DF968896188801D80B2324601F03EFA4A
:1036300068890021801D82B2154800F049F8618830
:10364000304600F0D2FD00F0F0FD1FE02B7A01467D
:103650000022184601F048FA18E00F4829881A237A
:10366000401C01F027F90746287901F043FA388019
:1036700020887880207A3871A07878716288314605
:10368000B81D01F0DBF8384601F026F90020F8BD3E
:1036900070800020F84E002006D800001E050800AB
:1036A00020900020F8B514460F461E460546428875
:1036B00001880623204601F0FDF80446287901F030
:1036C00019FA208027716680204601F005F9F8BDBF
:1036D00070B51446428800790D4601020423214842
:1036E0000C3101F0E7F8002D01D0132100E0122188
:1036F0000170448001F0F0F870BD0A880270120A6F
:1037000042708A788270CA78C2700A7902714A79E6
:1037100042718979817107207047427803781202DB
:103720001A430A8082788A70C278CA7002790A7154
:1037300042794A71807988710720704710B5FFF788
:10374000A9FD10BD70B5064615460C46362000F0A2
:10375000F7FF022805D1E2B236232946304601F0B0
:10376000CFF970BD0D30000038B5012468460470F3
:103770000C21494801F082F9474D6946EC702A1D39
:10378000352001F0C3F9002800D02C7100F08EF82C
:103790004249322001F078F90021322000F0E8FFA0
:1037A00000F010FA38BD10B500F016F910BD10B5D4
:1037B0003948022380783222010239480E3101F063
:1037C00079F8012101701321417001F085F810BDD5
:1037D00010B5044630482C2380783222010230484C
:1037E0000E31801E01F066F801462030047200227E
:1037F0004272084601F070F810BD10B55023322215
:103800000D21284801F056F8044600F06FF82046D4
:1038100001F062F80221322000F0AAFF10BD214819
:1038200010B5012332220D210B3801F043F802219B
:10383000017001F051F810BD10B500F0E1F810BDB5
:10384000194B10B59A4201D91A4602E0002A00D15C
:10385000012201F061F910BDF8B506461148154680
:103860000F46252332220D21C01C01F023F8044607
:10387000012020772046062239461D3000F0DEFF69
:103880002320065565822582204600F0E3F8204675
:1038900001F022F8F8BD0000B28100205C51002048
:1038A000043800000E340000307500007047704787
:1038B00070B59D4D0446A878FF2814D000F0E8FAB2
:1038C0000521322000F054FF21882980617A697136
:1038D000214606220A31A81D00F0B0FF93488078E7
:1038E000FFF776FF70BDFFF788FF70BDF0B50446A7
:1038F00093B00E202070002565708D48A081E08176
:1039000007202074012060741C20E07427462246A2
:103910001F202037143238741646511E0B2001F038
:10392000F5F8002805D02A46E57482A1304600F05B
:1039300085FF22463132511E0C20119201F0E6F82B
:10394000002805D03D742A467CA1119800F076FF2E
:10395000E07C1A21081A45B2002D2FDD3E20694671
:10396000087001AA022001F0D1F8002806D00D222B
:103970006846027072A101A801F0D4F86846007888
:1039800000281BD0A84200D2054668460570E07C9E
:103990006D1C8555E27C2046092115301154E17CCF
:1039A000401C0B186846027801A9184600F046FF33
:1039B00068460078E17C801C0818E07413B0F0BD04
:1039C00010B500F0BDFE032803D0052801D004285F
:1039D00001D1FFF712FF10BD70B500245C49022031
:1039E0000870514DE878022807D2012801D100F073
:1039F00043FAE878401CE87000E00124204670BDDE
:103A00007047032008700A2048700020488208751B
:103A100048751722CA8208220A8310224A838883A3
:103A20006422CA8320310870704710B5012132200A
:103A300000F09EFEFFF7B7FE002801D0FFF7DDFE85
:103A400010BD704770477047704710B5FFF7D5FE3F
:103A500010BD704770477047704710B532481E233D
:103A60008078322201023B480E3100F023FF012111
:103A700001704170C1701022427103228270017185
:103A8000002202728171C17100F026FF10BD1FB5C6
:103A900031A30FCB6C460FC423481E2380783222FB
:103AA00001022C480E3100F005FF04462848102280
:103AB00044606946A01C00F0C1FE04202070012073
:103AC0006070204600F008FF1FBD7047704770B55A
:103AD00005461E2332220E211E4800F0EBFE04464E
:103AE000687800F04AF807202070104901206070C3
:103AF0002039887E2077088B60822046082210318A
:103B0000143000F09BFE094910222039A01C00F05F
:103B100095FE204600F0E0FE70BD70470120704722
:103B20007047704770470000B2810020DE8100209E
:103B30004C040000070103180000000002FF000011
:103B4000444131343538302054454D504C0000004C
:103B5000508100201438000000010203040506070C
:103B600008090A0B0C0D0E0F10B500F0E1FF2549F6
:103B700000F0E0FD2448081810BDF8B5234D0646B6
:103B8000A876002400F0D4FF2919641CE4B208745C
:103B9000082CF7D300241027381BB04201DD002089
:103BA00007E000F0C5FFC117090E0918090A09024C
:103BB000401A2855641CE4B2102CEDD300F0B8FF75
:103BC0002883F8BD10B52421104800F057FFFFF7F7
:103BD0006EFE10BD10B50E4802238078322201021D
:103BE0000C480E3100F066FE0D21017007492031AE
:103BF0008978417000F070FE0321322000F0B8FD9A
:103C000010BD0000A0BB0D00A0860100BE810020F9
:103C1000B28100201A38000010B5084609781C4609
:103C20000B0000F093FD080520202008181B1E2023
:103C3000FFF713FF17E04178012904D0002902D0D3
:103C4000022903D00FE0FFF722FF0CE011462046C7
:103C5000FFF768FF07E0FFF738FF04E0FFF736FFE4
:103C600001E0FFF734FF002010BD10B50878304C9C
:103C7000801E030000F06AFD020214188878A0700C
:103C8000C0070AD02B492A4A4879203AD0762848DA
:103C90000622001F891D00F0D1FDFFF73EFF03E063
:103CA000FFF785FD0020A070002010BDF8B5184674
:103CB0000D4601461223204800F0FCFD044628462C
:103CC000FFF72CFF0027002821D0194EB078C0073D
:103CD0001DD030460822A91C103800F069FE0028CB
:103CE00015D130462038018B2A8891420FD101210D
:103CF0002170807E6074314610222039601C00F0F3
:103D00009DFDB078FFF764FDFFF70BFF00E0277023
:103D1000204600F0E1FD2078002801D1FFF747FDA3
:103D20000020F8BD10B5FFF7FBFE002010BD00001D
:103D3000DE810020B28100201838000010B5104646
:103D400000F0FEFC002809D1012332220D21484851
:103D500000F0B0FD0121017000F0BEFD002010BD9B
:103D600070B5087815460F282DD008DC01280DD035
:103D7000022834D003281CD00E2830D11FE0102890
:103D800025D0112823D0122829D123E048780028F3
:103D900025D13748222332220D21801C00F08AFDD4
:103DA000044601462846FFF72CFE204600F094FD0D
:103DB00015E04878002812D1FFF737FE0FE0487869
:103DC000FFF741FE0BE04878FFF73EFE07E0FFF704
:103DD00040FE04E04878442801D1FFF73DFE002072
:103DE00070BD70B51C4610460D4600F0A9FC0228B7
:103DF00005D12049200A88702846FFF759FD002088
:103E000070BD70B5087815460C460A2810D11046CA
:103E100000F096FC04280BD16078002802D0FFF750
:103E200010FE05E00521284600F0A2FCFFF70AFE7F
:103E3000002070BD10B51046FFF7C2FD002010BD78
:103E400010B510460C4600F07BFC012808D1207804
:103E5000002805D1FFF7A7FC002801D0FFF7F5FDEA
:103E6000002010BD10B50846FFF7F5FD002010BD7D
:103E700002340000B281002010B502233222362124
:103E80000B4800F017FD0021018000F025FD10BD5A
:103E900010B5362104233222880200F00BFD3221B6
:103EA000018004490988418000F016FD10BD000022
:103EB00005D80000B281002010B510460C4600F075
:103EC0003FFC012809D1322201231146900200F063
:103ED000F1FC2178017000F0FFFC002010BD10B54E
:103EE000487900F026F8002010BD00001121821F43
:103EF0000C2A05D2A34A41008A18403A3421515E67
:103F0000A14A508088B21080411C083A1160704765
:103F100010B512219D4800F0B1FD9D489B49808855
:103F2000888110BD002803D098494889401C4881E9
:103F300070479649CA88521CCA800A89101808819D
:103F4000704770B5914CE089401CE081E0898E4952
:103F50004D88FF216843913188421FDB12222146A0
:103F6000881800F06BFC1221204600F087FD2146E6
:103F700012318889A081A089C889122268430880EB
:103F8000A089101A4A88121A4A808B881422424348
:103F90009B1A8B806080A2800120087470BD10B5D0
:103FA000FF2191317B4800F079FC7A480021001F05
:103FB0004170017010BDF0B5764D964602462D1F3A
:103FC00068782E1D07018C46BC19E17B002902D0C0
:103FD0000020C043F0BD0121E173F2516146A1739D
:103FE00071466160A3810599A160411CC9B26970E5
:103FF0001929EFD300216970F0BD192802D30020E0
:10400000C0437047634900014018C07B704770B5DA
:10401000044661482C238078322201020520800268
:10402000491D00F047FC050019D00420A880207B22
:10403000A871A0882881A27B6A8128460C3021685B
:1040400000F0FCFB284600F047FCA07B00F092FD4E
:104050000020E073A268002A01D003CC904770BD15
:10406000F8B54C4C0146241F2078251D000140194D
:10407000C07B002700281CD045488088012818DD17
:10408000461A14E0207800014019FFF7C0FF20789D
:10409000761E401CC0B27F1C2070192801D300205E
:1040A00020700006000D4019C07B002801D0002EB2
:1040B000E8DC3846F8BD70B5354933488C881221A4
:1040C0000B1B3449304A091F08388D78083A40687C
:1040D0001268002D01D0A01A401C012800DA01202E
:1040E000934201DD012200E000228A70C0B2FFF796
:1040F000B7FF264A211A918170BD70B52449244A20
:104100008C88214912260839096892880020331BBF
:104110001E4D92B28B4209DA112C04DA1D4B1B1F83
:104120009B78012B02D0701A02D004E0AA8170BDE6
:10413000122900D00120C0B2FFF792FF211AA981F5
:1041400070BDF8B5154C00272078154E3D46012866
:1041500003D03168012909D012E0FFF7CEFF0746EE
:10416000022035602070FFF7ECFE09E0022807D13D
:10417000FFF7A1FF074635602078022800D125709F
:104180003846F8BDDC51002030520020CC91002090
:104190001E0508003C900020B281002068800020AD
:1041A0006C8000201CB539A30CCB0092020901934E
:1041B0006B46303200079A70000F3730D87008090C
:1041C000303018710807000F3030324C5871608958
:1041D0006A460821801D00F069FC628900212046A2
:1041E000921DFFF775FA00201CBD01468A78002059
:1041F000312A0AD0342A11D0352A05D1C97841296B
:1042000011D0422900D15B207047C978412903D0E1
:104210004229F9D11B2070471A207047C9784129DB
:10422000FBD14A2070475A20704770B50021012405
:10423000194A1A4D4A281ED008DC002820D01A2816
:1042400011D01B280ED12970116009E0144B5A2897
:1042500013D05B2806D119601160124829700160E3
:10426000FEF701FD70BD1460FEF7FDFCC820FCF7F1
:10427000DDFE2C7070BD297070BD1C601460EFE70E
:104280000120C00305210907488270BD31310000BB
:104290000000383870800020088000201480002042
:1042A000588100200C8000200321001D401E03784F
:1042B00012021A43491EF9D510467047024670B5DE
:1042C0004A40D30FDB0740002DD04A002AD0010E10
:1042D000140E000212020919400A520A8418E5015C
:1042E00004465443000A120A2E045043A4194219EA
:1042F000200CC543AA18120C0125AD03521C5219FB
:1043000012047F39240400D0521C104301D4400011
:10431000491EC2B20C06C0092018401C4008802A61
:1043200002D003E0002070BD40084000002900DA00
:104330000020184370BD70B502464A40D50F4000BA
:104340004A00ED0740085208002814D0002A12D075
:10435000C40DD30D41020120C0055202490A520A80
:10436000E41A091812187D34914201D3641C00E04C
:104370004900002C01DA002070BD0023914201D3D6
:10438000891A0343400849000028F7D100290AD0C0
:10439000914202D10121C90705E0914201D20121D8
:1043A00001E00121C943E005C018401900F0F0F810
:1043B00070BD420005D04200120E52428A4201DB1B
:1043C00000207047C905081870470000F0B50C467A
:1043D0005C4085B0E40FE40703944C0000266408B9
:1043E00059009446490802460296224321D062466B
:1043F0000A431ED06200570D4A000E032303550DD9
:10440000012402462C492405781B1B0B360B40184F
:1044100023432643614600901C46501AB44103D3FF
:104420000098401C009002E0921800985B41002820
:1044300003DA0020014605B0F0BD00200121090586
:104440000746864611E064461D46141BB54106D357
:104450006546521BB341744607430C43A646CD073D
:1044600040084908284392185B4105460D43EAD1AC
:104470001046184313D06046194650407140084317
:1044800006D06046101AB34106D20122002306E08E
:1044900000220123DB0702E00122D24353100098DF
:1044A00074460105381C6141029C039D0019694155
:1044B00000F044FBBFE70000FD03000010B5002240
:1044C0009623114600F06CF810BD41004002012215
:1044D000400AD205090E80187F2901DA00207047B2
:1044E000962903DC9622511AC840704796398840B5
:1044F000704700004A0009030123090B1B051943FB
:10450000094B10B5520D9A4201DA002010BD064B3E
:1045100034339A4203DC9A1A00F016FB10BD0349AB
:104520005118884010BD0000FF030000CDFBFFFFC5
:10453000C20FD207400040080BD0C10D0723DB019A
:10454000C91840020905400A1143C2084007114337
:104550007047002001467047CB0FDB07490010B5BC
:10456000490802460A4307D00A0D07240903E4015B
:10457000090B121B002A01DC002010BDC900440FEA
:104580000C43C100E018D205801800F001F810BDFE
:10459000002904DA401C490001D14008400070475E
:1045A00070B40024050C05D11024000402D10029A8
:1045B00021D01124050E01D100020834050F01D1CC
:1045C0000001241D850F01D18000A41C002801DBFF
:1045D0004000641C002908D020252E1B0D46F54004
:1045E000A14000D001212943084301061B1B000AFA
:1045F000DB1D02D5002070BC7047DB051818801841
:104600000029F8DA401C4900F5D170BC4008400090
:1046100070470000064C0125064E05E0E36807CC14
:104620002B430C3C98471034B442F7D3FBF70CFFF4
:10463000F45100202452002003B40148019001BD30
:10464000551B020003B40148019001BD0F3B03005C
:1046500003B40148019001BDCF2B030003B401480E
:10466000019001BDCB2C030003B40148019001BDB2
:104670000990020003B40148019001BDC12D03005F
:1046800003B40148019001BD0921030003B40148AE
:10469000019001BDC92D030003B40148019001BD83
:1046A0002B69020003B40148019001BDEB31030006
:1046B00003B40148019001BD3D32030003B4014839
:1046C000019001BDD721030003B40148019001BD51
:1046D0001F21020003B40148019001BDA73A030065
:1046E00003B40148019001BD913B030003B40148AC
:1046F000019001BD2F2F030003B40148019001BDBB
:10470000998F020003B40148019001BD938F02000C
:1047100003B40148019001BDCD8C020003B40148EF
:10472000019001BD418F020003B40148019001BD19
:10473000B780020003B40148019001BDD33A0300E1
:1047400003B40148019001BDB326030003B401483E
:10475000019001BDFD3D030003B40148019001BD7E
:10476000A528030003B40148019001BDD5AF0200A4
:1047700003B40148019001BD3126030003B4014890
:10478000019001BDA1A5020003B40148019001BD43
:10479000E3A5020003B40148019001BD87A802000F
:1047A00003B40148019001BDA7A9020003B4014868
:1047B000019001BD93AA020003B40148019001BD1C
:1047C00095AB020003B40148019001BDF9AB0200B2
:1047D00003B40148019001BD69AC020003B4014873
:1047E000019001BD17AD020003B40148019001BD65
:1047F00077AD020003B40148019001BDF1AD0200A4
:1048000003B40148019001BD85AE020003B4014824
:10481000019001BD11AF020003B40148019001BD38
:104820003350020003B40148019001BD5548020015
:1048300003B40148019001BD1F50020003B40148B8
:10484000019001BD213B030003B40148019001BD6B
:104850007F0C030003B40148019001BDAB0C0300C1
:1048600003B40148019001BDBF22020003B4014816
:10487000019001BDEB26030003B40148019001BD86
:104880003524030003B40148019001BD2F2202002A
:1048900003B40148019001BDDD20030003B40148C9
:1048A000019001BD533B030003B40148019001BDD9
:1048B0009D20030003B40148019001BDB123030012
:1048C00003B40148019001BD49E5020003B4014869
:1048D000019001BDF9E3020003B40148019001BD5C
:1048E000E123030003B40148019001BD4BCD020058
:1048F00003B40148019001BD99D1020003B40148FD
:10490000019001BDABD0020003B40148019001BD8C
:1049100069D0020003B40148019001BD77CF0200C5
:1049200003B40148019001BD01CC020003B4014869
:10493000019001BD29CC020003B40148019001BDE2
:1049400015D2020003B40148019001BD8DD20200CE
:1049500003B40148019001BDB938020003B4014815
:10496000019001BDCD44020003B40148019001BD96
:104970007758020003B40148019001BDD72203001B
:1049800003B40148019001BD2D42020003B4014867
:10499000019001BDF38E020003B40148019001BDF6
:1049A000218E020003B40148019001BD893C03003F
:1049B00003B40148019001BD773B030003B40148F3
:1049C000019001BDD729030003B40148019001BD46
:1049D0007920030003B40148019001BD212903009F
:1049E00003B40148019001BDC768020003B4014847
:1049F000019001BD0D2C030003B40148019001BDDD
:104A00004975020003B40148019001BD652C030003
:104A100003B40148019001BDDB2E030003B401483B
:104A2000019001BD231D020003B40148019001BDA6
:104A3000C32C030003B40148019001BD15310300EC
:104A400003B40148019001BD3B66020003B4014874
:104A5000019001BD2B66020003B40148019001BD25
:104A6000038D020003B40148019001BDCF8F020005
:104A700003B40148019001BD1B66020003B4014864
:104A8000019001BD533B030003B40148019001BDF7
:104A90008725030003B40148019001BDA59B0200D6
:104AA00003B40148019001BD0D24030003B4014883
:104AB000019001BD6D9B020003B40148019001BD4E
:104AC000459F020003B40148019001BD7B9C020098
:104AD00003B40148019001BDB7E3020003B40148EB
:104AE000019001BD2B9B020003B40148019001BD60
:104AF000F3AF020003B40148019001BDE3E30200FB
:104B000003B40148019001BD95E3020003B40148DC
:104B1000019001BDD129030003B40148019001BDFA
:104B20002528030003B40148019001BD213B030087
:104B300003B40148019001BDFD3A030003B40148EC
:104B4000019001BDCD3C030003B40148019001BDBB
:104B5000AD3D030002E008C8121F08C1002AFAD1C7
:104B600070477047002001E001C1121F002AFBD1ED
:104B70007047000003494A88521C4A808A881018EE
:104B800088807047CC91002004490A688007920809
:104B90009200800F02430A6070470000040000503A
:104BA00004490A680823C0079A43000F02430A60B9
:104BB0007047000004000050014908607047000081
:104BC000648000200248016801221143016070479F
:104BD0000034005004490A68C00752085200C00F50
:104BE00002430A60704700001034005004490A680C
:104BF0000423C0079A43400F02430A607047000035
:104C00001034005001490881704700000034005002
:104C10000149C881704700000034005004490A6807
:104C20000223C0079A43800F02430A6070470000C6
:104C30001034005010B50020FFF7CCFF10BD00006D
:104C400001494860704700009C8100200101000A72
:104C500004280A040203AA0055032A00A001FFFF4A
:104C60002C010000E90C0020D5100020BD1400200C
:104C70007B150020A9150020C1110020251200205D
:104C80008512002005040000BD1700200604000066
:104C90009339020007040000D9390200080400001B
:104CA0001F3A020002040000B73B020000040000AB
:104CB000093C0200040400006F3C020003040000F1
:104CC000D93C0200010400004B3D02000904000031
:104CD000D73A02000A040000413B02000B04000026
:104CE0004D3F02002104000099420200260400000A
:104CF000EB47020000080000EF3F02003F00000009
:104D0000CF4102004B000000C93D02004E000000F0
:104D1000213E0200230400007F3E02002404000024
:104D2000B93E0200270400009B4302002804000053
:104D3000C5430200250400003D4302002B0400008F
:104D4000F14302003104000011440200320400006B
:104D500059440200350400008D440200290400007B
:104D6000D71700202A040000254502002C0400006B
:104D70006D4502002D040000F74502002E040000DE
:104D80002B4602002F04000063460200330400009B
:104D90009346020034040000154702003604000068
:104DA0004547020030040000974702000108000058
:104DB0002D42020001080000F11700200008000049
:104DC000EF3F0200000000000000000000000000B3
:104DD00000000000000000000000000000000000D3
:104DE00000000000000000000000000000000000C3
:104DF00000000000000000000000000000000000B3
:104E000000000000000000000000000000000000A2
:104E10000000000000000000000000000000000092
:104E20000000000000000000000000000000000082
:104E30000000000000000000000000000000000072
:104E40000000000000000000000000000000000062
:104E50000000000000000000000000000000000052
:104E600000000000B44D002002000000000000001F
:104E700000000000844C002026000000C44D0020EB
:104E8000744E0020640308001600060000060000AF
:104E90003C510020545100204C81002003000100AF
:104EA000A0FF060000A1FF160000A2FF160000A34D
:104EB000FF160000A4FF160000A5FF160000A6FFC5
:104EC000160000A7FF160000A8FF160000A9FF1695
:104ED0000000AAFF160000ABFF456E61626C652002
:104EE00053747265616D44617461204465766963D1
:104EF00065004461746100000028010002000200A6
:104F0000A04E00200328010005000500A24E00204D
:104F1000A1FF09001400000000000000022909029E
:104F20000200000000000000012901001800180024
:104F3000D94E00200328010005000500A74E0020DF
:104F4000A2FF09021400000000000000022909026B
:104F5000020000000000000001290100040004001C
:104F6000F24E00200328010005000500AC4E002091
:104F7000A3FF09021400000000000000022909023A
:104F800002000000000000000129010004000400EC
:104F9000F24E00200328010005000500B14E00205C
:104FA000A4FF090214000000000000000229090209
:104FB00002000000000000000129010004000400BC
:104FC000F24E00200328010005000500B64E002027
:104FD000A5FF0902140000000000000002290902D8
:104FE000020000000000000001290100040004008C
:104FF000F24E00200328010005000500BB4E0020F2
:10500000A6FF0902140000000000000002290902A6
:10501000020000000000000001290100040004005B
:10502000F24E00200328010005000500C04E0020BC
:10503000A7FF090214000000000000000229090275
:10504000020000000000000001290100040004002B
:10505000F24E00200328010005000500C54E002087
:10506000A8FF090214000000000000000229090244
:1050700002000000000000000129010004000400FB
:10508000F24E00200328010005000500CA4E002052
:10509000A9FF090214000000000000000229090213
:1050A00002000000000000000129010004000400CB
:1050B000F24E00200328010005000500CF4E00201D
:1050C000AAFF0902140000000000000002290902E2
:1050D000020000000000000001290100040004009B
:1050E000F24E00200328010005000500D44E0020E8
:1050F000ABFF0902140000000000000002290902B1
:10510000020000000000000001290100040004006A
:10511000F24E002005D80000C933002000D800005E
:105120001934002001D80000F534002002D8000016
:10513000033500200E300000BF3500201451002040
:10514000010000001C51002001000000245100203B
:10515000030000000000000000000000000000004C
:10516000D4510020E281002006000100013400003B
:105170003D3D002000340000613D0020003800006B
:10518000033E002001380000E33D0020033800000A
:10519000353E002000C80000413E002010340000D1
:1051A000653E002013380000193C0020153800002F
:1051B0006B3C002017380000AD3C0020193800007F
:1051C000253D002006D80000B93E002007D8000089
:1051D000DF3E00206C5100200D0000000700080099
:1051E00009000A000A000C000D000D000F000F005E
:1051F000100011003452002000800020E401000063
:10520000644B00203452002020900020D001000088
:10521000644B002068070800202A0800E005000011
:10522000644B0020800C000008000000010000001A
:04523000070006006D
:040000052000044192
:00000001FF
