:020000042000DA
:1000000000980020A5040020AD040020C5040020B5
:1000100000000000000000000000000000000000E0
:10002000000000000000000000000000DD040020CF
:100030000000000000000000F5040020F70400208C
:1000400073260020672700200D310300552700206C
:10005000DB2600208D310300792700208B2700202C
:10006000F9040020F9040020CB270020AD31030063
:1000700057810200F9040020F9040020F90400204F
:10008000F9040020F9040020F90400206520002074
:10009000692000206D2000207120002075200020A4
:020000042000DA
:10016000320000008B0500202318002015290020F4
:10017000000000000000000063800200BD8002005B
:10018000690C0020FB800200198102003581020009
:100190005D810200E525002071050020550C00203E
:1001A0005F0C002000000000000000003F00000085
:1001B000F48B002000040000740B080048010000CC
:1001C0006807080000040000C80C080020050000B3
:1001D000000000002000000048000000580000005F
:1001E0006800000004010000160100002801000062
:1001F0002E010000202A00008E2E000001000000C9
:1002000088130000AD180020E9600200FD93020091
:10021000BF12002019280300A57402006D230020DE
:1002200003000000D52002001D290020040000006A
:10023000D74902000F490200831D020063910200AA
:10024000B7910200BF910200078202007182020092
:10025000AC3D0020AD830200938402004185020082
:1002600015860200378602005F860200758602004E
:10027000F9870200258902005D8A0200D38C020002
:10028000098D02000F900200438D0200278E0200AC
:10029000F98E0200478F0200DB0B0020D58F020091
:1002A00049510200775102002F5202001000000055
:1002B00020030000803E000000000000000000005D
:020000042000DA
:1002C000504600030003983A6400F401B80B000C98
:1002D000B80B120030003000CD009A01120024004B
:1002E00030006400B0001800280012001200D0078F
:1002F0000000FFFF00000000000000000000000000
:100300001F000002444131343538302D30310000B7
:1003100000000000000000000000000000000000DD
:0403200000000000D9
:020000042000DA
:10034000FFFF010000C201000000000000000000EB
:100350000000F4010100011B0A071AFFD200021578
:10036000585CDE931B0142CC9A1325009BEDC65EC0
:1003700000010002C5000000000009FF00605257A4
:100380002D424C450000000000000000000000006D
:100390000000000000000000000044413134353806
:1003A00078000000000000000000000000000000D5
:1003B000000000000000000000000000000000003D
:1003C000000000000000000000000000000000002D
:1003D0000000000000000000010000CAEA80D00711
:0403E000064064323D
:020000042000DA
:100440000348854603F0E0F900480047C720020052
:10045000009800200F4906200880FF200E49013037
:1004600008600E4988683E2290432E308860002242
:10047000052000070280018A0F231B021943018215
:1004800001210748C90404C1401E0028FBDA62B6F6
:10049000704700000034005080E100E0003300505D
:1004A000FF0B00001548804715480047042071469F
:1004B000084203D0EFF3098012490847EFF30880A0
:1004C0001049084704207146084203D0EFF3098021
:1004D0000D490847EFF308800B490847042071468F
:1004E000084203D0EFF3098008490847EFF308807A
:1004F00006490847FEE7FEE7FEE700005504002036
:10050000410400203109002011050020270E0020A1
:1005100005221207518A8023194351821249036828
:100520000B6043684B6083688B60C368CB60036972
:100530000B6143694B6183698B61C369CB6108625D
:100540000A48836A4B62C36A8B62036BCB62C36BDC
:100550000B63436B4B63806B8863908A800601D585
:1005600000BE7047FEE700000018080000ED00E044
:1005700010B59A490020086000F02AFB012080078E
:10058000016B49004908016310BD1CB59449012065
:10059000087094490820088003F048F901F02AFA0D
:1005A00000F07BFA90480178017090480178017062
:1005B000012003F041F9FF2401340D202146800180
:1005C00003F040F901F0EEFE01F08EF800F090FA31
:1005D000042000F0FCF8072000F0F9F80A2000F0F1
:1005E000F6F8062000F0F3F80B2000F0F0F80120F8
:1005F00000F0EDF8022000F0EAF8002000F0E7F843
:100600007B48006803F024F900F0EEFB01F02EF8BF
:10061000A00501682143016000F049FB00F000F9EA
:1006200002F07AFBFFF7A4FF002505242407E582EA
:1006300070484188E0229143A0314180012003F0BD
:100640000DF902F0DEFF04262089000619D50120ED
:100650008007006B000414D403F006F9C00710D122
:10066000042003F007F9074603F00AF9002F08D029
:10067000042101A8019503F009F9002801D000F038
:10068000BAFA02F0E2FE5C4F387C002802D002F099
:10069000BCFE3D7403F087F80028D5D172B601F096
:1006A000A7FE69460870042806D002280AD003284D
:1006B00008D001287ED088E05048007801280CD06E
:1006C00003200870208A304320824D48C0690128E9
:1006D000087813D9032802D049E00220F1E703F09B
:1006E000DBF8002843D003F0DDF800283FD00320DA
:1006F00003F0DEF800283AD0022006E0032836D1C5
:1007000003F0D6F8002832D001203E4908703E4858
:10071000016931430161618A202291436182218A0A
:1007200002221143218269460A78618A022A21D075
:10073000314361827F212388890180273B432380C5
:1007400000235B1CDBB20A2BFBD3638A10273B43DD
:1007500063822E4B491E5961218880239943218051
:100760002B49022A0D700CD0032A0AD027E0022060
:100770006946CBE731436182618A102399436182E4
:10078000EEE71C494A88FF2301339A434A80628876
:10079000204B1A804A8801231A434A800195019907
:1007A000491C01911429FADB618989088900491CD7
:1007B000618100E008E061894906FAD5658030BFB3
:1007C0000169B143016100E030BF62B63CE7C10698
:1007D000C90E012088401049086070478C0308004A
:1007E000248400200033005000000800202A080064
:1007F0000490002020000050D291002054020800F4
:10080000E0010020C406080000ED00E00080004088
:10081000568400205884002080E200E070470000E9
:100820003E480178002902D08021417070473C4940
:10083000002008703B49C87070473848017800298B
:1008400002D0812141707047354901200870354937
:10085000C870704731480178002902D08221417068
:1008600070472F49022008702E490120C870704738
:100870002A488178002904D0491E0906090E817092
:1008800017D142780021002A04D09207920F0270FB
:10089000417004E00278002A01D0521E0270120654
:1008A000120E017005D0012A02D0022A01D1D1E72F
:1008B000C3E7704710B5194CA078401CA070207891
:1008C000002805D102F0FAFF421CFFF7A9FF2270B1
:1008D00010BD12490120C870704710490020C8702F
:1008E00070470E48C07870470020EFF31081012256
:1008F00082F31088052212071289120605D40A48CD
:10090000028901231A4302811846002900D00121DF
:1009100081F31088704705480078704725840020CF
:1009200054020800C606080000330050548400201A
:1009300005221207118A042319431182118A022306
:10094000194311821189402319431181184B012148
:100950001960184B08211980518A8023194351824C
:10096000154903680B6143684B6183688B61C368F9
:10097000CB6103690B6243694B6283698B62C36914
:10098000CB6208630D48836A4B63C36A8B63036B56
:10099000CB63C36B084940310B60436B4B60806B8A
:1009A0008860908A800601D500BE7047FEE700008F
:1009B00080E200E0003300504018080000ED00E045
:1009C00070B5464800220169D243002901D0114682
:1009D00000E00121CB170C0F1B0123430C01016127
:1009E0003F490D684E682C4333430C604B604369AC
:1009F000002B01D0144600E00124E317E50E5B0153
:100A00002B4344610D6864014E682C4333430C60F2
:100A10004B60C368002B01D0144600E00124E317AB
:100A2000650FDB002B43C4600D68E4004E682C4367
:100A300033430C604B608368002B00D1012282603D
:100A4000D017930F800018430C6892004B68224324
:100A500018430A60486070BD38B5002403252D0294
:100A600002232A4604212046009401F066F8002261
:100A7000012305211046009401F05FF814232A4653
:100A800003210020009401F058F8002213230221D2
:100A90001046009401F051F838BD10B50524240724
:100AA000208A022188432082A08A0007FCD50D48B5
:100AB0004188FF22013211434180A08880210843F0
:100AC000A0800321092002F0FFFE00F0B8F9FFF733
:100AD000C3FF608A20210843608210BD0880002087
:100AE0000080002020000050A1490020486070478D
:100AF00070B50520000701893022914301810189E9
:100B0000802211430181018989088900491C0181E2
:100B1000018908231943018196490C8814430C80EC
:100B2000448A9C4344820589402425430581058AE3
:100B30000426B5430582858AAD07FCD58C4E002579
:100B400075600D88012635430D804D89AE058A4DAF
:100B50000E8801D52E4300E0AE430E800D88782626
:100B6000B54328350D800D88062635430D80458A0E
:100B70001D4345820B8893430B800289A243028167
:100B80004889800503D57B49052060318880012094
:100B900080070168821591430160784801683F220F
:100BA0005202914342148918016001680203114303
:100BB000016070BD032172480902818108224280D0
:100BC0000021491C9629FCD38280704770477047EA
:100BD00010B56C4802F07EFE10BD70B5654C6088A3
:100BE000C006050F02F07CFE61881E2291436A0058
:100BF0001143618070BD10B563490120C863C86BA3
:100C00000028FCD101208007C16960480268914238
:100C100001D20022026019238A1ADB019A4212D300
:100C2000016002F063FE5A4A1188884201D9411AD4
:100C300000E0091A89B2182905D31080012002F0BA
:100C40005BFE02F05FFE10BD08B5009808BD08B558
:100C5000009808BD08B502F05BFE009008BD08B51D
:100C600002F05CFE009008BD08B54A4901204A69BF
:100C70005206D20F13D04A699206D20F0FD000222B
:100C80000A610092FF225F32009B5B1C009393423B
:100C9000FAD34969C907C90F02D002F045FE002006
:100CA00008BD40183721C0000901401870471FB522
:100CB000684601F0E0FA009802F0BEFD1FBD10B5D5
:100CC000354A0020117800290DD02F490120C86332
:100CD000C86B0028FCD101208007C0692F49096832
:100CE000884201D2012010BD0020107002F0E6FD04
:100CF000022803D002F0E2FD01280BD12849082088
:100D0000088005200007818A8906FCD4418A802258
:100D100091434182002010BD0020704708B515495D
:100D20004A8801231A434A8000210091491C0091FE
:100D30001429FBDB052109074A8992089200521CFD
:100D40004A814A895206FCD54B89042213434B81C0
:100D50004880488990434881888A0006FCD54889A4
:100D600080088000488148890006FCD508BD000045
:100D70002C840020200000500010000000020040E1
:100D800020300050E2040000C00000407C04080055
:100D9000780408000010005024840020D043002074
:100DA0000033005070B505460C46103C3F2002F061
:100DB000C1FD00280FD03A488068322806D9394949
:100DC0008D4201D03C2801D9002070BD2146344815
:100DD00002F0B6FD06E0204602F0B8FD01213F20FA
:100DE00002F0BAFD012070BD10B52F490B780A1D25
:100DF000002005E0C400145D3F2C04D0401CC0B2AC
:100E00009842F7D310BDC000284A4018826010BD38
:100E1000028908892649101A80B2884201D9012026
:100E200070470020704781692039897F082905D2E1
:100E30001E4A89001032515881617047FEE71E48F2
:100E40001C4901611D4941611D4981611D49C16103
:100E50001D4901621D4941621D4981621D49C162EE
:100E60001D4901631D4941631D4981631D49C163DA
:100E70001B4911485C31403001601B4941601B49EE
:100E800081601B49C16001201A49C00608601A49E7
:100E9000CA691202120ACA6116498039086070478D
:100EA000800408001034000004060800E43D00201F
:100EB00030750000942703000084004062B600DF14
:100EC00028A30200704701DF1CCA0200F8BD02DF40
:100ED00040CB0200F5E703DF84D4020004DF89B0D1
:100EE000BC330200F8BD05DFF8BD06DFEC0C0300E3
:100EF00070BD07DF80E100E000ED00E070B5164650
:100F00000D46104602F016FD002869D0340A30461E
:100F100002F010FD012812D0A87A1E2811D029460F
:100F20000A310E2845D019DC801E030002F01AFD9C
:100F30000B255829582D58315839583D5800022052
:100F400070BD3146274802F013FD0021204602F013
:100F500015FD0221304602F0FFFC41E018283CD08C
:100F600006DC102819D012282BD0162838D130E0F2
:100F7000522822D0D22833D127E0204602F004FDA7
:100F80002EE0204602F006FD2AE0204602F008FD91
:100F900026E0204602F00AFD22E0204602F00CFD89
:100FA0001EE0204602F00EFD1AE0204602F010FD81
:100FB00016E0204602F012FD12E0204602F014FD79
:100FC0000EE0204602F016FD0AE0204602F018FD71
:100FD00006E0204602F01AFD02E0204602F01CFD69
:100FE000002070BD01280000F8B50D4606468100BE
:100FF0002B48EA884458521C20686B89018F294F7E
:1010000051430091014640314A89C989511A8AB237
:10101000991A89B2B94214D29A4212D0294602F0E2
:1010200001FD2D892049009802F002FD2818801C3E
:101030004034E0823002401C80B2042102F08CFC7B
:10104000F8BD2821304602F0F9FCF8BDF8B5054698
:10105000870013480C46C059C9880068114E0246E3
:1010600040325389D2899A1A92B28B1A9BB2B342F8
:1010700011D20B4E8A420ED002F0E6FCF059052246
:101080005F30611C02F0E6FC2802401C80B20521A2
:1010900002F062FCF8BD2821284602F0CFFCF8BD22
:1010A0004C030800FF7F00001027000070B50446C5
:1010B000007800250D2801D00A2200E002225A49BA
:1010C0004B7A002B06D00D2804D0637C032B01D073
:1010D000432551E0097A8A4339D10D2809D00E28D9
:1010E00002D00F2803D134E0607C032804D34025CC
:1010F00042E0607C0328FAD8A07C0428F7D20A29B1
:1011000008D0607C012822D0022820D060780328F3
:1011100009D811E002F0A4FC012806D16078032868
:1011200003D0002801D0492526E002F099FC0028D0
:1011300002D160780228F6D83020035D224620468E
:10114000E17C3132143000F019F8054614E04225F4
:1011500012E002F085FC012807D16078052804D14F
:10116000A01D02F083FC0028DDD002F079FC0028ED
:1011700002D160780228D6D8284670BDFFB500207D
:1011800086B001216A461170044605910021002CA9
:1011900006D0089D099A1F239A4234D9402032E094
:1011A0001C23069D079AF7E76B185E78330002F060
:1011B000D9FB1D2610101010101010101026262616
:1011C0002626262626262626262610101010101043
:1011D0002600059B03E06F46FF5CB74204D05B1E10
:1011E0005BB2002BF7DA03E0002B01DB4A2006E0BC
:1011F000059B6F46FE54059B5B1CDBB205936B5C45
:10120000491C5918C9B2914201D20028CCD0914250
:1012100002D04A200AB0F0BD641CE4B2022CF9D21C
:101220000028B3D0F6E700009805080070B5EFF38A
:101230001085012080F31088264802F01DFC04462A
:10124000002D1DD0012080F31088002C23D02046D3
:101250002038C08B204988421DD16189208902F045
:1012600011FC05000ED021461031A3896289208926
:10127000A847002806D001280DD002280BD105E090
:101280000020E0E7204602F003FC04E0114821467C
:101290000C3002F055FBEFF31084012080F310882E
:1012A0000C480068002802D1012002F0F7FB002C56
:1012B00003D0012080F3108870BD0020FAE710B53C
:1012C000BC21064802F0F0FB0549012002F0F2FBC8
:1012D00010BD0000A80508003883000004060800BF
:1012E0002D120020F3B581B001980C460102CA1DF1
:1012F0000E310223344802F0E3FB047001990546E5
:10130000022732488E00002C06D0042C16D0062C62
:1013100010D0072C3FD108E0815905224968897C0B
:10132000114069708059C77335E0084602F0CEFB62
:10133000687030E080590F21C1732CE00446805959
:101340004068417C012902D1007E01280FD001981C
:1013500002F0C2FB01210028A0590BD04268D07DC9
:1013600000281CD001281AD004280DD00FE000203E
:1013700068700DE04068C27D022A01D0042A06D1BF
:10138000007C02280BD102E0107C022807D06F708D
:10139000A1590320C873284602F0A4FBFEBD697062
:1013A000F6E701460A780120042A01D90020704797
:1013B0004A78002A01D0012AF8D10A79082AF5D8FA
:1013C00049790829F2D87047021C00002805080056
:1013D000FFB589B00D4600206946059008720B984C
:1013E000000A009002F078FB07460B9802F0A2FA80
:1013F00000287DD00B982978000A8400784E0129B6
:1014000063D0042904D0062948D0072968D125E0F3
:101410003059C17B032901D0042961D169780029A1
:101420001AD040681022A91C02F014FB002F06D02D
:101430003159C87B032807D0042808D050E0305920
:10144000C07B032803D04BE00B20C87348E0052184
:10145000009802F04DFB43E00120B6E03059C07B1C
:101460000E283DD1009802F031FB002103E02A183C
:10147000401C9170C0B21028F9D3688A694608836D
:10148000294606A808221431023002F0E3FA06AB1E
:10149000AA1C3946009802F031FB21E03059C07B8C
:1014A0000F281DD1AA1C0A21009802F02DFB002F45
:1014B00004D03946009802F02DFB11E000231A46B3
:1014C0003946009802F02CFB0AE0012F08D10B9856
:1014D00002F030FA01281CD0002801D0022005902B
:1014E0006846007A002811D002AA0521009800E081
:1014F0000CE002F009FB6846027A6020024368466D
:10150000027201233946009802F00AFB05980DB0DB
:10151000F0BD3059C07B0228E2D16878002851D054
:1015200002210B9802F018FA305907224068A91CD2
:10153000173002F08FFAE878002804D1305940685B
:10154000407C01283AD0009802F0F0FA002837D009
:10155000297A009802F0F0FA002833D0009802F0BF
:10156000F1FA0121009802F0F3FA00282CD030594A
:101570004068417E00292BD0042929D0C17E027DFC
:101580001140C17630594068017F427D114001779A
:101590006846007A0028A7D1305902214268009895
:1015A000173202F0B1FA305941684031897B002985
:1015B00013D004210098FFF795FE91E7022004E084
:1015C000062002E0082000E00320694608728BE74D
:1015D0000021C17630594068D9E70B21C1737FE7FC
:1015E0002805080010B50C4602F0B8FA2188284AF0
:1015F00089005258274B1268D2685A5010BD10B556
:10160000144602F0B1FA210A214A89005258214BAE
:101610001268D2685A5010BDFFB50F46100A1C4917
:101620008000095881B009681E461546002901D07E
:10163000CC6803E0174900220C580A50002C0DD04A
:10164000201F40881449884208D1A068002802D091
:10165000204602F08FFA204602F092FA33462A46DC
:101660003946019802F092FA05B0F0BD70B50B480A
:101670000378021D00210A4D07E0CC00165D012E03
:1016800001D12418A560491CC9B29942F5D370BD97
:101690004C03080040840020388300000406080042
:1016A0000C4000200F4A518807235B0299434002F7
:1016B0000143518070470520000701883022114303
:1016C0000180018803221143018070470520000733
:1016D00001883022914301800188890889000180B6
:1016E000704700008000005030B5964A9649D005FA
:1016F000048880231C430480944C65892D0701D401
:10170000521EFAD2924C01222260924C0A88228008
:10171000914A4988118001889943018030BD002099
:101720007047704770477047002070470121890754
:10173000086B0722104308637047704730B588492B
:101740008648086087494C200880864C864B203CA0
:101750002382874985484880874886490180854992
:1017600019314180222141818121890001828349EF
:101770004182834901838149113141837E4A8149F4
:10178000203291804122804912018A807F4ACA809A
:101790007E4D1035CD810A824A82921C8A826A1F50
:1017A000CA82FF2246320A83794A4A83794A5921FA
:1017B00011807849784D20310D8043254D80774D3B
:1017C0005582D5228A80FF22D3320A81744A4A8107
:1017D000744A8A81754A744911806249744A603931
:1017E0004A80CA8810252A43CA806B4A0A3A0A816D
:1017F0005C4D704A403D6A80638208224A815649A6
:10180000644A0988403A118252496B4A098811801A
:101810006A490978002901D03021018330BD400890
:10182000704700B58BB0664A4262664A8262664A79
:101830004261664AC262664A0260664A0262664A5B
:101840004260664AC261464A4448002110604448EA
:101850004038026B03129A430263426B1F231B043E
:101860009A4303231B04D21842635D480268C312E3
:101870009A430260026803139A4302606846415427
:10188000491CC9B22829FAD301462822554802F03A
:10189000E1F8FFF753FF02F029F8534908800020D0
:1018A00002F02AF802F02EF80BB000BD10B52C4A59
:1018B0000F212A480902106029484038426B1F2333
:1018C0001B049A4303231B04D218426300060268D8
:1018D000D208D20002600520000702899208920017
:1018E000521C0281028908231A430281028A0A4398
:1018F000028216484189890504D5018878229143DE
:1019000008310180FFF71AFF3848006F007800287F
:1019100004D03748008813496039C880012001F09D
:101920009DFF10BD254800787047244901200870AC
:1019300011493020088370472049002008700E4963
:1019400008837047A0860100087F04002000005033
:1019500000800040560208004A0308004C05540766
:1019600080000040602C00507F7F0000AC29000008
:101970000022005009090000002400502204000049
:1019800030D00000EE110000002500502E020000B3
:1019900044200000402800500D9500000242000045
:1019A000E4DC00001092000053780000002A005090
:1019B0008B1000009DD500000026005044840020BC
:1019C0001F17002023170020291700202D170020A3
:1019D000251700203B170020271700201F18002084
:1019E000000200402000080078040800E001002008
:1019F00052040800FEB50020F84E034628220021BC
:101A0000424392198C00491C13510A29FADB401CED
:101A10000428F3DBFEF7D4FFF04800220838026008
:101A2000426015460024EE486900475A0120A04054
:101A300080B207421CD0282068438019A10040587A
:101A4000411C19D0002810D0C117224602F0A4F87A
:101A50002A0102F0A1F8E14B083B1A685B681043C9
:101A6000DE4A1943083A10605160641C0A2CDDDB21
:101A70006D1C042DD6DBFEBD0095019400BEE3E78E
:101A8000F8B5164604460D460A461F4601200021B9
:101A900002F082F8220102F07FF8D04B083B1A686E
:101AA0005B6810401940084300D100BE032C00D1F0
:101AB0000424CC4960014018690008183E43C680E0
:101AC000F8BD70B504460D460A460120002102F01B
:101AD00063F8220102F060F8C04A083A13685268BD
:101AE00018401140084300D100BE032C00D104244B
:101AF000BC49600140180121A940818070BD70B5CA
:101B000004460D460A460120002102F045F8220154
:101B100002F042F8B14A083A13685268184011407E
:101B2000084300D100BE032C00D10424AD4960015C
:101B300040180121A940418070BDFFB581B00C461D
:101B400005460A461F46012000210A9E02F024F89D
:101B50002A0102F021F8A14B083B1A685B6810408B
:101B60001940084300D100BE002E2146284602D06D
:101B7000FFF7C5FF01E0FFF7A4FF3B4621462846DB
:101B8000039AFFF77DFF05B0F0BD70B5154604461A
:101B90000E460A460120002101F0FEFF220101F05D
:101BA000FBFF8E4B083B1A685B68104019400843E6
:101BB00000D100BE002C07D0601E8A494000703161
:101BC0004018012C02D002E00020F6E70836018818
:101BD0000122B2409143B5400D43058070BD70B500
:101BE00004460D460A460120002101F0D5FF2201DE
:101BF00001F0D2FF794A083A136852681840114040
:101C0000084300D100BE032C00D1042475496001B3
:101C1000401800880121A940084000D0012070BD73
:101C2000FFB514460D4606460A4681B00120002144
:101C300001F0B2FF320101F0AFFF684B083B1A68B8
:101C40005B6810401940084300D100BE66A00068E0
:101C50000090664880892346133BFF2201329A4058
:101C60000B999043002901D0012700E00027D107FC
:101C700001D0002138E0910701D5012134E051075E
:101C800001D5022130E0110701D503212CE0D10656
:101C900001D5042128E0910601D5052124E0510653
:101CA00001D5062120E0110601D507211CE0D10550
:101CB00001D5082118E0910501D5092114E051054D
:101CC00001D50A2110E0110501D50B210CE0D1044A
:101CD00001D50C2108E0910401D50D2104E0510447
:101CE00001D50E2100E00F218F4040493843888103
:101CF00088890B9F80098001384388810F8A974328
:101D0000D00701D0002038E0900701D5012034E051
:101D1000500701D5022030E0100701D503202CE048
:101D2000D00601D5042028E0900601D5052024E046
:101D3000500601D5062020E0100601D507201CE042
:101D4000D00501D5082018E0900501D5092014E040
:101D5000500501D50A2010E0100501D50B200CE03C
:101D6000D00401D50C2008E0900401D50D2004E03A
:101D7000500401D50E2000E00F200A9A824017433C
:101D80000F820F8A0122104698408743C30701D073
:101D9000002042E0830701D501203EE0430701D542
:101DA00002203AE0030701D5032036E0C30601D53F
:101DB000042032E0830601D505202EE0430601D53C
:101DC00006202AE0030601D5072026E0C30501D539
:101DD000082022E083050BD509201EE008800020A2
:101DE0001C4000200030005001090F190014005061
:101DF000430501D50A2010E0030501D50B200CE0B6
:101E0000C30401D50C2008E0830401D50D2004E0B3
:101E1000400401D50E2000E00F20049B83401F43A7
:101E20000F82954861000818418B6B4689099B5DBC
:101E300089015B1919434183A007C30EFF21994013
:101E400080209840002C0BDA23071B0F083B9D08CD
:101E50008A4BAD00ED18EB698B430343EB6107E060
:101E6000A508874BAD00ED182B688B4303432B600F
:101E7000E006C00E82408348026084E67E4940311D
:101E80000A8A0121133881400A40C80701D0002086
:101E900038E0880701D5012034E0480701D5022049
:101EA00030E0080701D503202CE0C80601D5042046
:101EB00028E0880601D5052024E0480601D5062043
:101EC00020E0080601D507201CE0C80501D5082040
:101ED00018E0880501D5092014E0480501D50A203D
:101EE00010E0080501D50B200CE0C80401D50C203A
:101EF00008E0880401D50D2004E0480401D50E2037
:101F000000E00F20C240D0B2704710B55A4C4034A8
:101F1000238A0122133882409343D00701D0002046
:101F200038E0900701D5012034E0500701D50220A8
:101F300030E0100701D503202CE0D00601D50420A5
:101F400028E0900601D5052024E0500601D50620A2
:101F500020E0100601D507201CE0D00501D508209F
:101F600018E0900501D5092014E0500501D50A209C
:101F700010E0100501D50B200CE0D00401D50C2099
:101F800008E0900401D50D2004E0500401D50E2096
:101F900000E00F2081400B43238210BD10B5364C6A
:101FA0004034E38901221146133881408B43C8072E
:101FB00001D0002038E0880701D5012034E048072F
:101FC00001D5022030E0080701D503202CE0C80627
:101FD00001D5042028E0880601D5052024E0480624
:101FE00001D5062020E0080601D507201CE0C80521
:101FF00001D5082018E0880501D5092014E048051E
:1020000001D50A2010E0080501D50B200CE0C8041A
:1020100001D50C2008E0880401D50D2004E0480417
:1020200001D50E2000E00F2082401343E38110BD54
:10203000154A8000801880384163704710B5044607
:10204000FFF7ACFF1049A00040188038406B002813
:1020500001D0804710BDE106C90E012088400B4920
:10206000086010BD1320E9E71420E7E71520E5E735
:102070001620E3E71720E1E7C013005000ED00E071
:1020800000E400E000E100E0A880002080E200E041
:1020900008430121890303460B4343490B80434B0B
:1020A00018430880092002434A8070473E490A8845
:1020B0000F239B0100079A43800D02430A8070475B
:1020C000394900200880704737483949028802237F
:1020D0001A430280491E02D302889207FAD40021D3
:1020E0000181408970470AE000BF00BF00BF00BF08
:1020F00000BF00BF00BF00BF00BF00BF00BF401E49
:10210000F2D2704770B50222510204464E003046AA
:10211000FFF7BEFF1420FFF7E6FF002C01D00920D7
:1021200000E00720FFF7C2FFFFF7CEFF05460120C2
:10213000FFF7D9FF022200213046FFF7A9FF002C4C
:1021400001D0092000E00720FFF7B0FFFFF7BCFF38
:102150004019154A0021118070BDF0B5124C154888
:1021600020801420FFF7BFFF01256D02A580E580C8
:102170002088E9000843208020888E10B04320800A
:10218000FFF7A2FF0746208830432080FFF79CFF1F
:102190000246780071424018281A52005118691AF4
:1021A000A080E180F0BD000000150050014000005B
:1021B000A08601000148000008B58921052000071C
:1021C00001810121614A4903118001888022114364
:1021D000018001888908890001805D48018A022206
:1021E00011430182FFF7AAFA01F0DCFC01F0E0FCE8
:1021F0000020694601E00888401C08800888912872
:10220000F9D308BD08B55349002008804880534AD7
:10221000514BD380FF23D2331381C880C321518017
:102220004F4A082111806946088003E06A461188F8
:10223000491C1180694609889129F7D369460880AD
:1022400003E06A461188491C118069460988912972
:10225000F7D3694601E00888401C08800888912867
:10226000F9D308BD3F4A5080918001201080D0886A
:10227000C007FCD17047F1B5FFB0FFB094B011AC0E
:1022800033480494008AA41C1090FFF795FF31484E
:1022900001880F9141880E913049CA880D920A89B0
:1022A0000C92C2880B92408B0A902F48408809906C
:1022B00048888446FFF7A6FF00252B46FF2111A87A
:1022C000FFF7D0FF00210A460846049E275C365CD3
:1022D0007E40F607F60F8E401643491CC9B2F2B293
:1022E000082906D1FFA9C96C4A556D1C0021ADB261
:1022F0000A461030FF2680B2B600B042E5D95B1C1A
:102300009BB2022BDAD3124910980882144900209C
:10231000088010480F9901800E9941800F490D9A4D
:10232000CA800C9A0A810B9AC2800A9A42830E4A8A
:102330000998508060464880052000070188802267
:10234000914301807FB07FB015B0F0BD0002004026
:10235000E0300050002400508080000060280050D1
:1023600020200050003500500026005070B5164661
:102370000C46054601280FD106221749174801F0DF
:102380001DFC002808D006221449304601F062FBEB
:1023900006202070002070BD32462146284601F0FC
:1023A00013FC70BD70B50E480E49C4052288802507
:1023B0002A4322800C4A53891B0701D4401EFAD2BB
:1023C0000A4A012010600622044801F043FB2088DD
:1023D000A843208070BD0000383E030045840020E3
:1023E000A0860100D47F040020000050008000403F
:1023F000F8B5594F0026786D0090FEF772FA574CE9
:10240000002802D12079022801D100200090FEF797
:1024100056FC00280DD101F0DDFB002809D0E07842
:102420000126002805D005252D07A88AC00701D060
:1024300004268EE001F018FA002838D1207900280F
:1024400001D1386D009046488069002801D0786D30
:102450000090A1786846009F01F0C2FB002878D068
:10246000A178684601F012FA002872D001F0BEFB94
:1024700000286ED0FF2000972D300127BF07396A52
:102480008142FCD3A178684601F0AAFB00280CD059
:10249000A178684601F0FAF9002806D0314A832075
:1024A00012780099022A03D003E001F0A5FB50E066
:1024B000B5202D4A1378012B00D121300023137051
:1024C000FB6B0F229B0A9B021343FB63FA6B274BA8
:1024D00080021A400243FA63F86B3722C002C00A36
:1024E00092051043F8630426002901D0091D0091CC
:1024F00000986421C00201F09BFA1D49401E08604B
:102500002179002900D0012101F07CFB1948C06A23
:1025100080470024FEF700FC002808D028883021DE
:102520000843288028880321084328800124386B29
:102530000004C00FFBD010480168C905FCD5002C71
:1025400001D0FFF7C3F801F063FB2889802188439D
:1025500028813046F8BD000060020020C606080051
:10256000A80508005402080055840020FF03E0FF7E
:102570004C8400201C07080000020040F8B5054606
:10258000AB48AD49047BAB48C9690068403000895D
:10259000884201D1002002E00002401C80B2060AFD
:1025A0001AE0A34800276038816E2E206043081887
:1025B0008078C0060AD001F031FB01469F4AB00086
:1025C000105864228256914200DA0127384600F002
:1025D000DBFF641C6407640F28466D1EEDB2002803
:1025E000DFD1F8BD70B50125AD07AC6B2046FEF715
:1025F00036FB934901F01CFA27221201511A00D12F
:102600000121904A50601160286B082188430843DB
:1026100028638D4804608D480068002802D0A042DD
:1026200000D200BE70BD10B50520000741898907A2
:1026300008D0418989088900418185494A88520822
:1026400052004A800189802211430181018A0422BB
:1026500091430182818A8907FCD501F0E5FA0120C6
:1026600080070169490700D500BE01694907FCD50B
:1026700010BDF8B5774EF08800282DD10120F080EC
:1026800075490820088005273F077889800720D0F2
:10269000B88A400701D5FEF700FA6D4D28888021E1
:1026A000084328806D4CFF20608004202080FFF7C5
:1026B00002F87D21C900E088A288000480188842C1
:1026C000F9D905202080B08878802988802081432E
:1026D0002980634910200860F8BD70B5FEF7F6FF49
:1026E000FFF7A1FF00265B4C0520E6800007418A2A
:1026F000802291434182584801894908490001815B
:1027000001F07AFA01208007816904221143816176
:1027100001F090FA5249102080310125086001F043
:102720008FFA01F093FA4A4826704089800510D547
:10273000607800280DD14B4865700088C00708D12B
:102740000120FFF7DFFC8B218900884201D902209C
:10275000607070BD10B501F07FFA00F062F83D497D
:102760000120087010BD10B501208007008A000606
:1027700001D500F056F810BD10B52F48C06CC0B29E
:10278000FFF7FCFE01F06EFA10BD10B501208007C6
:10279000008A000718D534490120087025484E23C7
:1027A0000068254A40300189126859432F4BC918E7
:1027B000515AC07C090A081AC0B2FFF7DFFE01F0C7
:1027C00057FA24490420087010BD70B528480088C5
:1027D00085062848AD0E44681748006F0078002829
:1027E00002D1284601F04AFA23480089194EC00553
:1027F00007D520060ED5E0070CD0284601F044FA94
:1028000003E0200606D5E00704D017490120486000
:1028100003203070200403D5E00501D5022030707C
:1028200070BD10B50B490120887001F033FA10BD5E
:10283000380308006C030800E00100204C03080086
:102840007102000040000040508400204C840020B1
:102850002000005054840020003300500016005027
:1028600000E200E000150050209000204A0008001F
:102870000020005000020040002C0050F8B5144623
:102880000F461E460546428801880623204601F071
:1028900017F90446287901F003FA20802771668031
:1028A000204601F01FF9F8BD70B514464288007942
:1028B0000D460102042321480C3101F001F9002DDD
:1028C00001D0132100E012210170448001F00AF9C7
:1028D00070BD0A880270120A42708A788270CA78C3
:1028E000C2700A7902714A7942718979817107202F
:1028F00070474278037812021A430A8082788A70FD
:10290000C278CA7002790A7142794A7180798871F5
:102910000720704710B500F013F810BD70B50646DB
:1029200015460C46362001F005F8022805D1E2B222
:1029300036232946304601F0B9F970BD0D3000004C
:1029400010B5DC21484801F0B7F94849362001F0BC
:10295000B9F90021362000F0FFFF10BDFEB50026BA
:1029600068468680404C009660896A46801C80B22A
:1029700001A901F0ADF968468088022812D10098BB
:1029800000280FD0007800280CD0E18801233622DF
:10299000374801F095F8009909782182067001F016
:1029A000A1F807E0E68132482682E1883622401C01
:1029B00001F094F90098002800D000786946088159
:1029C000A6810A2702AA0221032001F08DF9002521
:1029D0006189A800C01D081880B202AA022101F076
:1029E00083F9A0896D1C401CA081BD42F0DB6846C4
:1029F0000089002800D1A681FEBDFEB5064600274D
:102A000068468780184C0097E08961898000C01D66
:102A100008183D4680B26A4601A901F059F90098AC
:102A2000002817D00088002814D0E0896189800030
:102A3000801D081880B23246142101F055F9E08952
:102A400061898000801D081882B200212046FFF7AE
:102A50002BFF0127E089401C80B2E0810A2800D3C7
:102A6000E5813846FEBD0000BC80002024400020E7
:102A700003D800003EB50020C043A24C0290E38082
:102A800008886081A04801900092204600232D22F2
:102A900002A90A3001F02EF905466089002101F0F3
:102AA0002FF9002D03D10121362000F055FFE188D8
:102AB00001233622954801F003F8057001F012F861
:102AC00000203EBDF8B5002568468E4C058062802A
:102AD0002380E3800E46488801F018F92071708841
:102AE0002081E581A5818A48258200798949801F56
:102AF000087060896A46801C80B2022101F0F4F8F7
:102B000060896A46C01D80B2022101F0EDF860893B
:102B10006A460B3080B2022101F0E6F860896A460D
:102B20000F3080B2022101F0DFF860896A4613306D
:102B300080B2022101F0D8F860896A46173080B26D
:102B4000022101F0D1F860896A461B3080B202216F
:102B500001F0CAF860896A461F3080B2022101F094
:102B6000C3F860896A46233080B2022101F0BCF8C4
:102B700060896A46273080B2022101F0B5F8608989
:102B80006A462B3080B2022101F0AEF86089012143
:102B900001F0B6F80221362000F0DEFE0020F8BD7C
:102BA00010B50121362000F0D7FE002010BDFFB582
:102BB00083B000276846534E0781308A002852D0E0
:102BC000049854490578524800240079087000940C
:102BD00042E00197F18970898900C91D401880B2CF
:102BE00001AA02A901F074F8019800281CD00088FD
:102BF000002819D0F08971898000801D08182146AD
:102C000014225143049A80B28A181421921C01F0B4
:102C10006BF8F08971898000801D081882B200214C
:102C20003848FFF741FE02E0022168460181394839
:102C3000641C01786D1E491E0170F089A4B2401C0D
:102C400080B2ADB2F0810A2801D3F7810AE0009882
:102C5000401C00900A2805DA002D03D02D4800788A
:102C60000028B6D1002007B0F0BDF8B50C461646D6
:102C700023468A880833498820881F4601F04CF88B
:102C8000204D21886889081A801E030000F06AFE22
:102C90002A163838381E1938381E1938381E19388F
:102CA000381E1938381E1938381E1938381E193888
:102CB000381E1938381E1938381E1938FFF74EFEDD
:102CC0002188287A002201F02DF819E00F48298880
:102CD0001A233246401C00F0F3FE0646287900F025
:102CE000DFFF308020887080207A3071A07870718A
:102CF00062883946B01D00F0ADFE304600F0F2FEAD
:102D00000020F8BDBC8000208C40002006D80000C8
:102D10001E0508002890002038B50124684604707C
:102D20000C21494800F0C8FF474D6946EC702A1D48
:102D3000352000F0FDFF002800D02C7100F016FABD
:102D40004249322000F0BEFF0021322000F004FE94
:102D500000F0B2F838BD10B500F0C5FA10BD10B5DE
:102D60003948022380783222010239480E3100F0BE
:102D7000A7FE012101701321417000F0B3FE10BDC8
:102D800010B5044630482C238078322201023048A6
:102D90000E31801E00F094FE0146203004720022A5
:102DA0004272084600F09EFE10BD10B5502332223C
:102DB0000D21284800F084FE044600F00BFA20465E
:102DC00000F090FE0221322000F0C6FD10BD214827
:102DD00010B5012332220D210B3800F071FE0221C3
:102DE000017000F07FFE10BD10B500F090FA10BD2C
:102DF000194B10B59A4201D91A4602E0002A00D1B7
:102E0000012200F09BFF10BDF8B50646114815469B
:102E10000F46252332220D21C01C00F051FE04462E
:102E2000012020772046062239461D3000F012FE90
:102E30002320065565822582204600F092FA20461E
:102E400000F050FEF8BD00005C840020F04200203D
:102E5000043800000E3400003075000010B500F09A
:102E600073FF254900F076FF2448081810BDF8B517
:102E7000234D0646A876002400F066FF2919641C3D
:102E8000E4B20874082CF7D300241027381BB04292
:102E900001DD002007E000F057FFC117090E0918F7
:102EA000090A0902401A2855641CE4B2102CEDD31B
:102EB00000F04AFF2883F8BD10B52421104800F027
:102EC000FBFE00F054F910BD10B50E4802238078C7
:102ED000322201020C480E3100F0F2FD0D2101708A
:102EE000074920318978417000F0FCFD0321322030
:102EF00000F032FD10BD0000A0BB0D00A086010057
:102F0000688400205C8400201A38000010B5084650
:102F100009781C460B0000F025FD0805202020083C
:102F2000181B1E2000F020FA17E04178012904D078
:102F3000002902D0022903D00FE000F016FA0CE0BD
:102F40001146204600F01AFA07E000F00FFA04E0FC
:102F500000F00DFA01E000F00BFA002010BD10B5F2
:102F60000878304C801E030000F0FCFC02021418AC
:102F70008878A070C0070AD02B492A4A4879203A9D
:102F8000D07628480622001F891D00F063FD00F05E
:102F9000F0F903E0FFF7E3FE0020A070002010BD71
:102FA000F8B518460D4601461223204800F088FD6A
:102FB0000446284600F0DEF90027002821D0194EEB
:102FC000B078C0071DD030460822A91C103800F088
:102FD000F5FD002815D130462038018B2A88914212
:102FE0000FD101212170807E60743146102220397A
:102FF000601C00F02FFDB078FFF7C2FE00F0BDF9B5
:1030000000E02770204600F06DFD2078002801D1F7
:10301000FFF7A5FE0020F8BD10B500F0ADF90020C7
:1030200010BD0000888400205C8400201838000057
:1030300010B5104600F07EFC002809D10123322291
:103040000D21484800F03CFD0121017000F04AFDCF
:10305000002010BD70B5087815460F282DD008DC6B
:1030600001280DD0022834D003281CD00E2830D1DE
:103070001FE0102825D0112823D0122829D123E0C1
:103080004878002825D13748222332220D21801C80
:1030900000F016FD04460146284600F039F92046A6
:1030A00000F020FD15E04878002812D100F03BF92F
:1030B0000FE0487800F04EF90BE0487800F04BF94B
:1030C00007E000F04DF904E04878442801D100F011
:1030D0004AF9002070BD70B51C4610460D4600F040
:1030E00029FC022805D12049200A8870284600F0D2
:1030F0003FF8002070BD70B5087815460C460A28C8
:1031000010D1104600F016FC04280BD1607800287E
:1031100002D000F01DF905E00521284600F01CFC56
:1031200000F017F9002070BD10B5104600F0BCF893
:10313000002010BD10B510460C4600F0FBFB012826
:1031400008D12078002805D1FFF705FE002801D01E
:1031500000F002F9002010BD10B5084600F002F999
:10316000002010BD023400005C84002070477047CE
:1031700070B50446C9488078FF2828D03221C84855
:1031800000F0F6FB0521322000F0E6FBC4480923DD
:1031900032223F21401F00F093FC05460120287099
:1031A0002078A870607A6870214606220A31E81CEF
:1031B00000F050FC284600F095FC608800F0C8F94B
:1031C00000F098F9B7488078FFF7DAFD70BDFFF797
:1031D000ECFD70BDF0B5044693B00E2020700025C4
:1031E00065709620A081E081072020740120607422
:1031F0001C20E074274622461F20203714323874E2
:103200001646511E0B2000F093FD002805D02A46DB
:10321000E574A5A1304600F01DFC22463132511E56
:103220000C20119200F084FD002805D03D742A4640
:103230009FA1119800F00EFCE07C1A21081A45B2FB
:10324000002D2FDD3E206946087001AA022000F003
:103250006FFD002806D00D226846027095A101A8D6
:1032600000F07EFD6846007800281BD0A84200D2FE
:10327000054668460570E07C6D1C8555E27C20465D
:10328000092115301154E17C401C0B186846027866
:1032900001A9184600F0DEFB68460078E17C801C3E
:1032A0000818E07413B0F0BD10B50C4600F042FBF6
:1032B000032803D0052801D0042813D1022132208D
:1032C00000F04AFB7F49002008707548092332222C
:1032D0003F21C01E00F0F4FB2178817000F002FC59
:1032E000FFF763FD10BD70B5002477490220087018
:1032F0006A4DE878022807D2012801D100F0EEF8E3
:10330000E878401CE87000E00124204670BD70475A
:10331000032008700A20487000204882087548750C
:103320001720C882704710B50121322000F014FB2D
:10333000FFF711FD002801D0FFF737FD584804239F
:1033400032223F210A3800F0BBFB00F0CBFB10BD5E
:10335000704770477047704710B5FFF726FD10BDE6
:1033600070477047704770477047704770477047A5
:10337000704770470120704770477047704710B51D
:1033800018460C4601464648012332220B3800F00D
:1033900097FB2178491C017000F0A4FB002010BDB0
:1033A00010B5087800F0B2FC01020223322247482F
:1033B0000E3100F085FB012101701321417000F0F6
:1033C00091FB002010BD70B500243F4D26460C3502
:1033D000142060434019068022461221801C00F010
:1033E000C5FC641C202CF3DB70BD10B54878354C4F
:1033F000012801D0002005E02078012801D0FFF746
:10340000E2FF01202070002010BD10B5322000F036
:1034100091FA052814D122480E2332223F21401E62
:1034200000F04EFB0446002020701C480C2200785F
:1034300060702749A01C00F00DFB204600F052FBF5
:1034400010BD0188491C01807047F8B51D481E4C0D
:103450000078012821D11F4F1F4D26460C360097BA
:10346000A06869898000801D0A186068142148439B
:1034700080191B2300F0D1F800280EDD6068401C85
:103480006060202801DB00206060A068401CA06014
:103490000A28E4DB0020A060E1E7F8BD5C8400209E
:1034A0000DC80000888400200701031800000000F8
:1034B00002FF0000444131343538302054454D502E
:1034C0004C0000008D84002098810020043800000A
:1034D000D291002043340020BC80002010B502238C
:1034E000322236210B4800F0EBFA0021018000F077
:1034F000F9FA10BD10B5362104233222880200F0FB
:10350000DFFA3221018004490988418000F0EAFA9B
:1035100010BD000005D800005C84002010B51046E6
:103520000C4600F007FA012809D132220123114686
:10353000900200F0C5FA2178017000F0D3FA002063
:1035400010BD10B5487900F026F8002010BD00002D
:103550001121821F0C2A05D2A34A41008A18403A41
:103560003421515EA14A508088B21080411C083A33
:103570001160704710B512219D4800F09DFB9D48D9
:103580009B498088888110BD002803D098494889CC
:10359000401C488170479649CA88521CCA800A89D3
:1035A00010180881704770B5914CE089401CE0818B
:1035B000E0898E494D88FF216843913188421FDBA5
:1035C00012222146881800F045FA1221204600F008
:1035D00073FB214612318889A081A089C8891222F3
:1035E00068430880A089101A4A88121A4A808B887A
:1035F000142242439B1A8B806080A28001200874B1
:1036000070BD10B5FF2191317B4800F04DFA7A482A
:103610000021001F4170017010BDF0B5764D964637
:1036200002462D1F68782E1D07018C46BC19E17BD0
:10363000002902D00020C043F0BD0121E173F25106
:103640006146A17371466160A3810599A160411C27
:10365000C9B269701929EFD300216970F0BD19282A
:1036600002D30020C0437047634900014018C07B6B
:10367000704770B5044661482C23807832220102DD
:1036800005208002491D00F01BFA050019D0042016
:10369000A880207BA871A0882881A27B6A81284607
:1036A0000C30216800F0D6F9284600F01BFAA07B08
:1036B00000F072FB0020E073A268002A01D003CC66
:1036C000904770BDF8B54C4C0146241F2078251D4D
:1036D00000014019C07B002700281CD04548808885
:1036E000012818DD461A14E0207800014019FFF780
:1036F000C0FF2078761E401CC0B27F1C20701928A5
:1037000001D3002020700006000D4019C07B002866
:1037100001D0002EE8DC3846F8BD70B53549334895
:103720008C8812210B1B3449304A091F08388D78C8
:10373000083A40681268002D01D0A01A401C0128E8
:1037400000DA0120934201DD012200E000228A70AC
:10375000C0B2FFF7B7FF264A211A918170BD70B53C
:103760002449244A8C8821491226083909689288FC
:103770000020331B1E4D92B28B4209DA112C04DA61
:103780001D4B1B1F9B78012B02D0701A02D004E046
:10379000AA8170BD122900D00120C0B2FFF792FFAC
:1037A000211AA98170BDF8B5154C00272078154E57
:1037B0003D46012803D03168012909D012E0FFF706
:1037C000CEFF0746022035602070FFF7ECFE09E0CF
:1037D000022807D1FFF7A1FF0746356020780228AD
:1037E00000D125703846F8BD88430020DC43002016
:1037F000C09100201E050800309000205C8400204D
:103800002090002024900020064C0125064E05E063
:10381000E36807CC2B430C3C98471034B442F7D3F1
:10382000FCF712FEA0430020D043002003B401485F
:10383000019001BD551B020003B40148019001BD78
:103840000F3B030003B40148019001BDCF2B0300DF
:1038500003B40148019001BDCB2C030003B401481F
:10386000019001BD0990020003B40148019001BD1F
:10387000C12D030003B40148019001BD09210300DB
:1038800003B40148019001BDC92D030003B40148F0
:10389000019001BD2B69020003B40148019001BDF4
:1038A000EB31030003B40148019001BD3D32030038
:1038B00003B40148019001BDD721030003B40148BE
:1038C000019001BD1F21020003B40148019001BD18
:1038D0005D80020003B40148019001BD2F2F030059
:1038E00003B40148019001BD998F020003B401485F
:1038F000019001BD938F020003B40148019001BD06
:10390000CD8C020003B40148019001BD418F02003B
:1039100003B40148019001BD2768020003B40148C7
:10392000019001BD3968020003B40148019001BD56
:10393000B780020003B40148019001BDB326030023
:1039400003B40148019001BD2F22020003B40148D5
:10395000019001BD0B91020003B40148019001BD2B
:103960003126030003B40148019001BDFD3D030071
:1039700003B40148019001BDA528030003B4014828
:10398000019001BDD5AF020003B40148019001BD13
:10399000A1A5020003B40148019001BDE3A5020006
:1039A00003B40148019001BD87A8020003B4014897
:1039B000019001BDA7A9020003B40148019001BD17
:1039C00093AA020003B40148019001BD95AB020027
:1039D00003B40148019001BDF9AB020003B40148F2
:1039E000019001BD69AC020003B40148019001BD22
:1039F00017AD020003B40148019001BD77AD02008C
:103A000003B40148019001BDF1AD020003B40148C7
:103A1000019001BD85AE020003B40148019001BDD3
:103A200011AF020003B40148019001BD3350020000
:103A300003B40148019001BDA73A030003B4014853
:103A4000019001BD5548020003B40148019001BD39
:103A50001F50020003B40148019001BD213B030047
:103A600003B40148019001BD7F0C030003B4014879
:103A7000019001BDAB0C030003B40148019001BDEE
:103A8000BF22020003B40148019001BDEB260300F0
:103A900003B40148019001BD3524030003B401487B
:103AA000019001BDDD20030003B40148019001BD78
:103AB000533B030003B40148019001BD9D20030066
:103AC00003B40148019001BDB123030003B40148D0
:103AD000019001BD49E5020003B40148019001BD18
:103AE000F9E3020003B40148019001BDE1230300A2
:103AF00003B40148019001BD4BCD020003B401485D
:103B0000019001BD99D1020003B40148019001BDAB
:103B1000ABD0020003B40148019001BD69D002009E
:103B200003B40148019001BD77CF020003B40148FE
:103B3000019001BD01CC020003B40148019001BD18
:103B400029CC020003B40148019001BD15D2020046
:103B500003B40148019001BD8DD2020003B40148B5
:103B6000019001BDB938020003B40148019001BDC4
:103B7000CD44020003B40148019001BD7758020012
:103B800003B40148019001BDD722030003B40148EA
:103B9000019001BD2D42020003B40148019001BD16
:103BA0008D3D030003B40148019001BDF38E020076
:103BB00003B40148019001BD218E020003B4014805
:103BC000019001BD773B030003B40148019001BDA2
:103BD000D729030003B40148019001BD79200300F7
:103BE00003B40148019001BD2129030003B4014839
:103BF000019001BDD990020003B40148019001BDBC
:103C0000F793020003B40148019001BDC7680200A8
:103C100003B40148019001BD0D2C030003B4014819
:103C2000019001BD4975020003B40148019001BD36
:103C3000652C030003B40148019001BDDB2E030095
:103C400003B40148019001BD231D020003B40148E3
:103C5000019001BDC32C030003B40148019001BDD4
:103C60001531030003B40148019001BD3B66020019
:103C700003B40148019001BD2B66020003B4014862
:103C8000019001BD038D020003B40148019001BD04
:103C9000CF8F020003B40148019001BD1B660200F2
:103CA00003B40148019001BDE3E3020003B40148FD
:103CB000019001BD95E3020003B40148019001BDEC
:103CC000533B030003B40148019001BD8725030065
:103CD00003B40148019001BDA59B020003B4014853
:103CE000019001BD0D24030003B40148019001BD02
:103CF0006D9B020003B40148019001BD459F020085
:103D000003B40148019001BD7B9C020003B401484B
:103D1000019001BDB7E3020003B40148019001BD69
:103D20002B9B020003B40148019001BDF3AF0200D8
:103D300003B40148019001BDD129030003B4014837
:103D4000019001BD2528030003B40148019001BD85
:103D5000FD3A030003B40148019001BDD33A0300CA
:103D600003B40148019001BD213B030003B40148A5
:103D7000019001BD453B030002E008C8121F08C1C5
:103D8000002AFAD170477047002001E001C1121FDC
:103D9000002AFBD17047000003494A88521C4A8020
:103DA0008A88101888807047C09100200101000A9D
:103DB00004280A040203AA0055032A00A001FFFFF9
:103DC0002C010000FFFF0000A50D002002FC0000F8
:103DD0007D92020003FC000089920200C43D002095
:103DE0000300000000000000DC3D0020A4040800E7
:103DF00002000100110E0020FD0E0020E51200203F
:103E0000A3130020D1130020E90F00204D10002043
:103E1000AD10002005040000E51500200604000098
:103E20009339020007040000D93902000804000099
:103E30001F3A020002040000B73B02000004000029
:103E4000093C0200040400006F3C0200030400006F
:103E5000D93C0200010400004B3D020009040000AF
:103E6000D73A02000A040000413B02000B040000A4
:103E70004D3F020021040000994202002604000088
:103E8000EB47020000080000EF3F02003F00000087
:103E9000CF4102004B000000C93D02004E0000006F
:103EA000213E0200230400007F3E020024040000A3
:103EB000B93E0200270400009B43020028040000D2
:103EC000C5430200250400003D4302002B0400000E
:103ED000F1430200310400001144020032040000EA
:103EE00059440200350400008D44020029040000FA
:103EF000FF1500202A040000254502002C040000C4
:103F00006D4502002D040000F74502002E0400005C
:103F10002B4602002F040000634602003304000019
:103F200093460200340400001547020036040000E6
:103F300045470200300400009747020001080000D6
:103F40002D420200010800001916002000080000A0
:103F5000EF3F020000000000000000000000000031
:103F60000000000000000000000000000000000051
:103F70000000000000000000000000000000000041
:103F80000000000000000000000000000000000031
:103F90000000000000000000000000000000000021
:103FA0000000000000000000000000000000000011
:103FB0000000000000000000000000000000000001
:103FC00000000000000000000000000000000000F1
:103FD00000000000000000000000000000000000E1
:103FE00000000000000000000000000000000000D1
:103FF00000000000443F002002000000000000001C
:1040000000000000143E002026000000543F002065
:10401000044000206403080016000600FF003F0073
:10402000FF03FF01D0420020E84200202990002039
:1040300003000100A0FF060000A1FF160000A2FF80
:10404000160000A3FF160000A4FF160000A5FF162F
:104050000000A6FF160000A7FF160000A8FF16002C
:1040600000A9FF160000AAFF160000ABFF456E6115
:10407000626C652053747265616D446174612044A3
:104080006576696365004461746100000028010081
:104090000200020034400020032801000500050052
:1040A00036400020A1FF09000200000000000000CF
:1040B000022909020200000000000000012901009D
:1040C000180018006D4000200328010005000500BD
:1040D0003B400020A2FF0902140000000000000085
:1040E000022909020200000000000000012901006D
:1040F000040004008640002003280100050005009C
:1041000040400020A3FF090214000000000000004E
:10411000022909020200000000000000012901003C
:10412000040004008640002003280100050005006B
:1041300045400020A4FF0902140000000000000018
:10414000022909020200000000000000012901000C
:10415000040004008640002003280100050005003B
:104160004A400020A5FF09021400000000000000E2
:1041700002290902020000000000000001290100DC
:10418000040004008640002003280100050005000B
:104190004F400020A6FF09021400000000000000AC
:1041A00002290902020000000000000001290100AC
:1041B00004000400864000200328010005000500DB
:1041C00054400020A7FF0902140000000000000076
:1041D000022909020200000000000000012901007C
:1041E00004000400864000200328010005000500AB
:1041F00059400020A8FF0902140000000000000040
:10420000022909020200000000000000012901004B
:10421000040004008640002003280100050005007A
:104220005E400020A9FF0902140000000000000009
:10423000022909020200000000000000012901001B
:10424000040004008640002003280100050005004A
:1042500063400020AAFF09021400000000000000D3
:1042600002290902020000000000000001290100EB
:10427000040004008640002003280100050005001A
:1042800068400020ABFF090214000000000000009D
:1042900002290902020000000000000001290100BB
:1042A000040004008640002005D80000752A002084
:1042B00000D80000C52A002001D80000A12B002052
:1042C00002D80000AF2B00200E3000006B2C002025
:1042D000A842002001000000B042002001000000C0
:1042E000B8420020030000000000000000000000B1
:1042F00000000000804300208C84002006000100A4
:10430000013400003130002000340000553000201E
:1043100000380000F730002001380000D7300020BE
:10432000033800002931002000C80000353100208A
:104330001034000059310020133800000D2F0020E8
:10434000153800005F2F002017380000A12F002033
:10435000193800001930002001C800007F33002008
:1043600009C80000A13300200BC80000EB33002077
:1043700006D800001D35002007D800004335002076
:1043800000430020100000000700080009000A0098
:104390000A000C000D000D000F000F0010001100AE
:1043A000E04300200080002090040000883D0020B1
:1043B000E043002020900020C4010000883D002040
:1043C00068070800202A0800E0050000883D00205A
:1043D000800C00000800000001000000070006003B
:040000052000044192
:00000001FF
